:100000000C9450000C946F000C946F000C946F00D3
:100010000C946F000C946F000C946F000C946F00A4
:100020000C946F000C946F000C946F000C946F0094
:100030000C946F000C9456020C946F000C946F009B
:100040000C946F000C946F000C946F000C946F0074
:100050000C946F000C946F000C946F000C946F0064
:100060000C946F000C946F000C946F000C946F0054
:100070000C946F000C946F000C946F000C946F0044
:100080000C946F000C946F000C946F005B04A6043A
:10009000C10400053F057205B105FC0523067A067B
:1000A00011241FBECFEFD0E4DEBFCDBF11E0A0E032
:1000B000B1E0ECE5F2E100E00BBF02C007900D9269
:1000C000AA32B107D9F721E0AAE2B1E001C01D923E
:1000D000A433B207E1F70E9426070C942C090C9474
:1000E0000000CF93DF93CDB7DEB781E00E94980088
:1000F0000000DF91CF910895CF93DF93CDB7DEB7A6
:1001000084E690E00E943A0188E30E94980086E02D
:100110000E9498008FE00E94980081E00E94980061
:100120008AE090E00E943A010000DF91CF910895AB
:10013000CF93DF931F92CDB7DEB7898385E290E03E
:1001400025E230E0F90120812F7EFC01208382E24C
:1001500090E02981FC01208385E290E025E230E0F7
:10016000F90120812062FC012083000085E290E0FB
:1001700025E230E0F90120812F7DFC01208382E01F
:1001800090E00E943A0100000F90DF91CF91089516
:10019000CF93DF931F92CDB7DEB7898385E290E0DE
:1001A00025E230E0F90120812061FC01208382E218
:1001B00090E02981FC01208385E290E025E230E097
:1001C000F90120812062FC012083000085E290E09B
:1001D00025E230E0F90120812F7DFC01208381E0C0
:1001E00090E00E943A0100000F90DF91CF910895B6
:1001F000CF93DF9300D000D0CDB7DEB78A837C8366
:100200006B838A81898311C0898191E0980F9983DA
:100210000E9423018B819C819C012F5F3F4F3C8377
:100220002B83FC0180810E94C8008B819C81FC0192
:100230008081882349F700000F900F900F900F9056
:10024000DF91CF910895CF93DF931F92CDB7DEB7A3
:1002500089838981813128F4898181580E9498009D
:1002600004C0898181550E94980000000F90DF91A1
:10027000CF910895CF93DF9300D000D000D0CDB7B9
:10028000DEB79E838D831A82198213C01C821B8263
:1002900006C000008B819C8101969C838B838B819F
:1002A0009C8187309340ACF389819A8101969A832F
:1002B000898329813A818D819E812817390734F3FA
:1002C000000026960FB6F894DEBF0FBECDBFDF91BB
:1002D000CF910895CF93DF9300D01F92CDB7DEB7B3
:1002E00089837B836A8389818A3031F48A819B8107
:1002F000BC018DE00E946A0180EC90E0FC018081ED
:10030000882F90E080729927892BB1F386EC90E0DA
:100310002981FC01208380E090E00F900F900F90E6
:10032000DF91CF910895CF93DF9300D01F92CDB787
:10033000DEB789836A834B838B81882371F08A813E
:10034000282F30E081E090E002C0880F991F2A95A5
:10035000E2F7982F8981892B0EC08A81282F30E0FF
:1003600081E090E002C0880F991F2A95E2F7982F4C
:100370009095898189230F900F900F90DF91CF91F5
:100380000895CF93DF9300D0CDB7DEB789836A831A
:100390008A81282F30E081E090E002C0880F991F09
:1003A0002A95E2F7982F898189230F900F90DF918A
:1003B000CF910895CF93DF9300D000D0CDB7DEB7B3
:1003C00069837A838B839C8389819A81AB81BC8189
:1003D00080930E0190930F01A0931001B09311012F
:1003E00080910E0190910F01A0911001B091110127
:1003F00080932B0190932C01A0932D01B0932E019B
:1004000000000F900F900F900F90DF91CF91089503
:10041000CF93DF93CDB7DEB781E890E02BE0FC010E
:10042000208388E890E02DE730E0FC0131832083D1
:100430008FE690E022E0FC01208384E890E0FC015C
:100440001182108280910E0190910F01A0911001F4
:10045000B091110180932B0190932C01A0932D0159
:10046000B0932E018FE590E02FE530E0F901208177
:100470002068FC0120830000DF91CF910895CF9385
:10048000DF93CDB7DEB781E890E0FC011082000079
:10049000DF91CF910895CF93DF93CDB7DEB781E0A1
:1004A00080932A010000DF91CF9108951F920F924F
:1004B00000905F000F92112400905B000F922F9329
:1004C0003F934F935F936F937F938F939F93AF93DC
:1004D000BF93EF93FF93CF93DF93CDB7DEB78091B8
:1004E0002B0190912C01A0912D01B0912E0101972B
:1004F000A109B10980932B0190932C01A0932D01A8
:10050000B0932E0180912B0190912C01A0912D018F
:10051000B0912E01892B8A2B8B2B91F40E944B02D8
:1005200080910E0190910F01A0911001B0911101E5
:1005300080932B0190932C01A0932D01B0932E0159
:100540000000DF91CF91FF91EF91BF91AF919F910B
:100550008F917F916F915F914F913F912F910F906C
:1005600000925B000F9000925F000F901F90189513
:100570000F931F93CF93DF9300D000D0CDB7DEB79A
:1005800069837A838B839C8380912F0190913001C2
:10059000A0913101B09132019C01AD0169817A8154
:1005A0008B819C810E949807882309F466C020E013
:1005B00030E0A90169817A818B819C810E94980732
:1005C000882351F481E990E021E930E0F9012081AC
:1005D0002870FC01208309C081E990E021E930E026
:1005E000F90120812360FC01208328E539E344E7F9
:1005F0005FE369817A818B819C810E9498078823BF
:1006000044F488E990E02FEF3FEFFC013183208331
:1006100034C020E034E244EF56E469817A818B8172
:100620009C810E94BA08181634F488E990E0FC0115
:100630001182108222C008E910E020E030E040E0A2
:1006400053E469817A818B819C810E94BF08DC011F
:10065000CB019C01AD0160E074E284EF9AE40E945A
:100660009D07DC01CB01BC01CD010E940F08DC011C
:10067000CB010197F8019183808300000F900F90C8
:100680000F900F90DF91CF911F910F910895CF930D
:10069000DF93CDB7DEB780E990E020E4FC01208352
:1006A00081E990E02BE0FC01208360E070E0CB0169
:1006B0000E94B8020000DF91CF910895CF93DF939D
:1006C000CDB7DEB780E990E0FC01108281E990E0CF
:1006D000FC0110820000DF91CF910895CF93DF934A
:1006E000CDB7DEB788E290E02FEEFC01208300005A
:1006F00086E290E0FC01808160E00E94C1018823D5
:1007000011F481E370C086E290E0FC01808161E039
:100710000E94C101882311F484E365C086E290E061
:10072000FC01808162E00E94C101882311F487E30B
:100730005AC088E290E02FEDFC012083000086E2A1
:1007400090E0FC01808160E00E94C101882311F4E7
:1007500082E349C086E290E0FC01808161E00E9472
:10076000C101882311F485E33EC086E290E0FC01DC
:10077000808162E00E94C101882311F488E333C0C4
:1007800086E290E0FC01808163E00E94C101882341
:1007900011F480E328C088E290E02FEBFC01208375
:1007A000000086E290E0FC01808160E00E94C101CF
:1007B000882311F483E317C086E290E0FC01808176
:1007C00061E00E94C101882311F486E30CC086E237
:1007D00090E0FC01808162E00E94C101882311F455
:1007E00089E301C080E0DF91CF910895CF93DF933B
:1007F00000D01F92CDB7DEB78B831A82198227C033
:1008000085E290E028E0FC01208385E290E025E28B
:1008100030E0F9012081422F2B81222F30E0098026
:1008200002C0359527950A94E2F72170242BFC012C
:10083000208385E290E025E230E0F901208122600A
:10084000FC01208389819A8101969A838983898119
:100850009A810897ACF285E290E025E230E0F90158
:1008600020812460FC01208385E290E0FC0110825D
:1008700000000F900F900F90DF91CF910895CF93CC
:10088000DF931F92CDB7DEB789838981882F90E0EF
:10089000092E000CAA0BBB0B40E050E029E030E031
:1008A000841B950B2817390708F46FC28A5B9F4F8A
:1008B000FC010C948F0780912301282F30E081E008
:1008C00090E002C0880F991F2A95E2F7482F809187
:1008D0002401282F30E081E090E002C0880F991FAA
:1008E0002A95E2F7482B80912501282F30E081E0FE
:1008F00090E002C0880F991F2A95E2F7482B80915B
:100900002601282F30E081E090E002C0880F991F77
:100910002A95E2F7482B80912701282F30E081E0CB
:1009200090E002C0880F991F2A95E2F7482B80912A
:100930002801282F30E081E090E002C0880F991F45
:100940002A95E2F7842B809333012DC280912401F4
:10095000282F30E081E090E002C0880F991F2A958F
:10096000E2F7482F80912501282F30E081E090E0C8
:1009700002C0880F991F2A95E2F7842B80933301D8
:1009800012C280912301282F30E081E090E002C064
:10099000880F991F2A95E2F7482F80912401282F6C
:1009A00030E081E090E002C0880F991F2A95E2F7BD
:1009B000482B80912601282F30E081E090E002C092
:1009C000880F991F2A95E2F7482B80912701282F3D
:1009D00030E081E090E002C0880F991F2A95E2F78D
:1009E000482B80912901282F30E081E090E002C05F
:1009F000880F991F2A95E2F7842B80933301D3C186
:100A000080912301282F30E081E090E002C0880F20
:100A1000991F2A95E2F7482F80912401282F30E072
:100A200081E090E002C0880F991F2A95E2F7482BD9
:100A300080912501282F30E081E090E002C0880FEE
:100A4000991F2A95E2F7482B80912601282F30E044
:100A500081E090E002C0880F991F2A95E2F7482BA9
:100A600080912901282F30E081E090E002C0880FBA
:100A7000991F2A95E2F7842B8093330194C18091CA
:100A80002401282F30E081E090E002C0880F991FF8
:100A90002A95E2F7482F80912501282F30E081E048
:100AA00090E002C0880F991F2A95E2F7482B8091A9
:100AB0002801282F30E081E090E002C0880F991FC4
:100AC0002A95E2F7482B80912901282F30E081E018
:100AD00090E002C0880F991F2A95E2F7842B80933B
:100AE000330161C180912301282F30E081E090E043
:100AF00002C0880F991F2A95E2F7482F809125019F
:100B0000282F30E081E090E002C0880F991F2A95DD
:100B1000E2F7482B80912601282F30E081E090E019
:100B200002C0880F991F2A95E2F7482B809128016F
:100B3000282F30E081E090E002C0880F991F2A95AD
:100B4000E2F7482B80912901282F30E081E090E0E6
:100B500002C0880F991F2A95E2F7842B80933301F6
:100B600022C180912301282F30E081E090E002C073
:100B7000880F991F2A95E2F7482F80912501282F89
:100B800030E081E090E002C0880F991F2A95E2F7DB
:100B9000482B80912601282F30E081E090E002C0B0
:100BA000880F991F2A95E2F7482B80912701282F5B
:100BB00030E081E090E002C0880F991F2A95E2F7AB
:100BC000482B80912801282F30E081E090E002C07E
:100BD000880F991F2A95E2F7482B80912901282F29
:100BE00030E081E090E002C0880F991F2A95E2F77B
:100BF000842B80933301D7C080912301282F30E0CC
:100C000081E090E002C0880F991F2A95E2F7482FF3
:100C100080912401282F30E081E090E002C0880F0D
:100C2000991F2A95E2F7482B80912501282F30E063
:100C300081E090E002C0880F991F2A95E2F7842B8B
:100C400080933301B0C080912301282F30E081E0F0
:100C500090E002C0880F991F2A95E2F7482F8091F3
:100C60002401282F30E081E090E002C0880F991F16
:100C70002A95E2F7482B80912501282F30E081E06A
:100C800090E002C0880F991F2A95E2F7482B8091C7
:100C90002601282F30E081E090E002C0880F991FE4
:100CA0002A95E2F7482B80912701282F30E081E038
:100CB00090E002C0880F991F2A95E2F7482B809197
:100CC0002801282F30E081E090E002C0880F991FB2
:100CD0002A95E2F7482B80912901282F30E081E006
:100CE00090E002C0880F991F2A95E2F7842B809329
:100CF000330159C080912301282F30E081E090E03A
:100D000002C0880F991F2A95E2F7482F809124018D
:100D1000282F30E081E090E002C0880F991F2A95CB
:100D2000E2F7482B80912501282F30E081E090E008
:100D300002C0880F991F2A95E2F7482B809126015F
:100D4000282F30E081E090E002C0880F991F2A959B
:100D5000E2F7482B80912801282F30E081E090E0D5
:100D600002C0880F991F2A95E2F7482B809129012C
:100D7000282F30E081E090E002C0880F991F2A956B
:100D8000E2F7842B809333010EC080912901282F34
:100D900030E081E090E002C0880F991F2A95E2F7C9
:100DA000809333010000809133010F90DF91CF9148
:100DB0000895CF93DF93CDB7DEB72C970FB6F89495
:100DC000DEBF0FBECDBF6D837E838F83988729875B
:100DD0003A874B875C878D819E81AF81B885298555
:100DE0003A854B855C85BC01CD010E946D07DC0115
:100DF000CB0189839A83AB83BC8389819A81AB8140
:100E0000BC81892B8A2B8B2B29F489859A85AB850C
:100E1000BC8511C089859A85AB85BC858D839E83F1
:100E2000AF83B88789819A81AB81BC8189879A8792
:100E3000AB87BC87D0CFBC01CD012C960FB6F89400
:100E4000DEBF0FBECDBFDF91CF910895CF93DF936B
:100E5000CDB7DEB781E290E02FEFFC01208382E284
:100E600090E0FC01108284E290E02FEFFC012083EF
:100E700085E290E0FC01108287E290E020EFFC0127
:100E8000208388E290E02FE0FC0120838AE290E05A
:100E90002FEFFC0120838BE290E0FC01108268EED2
:100EA00073E080E090E00E94DA010E9408020E9454
:100EB0007C000E94710062E171E081E00E94F80014
:100EC00062E171E081E10E94F800000080912A0156
:100ED0008823E1F310922A01ECCFA1E21A2EAA1B7B
:100EE000BB1BFD010DC0AA1FBB1FEE1FFF1FA217DA
:100EF000B307E407F50720F0A21BB30BE40BF50BD7
:100F0000661F771F881F991F1A9469F7609570955F
:100F1000809590959B01AC01BD01CF010895EE0F26
:100F2000FF1F0024001C0BBE0790F691E02D0994D2
:100F30000E94450808F481E008950E94B1070C94CE
:100F400080080E94790858F00E94720840F029F445
:100F50005F3F29F00C94690851110C94B4080C946B
:100F60006F080E94910868F39923B1F3552391F318
:100F7000951B550BBB27AA2762177307840738F008
:100F80009F5F5F4F220F331F441FAA1FA9F335D065
:100F90000E2E3AF0E0E832D091505040E695001C19
:100FA000CAF72BD0FE2F29D0660F771F881FBB1FD3
:100FB000261737074807AB07B0E809F0BB0B802DB1
:100FC000BF01FF2793585F4F3AF09E3F510578F0DD
:100FD0000C9469080C94B4085F3FE4F3983ED4F392
:100FE000869577956795B795F7959F5FC9F7880FB1
:100FF000911D9695879597F90895E1E0660F771F03
:10100000881FBB1F621773078407BA0720F0621B93
:10101000730B840BBA0BEE1F88F7E09508950E94BE
:1010200016086894B1110C94B40808950E949908A8
:1010300088F09F5798F0B92F9927B751B0F0E1F099
:10104000660F771F881F991F1AF0BA95C9F714C049
:10105000B13091F00E94B308B1E008950C94B30848
:10106000672F782F8827B85F39F0B93FCCF3869582
:1010700077956795B395D9F73EF4909580957095DF
:1010800061957F4F8F4F9F4F0895990F0008550F1F
:10109000AA0BE0E8FEEF16161706E807F907C0F0FE
:1010A00012161306E407F50798F0621B730B840B06
:1010B000950B39F40A2661F0232B242B252B21F4E0
:1010C00008950A2609F4A140A6958FEF811D811D80
:1010D000089597F99F6780E870E060E008959FEFBA
:1010E00080EC089500240A941616170618060906BF
:1010F000089500240A94121613061406050608958E
:10110000092E0394000C11F4882352F0BB0F40F415
:10111000BF2B11F460FF04C06F5F7F4F8F4F9F4F55
:10112000089557FD9058440F551F59F05F3F71F0D7
:101130004795880F97FB991F61F09F3F79F087953E
:101140000895121613061406551FF2CF4695F1DFC7
:1011500008C0161617061806991FF1CF8695710557
:10116000610508940895E894BB2766277727CB018B
:1011700097F908950E94450808F48FEF08950E949A
:10118000D2080C9480080E94720838F00E947908F6
:1011900020F0952311F00C9469080C946F08112429
:1011A0000C94B4080E94910870F3959FC1F3950FB9
:1011B00050E0551F629FF001729FBB27F00DB11DDB
:1011C000639FAA27F00DB11DAA1F649F6627B00D6B
:1011D000A11D661F829F2227B00DA11D621F739F54
:1011E000B00DA11D621F839FA00D611D221F749F62
:1011F0003327A00D611D231F849F600D211D822FA9
:10120000762F6A2F11249F5750409AF0F1F08823CF
:101210004AF0EE0FFF1FBB1F661F771F881F9150FC
:101220005040A9F79E3F510580F00C9469080C943A
:10123000B4085F3FE4F3983ED4F3869577956795BD
:10124000B795F795E7959F5FC1F7FE2B880F911D26
:0C1250009695879597F90895F894FFCFC4
:10125C0000000002000000006A0100000000010014
:10126C000000232323232323232323232323232388
:0A127C00232300020306050401000D
:00000001FF
