:100000000C948A000C94A9000C94A9000C94A900EB
:100010000C94A9000C94A9000C94A9000C94A900BC
:100020000C94A9000C94A9000C94A9000C94A900AC
:100030000C94A9000C94AE020C94A9000C94A90095
:100040000C94A9000C94A9000C94A9000C94A9008C
:100050000C94A9000C94A9000C94A9000C94A9007C
:100060000C94A9000C94A9000C94A9000C94A9006C
:100070000C94A9000C94A9000C94A9000C94A9005C
:100080000C94A9000C94A9000C94A900FB0446054B
:100090006105A005DF05120651069C06C3061A0776
:1000A000440B490B4E0B630B680B6D0B8B0BAC0BAE
:1000B000EC0B0C0C440CD70C0E0D290D5A0D990DA0
:1000C0000D0E170E1C0E350E4D0E520E6E0E620EDC
:1000D0008C0EA00ED90ED90EA60EB90EC30EC60EEA
:1000E000320F4D0F680F830F9E0FB90FD40F3310CF
:1000F00059108E10C310F8102D1162119711CB11E9
:10010000C512AA12AD12B012B312B612B912BC12B5
:10011000BF12C21211241FBECFEFD0E4DEBFCDBF8D
:1001200011E0A0E0B1E0EEE1FCE200E00BBF02C0B4
:1001300007900D92A83CB107D9F722E0A8ECB1E0F6
:1001400001C01D92A733B207E1F70E94C6070C94C5
:100150000D160C940000CF93DF93CDB7DEB781E08E
:100160000E94D2000000DF91CF910895CF93DF93DA
:10017000CDB7DEB784E690E00E94920188E30E944A
:10018000D20086E00E94D2008FE00E94D20081E07F
:100190000E94D2008AE090E00E9492010000DF916C
:1001A000CF910895CF93DF931F92CDB7DEB78983A8
:1001B00085E290E025E230E0F90120812F7EFC010C
:1001C000208382E290E02981FC01208385E290E097
:1001D00025E230E0F90120812062FC01208300004B
:1001E00085E290E025E230E0F90120812F7DFC01DD
:1001F000208382E090E00E94920100000F90DF9146
:10020000CF910895CF93DF931F92CDB7DEB7898347
:1002100085E290E025E230E0F90120812061FC01D7
:10022000208382E290E02981FC01208385E290E036
:1002300025E230E0F90120812062FC0120830000EA
:1002400085E290E025E230E0F90120812F7DFC017C
:10025000208381E090E00E94920100000F90DF91E6
:10026000CF910895CF93DF9300D000D0CDB7DEB704
:100270008A837C836B838A81898311C0898191E021
:10028000980F99830E947B018B819C819C012F5F39
:100290003F4F3C832B83FC0180810E9402018B81B4
:1002A0009C81FC018081882349F700000F900F900A
:1002B0000F900F90DF91CF910895CF93DF9300D0EF
:1002C000CDB7DEB78A838A81898309C0898191E0AD
:1002D000980F99830E947B0180E20E94020189812C
:1002E0008132A0F38A810E947B0100000F900F9061
:1002F000DF91CF910895CF93DF931F92CDB7DEB7F3
:1003000089838981813128F4898181580E94D200B2
:1003100004C0898181550E94D20000000F90DF91B6
:10032000CF910895CF93DF9300D000D000D0CDB708
:10033000DEB79E838D831A82198213C01C821B82B2
:1003400006C000008B819C8101969C838B838B81EE
:100350009C8187309340ACF389819A8101969A837E
:10036000898329813A818D819E812817390734F349
:10037000000026960FB6F894DEBF0FBECDBFDF910A
:10038000CF910895CF93DF9300D01F92CDB7DEB702
:1003900089837B836A8389818A3031F48A819B8156
:1003A000BC018DE00E94C20180EC90E0FC018081E4
:1003B000882F90E080729927892BB1F386EC90E02A
:1003C0002981FC01208380E090E00F900F900F9036
:1003D000DF91CF910895CF93DF9300D01F92CDB7D7
:1003E000DEB789836A834B838B81882371F08A818E
:1003F000282F30E081E090E002C0880F991F2A95F5
:10040000E2F7982F8981892B0EC08A81282F30E04E
:1004100081E090E002C0880F991F2A95E2F7982F9B
:100420009095898189230F900F900F90DF91CF9144
:100430000895CF93DF9300D0CDB7DEB789836A8369
:100440008A81282F30E081E090E002C0880F991F58
:100450002A95E2F7982F898189230F900F90DF91D9
:10046000CF910895CF93DF9300D000D0CDB7DEB702
:1004700069837A838B839C8389819A81AB81BC81D8
:1004800080930E0190930F01A0931001B09311017E
:1004900080910E0190910F01A0911001B091110176
:1004A0008093C9019093CA01A093CB01B093CC0172
:1004B00000000F900F900F900F90DF91CF91089553
:1004C000CF93DF93CDB7DEB781E890E02BE0FC015E
:1004D000208388E890E02DE730E0FC013183208321
:1004E0008FE690E022E0FC01208384E890E0FC01AC
:1004F0001182108280910E0190910F01A091100144
:10050000B09111018093C9019093CA01A093CB01CE
:10051000B093CC018FE590E02FE530E0F901208128
:100520002068FC0120830000DF91CF910895CF93D4
:10053000DF93CDB7DEB781E890E0FC0110820000C8
:10054000DF91CF910895CF93DF93CDB7DEB781E0F0
:100550008093C8010000DF91CF9108951F920F9200
:1005600000905F000F92112400905B000F922F9378
:100570003F934F935F936F937F938F939F93AF932B
:10058000BF93EF93FF93CF93DF93CDB7DEB7809107
:10059000C9019091CA01A091CB01B091CC01019702
:1005A000A109B1098093C9019093CA01A093CB011D
:1005B000B093CC018091C9019091CA01A091CB0167
:1005C000B091CC01892B8A2B8B2B91F40E94A30232
:1005D00080910E0190910F01A0911001B091110135
:1005E0008093C9019093CA01A093CB01B093CC0131
:1005F0000000DF91CF91FF91EF91BF91AF919F915B
:100600008F917F916F915F914F913F912F910F90BB
:1006100000925B000F9000925F000F901F90189562
:100620000F931F93CF93DF9300D000D0CDB7DEB7E9
:1006300069837A838B839C838091DA019091DB01BB
:10064000A091DC01B091DD019C01AD0169817A814D
:100650008B819C810E940014882309F466C020E0ED
:1006600030E0A90169817A818B819C810E9400140C
:10067000882351F481E990E021E930E0F9012081FB
:100680002870FC01208309C081E990E021E930E075
:10069000F90120812360FC01208328E539E344E748
:1006A0005FE369817A818B819C810E940014882399
:1006B00044F488E990E02FEF3FEFFC013183208381
:1006C00034C020E034E244EF56E469817A818B81C2
:1006D0009C810E942215181634F488E990E0FC01F0
:1006E0001182108222C008E910E020E030E040E0F2
:1006F00053E469817A818B819C810E942715DC01FA
:10070000CB019C01AD0160E074E284EF9AE40E94A9
:100710000514DC01CB01BC01CD010E947714DC0182
:10072000CB010197F8019183808300000F900F9017
:100730000F900F90DF91CF911F910F910895CF935C
:10074000DF93CDB7DEB780E990E020E4FC012083A1
:1007500081E990E02BE0FC01208360E070E0CB01B8
:100760000E9410030000DF91CF910895CF93DF9393
:10077000CDB7DEB780E990E0FC01108281E990E01E
:10078000FC0110820000DF91CF910895CF93DF9399
:10079000CDB7DEB788E290E02FEEFC0120830000A9
:1007A00086E290E0FC01808160E00E9419028823CB
:1007B00011F481E3B8C086E290E0FC01808161E041
:1007C0000E941902882311F484E3ADC086E290E010
:1007D000FC01808162E00E941902882311F487E302
:1007E000A2C086E290E0FC01808163E00E941902D1
:1007F000882311F48AE297C088E290E02FEDFC0193
:100800002083000086E290E0FC01808160E00E948D
:100810001902882311F482E386C086E290E0FC018D
:10082000808161E00E941902882311F485E37BC076
:1008300086E290E0FC01808162E00E941902882338
:1008400011F488E370C086E290E0FC01808163E0EF
:100850000E941902882311F480E365C088E290E0C9
:100860002FEBFC012083000086E290E0FC018081F8
:1008700060E00E941902882311F483E354C086E2E9
:1008800090E0FC01808161E00E941902882311F44C
:1008900086E349C086E290E0FC01808162E00E942C
:1008A0001902882311F489E33EC086E290E0FC013E
:1008B000808163E00E941902882311F483E233C02F
:1008C00088E290E02FE7FC012083000086E290E0C0
:1008D000FC01808160E00E941902882311F481E408
:1008E00022C086E290E0FC01808161E00E94190252
:1008F000882311F482E417C086E290E0FC01808135
:1009000062E00E941902882311F483E40CC086E29D
:1009100090E0FC01808163E00E941902882311F4B9
:1009200084E401C080E0DF91CF910895CF93DF93FD
:1009300000D01F92CDB7DEB78B831A82198227C0F1
:1009400085E290E028E0FC01208385E290E025E24A
:1009500030E0F9012081422F2B81222F30E00980E5
:1009600002C0359527950A94E2F72170242BFC01EB
:10097000208385E290E025E230E0F90120812260C9
:10098000FC01208389819A8101969A8389838981D8
:100990009A810897ACF285E290E025E230E0F90117
:1009A00020812460FC01208385E290E0FC0110821C
:1009B00000000F900F900F90DF91CF910895CF938B
:1009C000DF931F92CDB7DEB789838981882F90E0AE
:1009D000092E000CAA0BBB0B40E050E029E030E0F0
:1009E000841B950B2817390708F46FC28A5B9F4F49
:1009F000FC010C94C1138091BF01282F30E081E0ED
:100A000090E002C0880F991F2A95E2F7482F809145
:100A1000C001282F30E081E090E002C0880F991FCC
:100A20002A95E2F7482B8091C101282F30E081E020
:100A300090E002C0880F991F2A95E2F7482B809119
:100A4000C201282F30E081E090E002C0880F991F9A
:100A50002A95E2F7482B8091C301282F30E081E0EE
:100A600090E002C0880F991F2A95E2F7482B8091E9
:100A7000C401282F30E081E090E002C0880F991F68
:100A80002A95E2F7842B8093DE012DC28091C0016C
:100A9000282F30E081E090E002C0880F991F2A954E
:100AA000E2F7482F8091C101282F30E081E090E0EB
:100AB00002C0880F991F2A95E2F7842B8093DE01EC
:100AC00012C28091BF01282F30E081E090E002C087
:100AD000880F991F2A95E2F7482F8091C001282F8F
:100AE00030E081E090E002C0880F991F2A95E2F77C
:100AF000482B8091C201282F30E081E090E002C0B5
:100B0000880F991F2A95E2F7482B8091C301282F5F
:100B100030E081E090E002C0880F991F2A95E2F74B
:100B2000482B8091C501282F30E081E090E002C081
:100B3000880F991F2A95E2F7842B8093DE01D3C199
:100B40008091BF01282F30E081E090E002C0880F43
:100B5000991F2A95E2F7482F8091C001282F30E095
:100B600081E090E002C0880F991F2A95E2F7482B98
:100B70008091C101282F30E081E090E002C0880F11
:100B8000991F2A95E2F7482B8091C201282F30E067
:100B900081E090E002C0880F991F2A95E2F7482B68
:100BA0008091C501282F30E081E090E002C0880FDD
:100BB000991F2A95E2F7842B8093DE0194C18091DE
:100BC000C001282F30E081E090E002C0880F991F1B
:100BD0002A95E2F7482F8091C101282F30E081E06B
:100BE00090E002C0880F991F2A95E2F7482B809168
:100BF000C401282F30E081E090E002C0880F991FE7
:100C00002A95E2F7482B8091C501282F30E081E03A
:100C100090E002C0880F991F2A95E2F7842B8093F9
:100C2000DE0161C18091BF01282F30E081E090E0BA
:100C300002C0880F991F2A95E2F7482F8091C101C1
:100C4000282F30E081E090E002C0880F991F2A959C
:100C5000E2F7482B8091C201282F30E081E090E03C
:100C600002C0880F991F2A95E2F7482B8091C40192
:100C7000282F30E081E090E002C0880F991F2A956C
:100C8000E2F7482B8091C501282F30E081E090E009
:100C900002C0880F991F2A95E2F7842B8093DE010A
:100CA00022C18091BF01282F30E081E090E002C096
:100CB000880F991F2A95E2F7482F8091C101282FAC
:100CC00030E081E090E002C0880F991F2A95E2F79A
:100CD000482B8091C201282F30E081E090E002C0D3
:100CE000880F991F2A95E2F7482B8091C301282F7E
:100CF00030E081E090E002C0880F991F2A95E2F76A
:100D0000482B8091C401282F30E081E090E002C0A0
:100D1000880F991F2A95E2F7482B8091C501282F4B
:100D200030E081E090E002C0880F991F2A95E2F739
:100D3000842B8093DE01D7C08091BF01282F30E043
:100D400081E090E002C0880F991F2A95E2F7482FB2
:100D50008091C001282F30E081E090E002C0880F30
:100D6000991F2A95E2F7482B8091C101282F30E086
:100D700081E090E002C0880F991F2A95E2F7842B4A
:100D80008093DE01B0C08091BF01282F30E081E068
:100D900090E002C0880F991F2A95E2F7482F8091B2
:100DA000C001282F30E081E090E002C0880F991F39
:100DB0002A95E2F7482B8091C101282F30E081E08D
:100DC00090E002C0880F991F2A95E2F7482B809186
:100DD000C201282F30E081E090E002C0880F991F07
:100DE0002A95E2F7482B8091C301282F30E081E05B
:100DF00090E002C0880F991F2A95E2F7482B809156
:100E0000C401282F30E081E090E002C0880F991FD4
:100E10002A95E2F7482B8091C501282F30E081E028
:100E200090E002C0880F991F2A95E2F7842B8093E7
:100E3000DE0159C08091BF01282F30E081E090E0B1
:100E400002C0880F991F2A95E2F7482F8091C001B0
:100E5000282F30E081E090E002C0880F991F2A958A
:100E6000E2F7482B8091C101282F30E081E090E02B
:100E700002C0880F991F2A95E2F7482B8091C20182
:100E8000282F30E081E090E002C0880F991F2A955A
:100E9000E2F7482B8091C401282F30E081E090E0F8
:100EA00002C0880F991F2A95E2F7482B8091C5014F
:100EB000282F30E081E090E002C0880F991F2A952A
:100EC000E2F7842B8093DE010EC08091C501282FAC
:100ED00030E081E090E002C0880F991F2A95E2F788
:100EE0008093DE0100008091DE010F90DF91CF91B1
:100EF0000895CF93DF93CDB7DEB72C970FB6F89454
:100F0000DEBF0FBECDBF6D837E838F839887298719
:100F10003A874B875C878D819E81AF81B885298513
:100F20003A854B855C85BC01CD010E949F13DC0195
:100F3000CB0189839A83AB83BC8389819A81AB81FE
:100F4000BC81892B8A2B8B2B29F489859A85AB85CB
:100F5000BC8511C089859A85AB85BC858D839E83B0
:100F6000AF83B88789819A81AB81BC8189879A8751
:100F7000AB87BC87D0CFBC01CD012C960FB6F894BF
:100F8000DEBF0FBECDBFDF91CF9108950F931F93AA
:100F9000CF93DF93CDB7DEB765970FB6F894DEBF7A
:100FA0000FBECDBF81E290E02FEFFC01208382E2F3
:100FB00090E0FC01108284E290E02FEFFC0120839E
:100FC00085E290E0FC01108287E290E020EFFC01D6
:100FD000208388E290E02FE0FC0120838AE290E009
:100FE0002FEFFC0120838BE290E0FC0110821A823B
:100FF000198261E070E080E090E00E9432020E947D
:1010000060020E94B60080E00E9496040E94AB003D
:1010100080E090E0A3E8B3E4BC01CD010E9410039E
:101020008CE0E4E2F1E0DE011A9601900D928A95DF
:10103000E1F786E090E09E838D838FEF8F838F8131
:101040008093DF0182E390E0A0E0B0E08093E001D4
:101050009093E101A093E201B093E3018091E0015C
:101060009091E101A091E201B091E3018093E4014C
:101070009093E501A093E601B093E7018BEE99E030
:101080009093E9018093E8018F818093EA0182E3E4
:1010900090E0A0E0B0E08093EB019093EC01A0938E
:1010A000ED01B093EE018091EB019091EC01A091E4
:1010B000ED01B091EE018093EF019093F001A093C8
:1010C000F101B093F20186EE9DE09093F4018093DC
:1010D000F3018F818093F50181E090E0A0E0B0E022
:1010E0008093F6019093F701A093F801B093F90172
:1010F0008091F6019091F701A091F801B091F9016A
:101100008093FA019093FB01A093FC01B093FD0141
:1011100089E19BE09093FF018093FE018F81809392
:10112000000282E390E0A0E0B0E08093010290939F
:101130000202A0930302B0930402809101029091F5
:101140000202A0910302B0910402809305029093E1
:101150000602A0930702B093080286EE9AE09093ED
:101160000A02809309028F8180930B0282E390E050
:10117000A0E0B0E080930C0290930D02A0930E02C9
:10118000B0930F0280910C0290910D02A0910E027B
:10119000B0910F028093100290931102A09312025B
:1011A000B093130281EE9EE0909315028093140297
:1011B0008F81809316028AEF90E0A0E0B0E08093E8
:1011C000170290931802A0931902B0931A0280910B
:1011D000170290911802A0911902B0911A028093FF
:1011E0001B0290931C02A0931D02B0931E0286EE78
:1011F00091E19093200280931F028091CD0188237A
:1012000051F48091CE01882331F489819A8101962D
:101210009A83898328C08091CD01882321F580910C
:10122000CE01882301F14091D6015091D7018981E7
:101230009A81489F9001499F300D589F300D11248D
:10124000C901880F991F820F931F27E030E0B90171
:101250000E948B139987888780E090E00E94E315B5
:1012600081E08093CD011C821B829BC08B819C817D
:10127000880F991F9E012F5F3F4F820F931F099682
:10128000FC0180819181FC01258136814781508557
:101290008B819C81880F991FBE016F5F7F4F860FE6
:1012A000971F0996FC0180819181FC0181819281C7
:1012B000A381B481281739074A075B0709F045C0A5
:1012C0008B819C81880F991F9E012F5F3F4F820F5A
:1012D000931F0996FC01008111818B819C81880FED
:1012E000991F9E012F5F3F4F820F931F0996FC01AC
:1012F00080819181FC01218532858B819C81880FC1
:10130000991FAE014F5F5F4F840F951F0996FC0137
:1013100080819181FC018081082E000C990BF901DC
:101320000995F80180838B819C81880F991F9E010C
:101330002F5F3F4F820F931F0996FC01808191819F
:10134000FC0115821682178210868B819C81880F82
:10135000991F9E012F5F3F4F820F931F0996FC013B
:10136000208131818B819C81880F991FAE014F5F55
:101370005F4F840F951F0996FC0180819181FC01CC
:1013800085819681A781B0850196A11DB11DF901C6
:1013900085839683A783B0878B819C8101969C83EC
:1013A0008B832B813C818D819E812817390708F41E
:1013B0005DCF0E943E1380911801909119010E9407
:1013C00041120E94631300008091C8018823E1F359
:1013D0001092C80112CFCF93DF9300D0CDB7DEB704
:1013E0009A8389838091D401882321F48091CD014F
:1013F000882319F089819A81E4C089819A81823099
:10140000910571F1833091052CF4009749F0019713
:1014100011F12EC083309105B1F1049731F128C04C
:101420008091D301813429F482E090E09A8389830A
:101430002CC08091D301833429F481E090E09A8319
:10144000898323C08091D3018234F9F483E090E052
:101450009A8389831AC084E090E09A83898316C0B6
:1014600084E090E09A83898311C01A8219820EC0A9
:1014700081E090E09093D7018093D60184E090E0E2
:101480009A83898303C0000001C0000089819A818A
:101490008230910509F18330910534F4009709F405
:1014A00087C0019741F08BC08330910531F10497DB
:1014B00009F454C084C08091D6019091D70103975C
:1014C0000CF078C08091D6019091D701019690934D
:1014D000D7018093D6016EC08091D6019091D7013B
:1014E00002970CF469C08091D6019091D7010197C1
:1014F0009093D7018093D6015FC081E08093CE01A5
:101500008091D6019091D7010197880F991F25E00E
:1015100030E0A901481B590BCA019093190180932F
:1015200018018091D6019091D70101979C01990FE4
:10153000440B550B80EA95E1DC010E94CD13DC01E0
:10154000CB01805E9044AD4FBF4F809314019093C8
:101550001501A0931601B093170131C081E080936B
:1015600013010E94AB008091D6019091D7010197A1
:1015700029F480E391E00E94CE1220C08091D60130
:101580009091D701029729F481E491E00E94CE1254
:1015900015C08091D6019091D701039779F482E527
:1015A00091E00E94CE1283E691E00E94CE1206C026
:1015B000000005C0000003C0000001C000008981D8
:1015C0009A810F900F90DF91CF910895CF93DF9381
:1015D00000D01F92CDB7DEB79B838A830E94C603DB
:1015E00089838A819B81009719F0019761F013C06C
:1015F00089818823A9F081E090E09B838A83898197
:101600008093D3010DC08981882311F41B821A8233
:101610001092D30106C01B821A821092D30101C01E
:1016200000008A819B810F900F900F90DF91CF91E6
:101630000895CF93DF9300D0CDB7DEB79A83898327
:101640008091D401882341F48091CD01882339F41D
:101650008091CE01882319F489819A81B2C289814F
:101660009A81092E000CAA0BBB0B40E050E027E04A
:1016700030E0841B950B2817390708F474C0805B91
:101680009F4FFC010C94C11381E090E09A83898301
:101690008EC083E090E09A83898389C08091120193
:1016A000282F30E080912102909122028217930727
:1016B0002CF483E090E09A83898379C084E090E001
:1016C0009A83898374C082E090E09A8389836FC093
:1016D00085E090E09A8389836AC08091D301813448
:1016E000A9F08091D301823489F08091D3018334B1
:1016F00069F08091D301843449F08091D301833221
:1017000029F08091D3018A3209F04CC086E090E044
:101710009A83898347C08091D201882329F085E08C
:1017200090E09A83898340C080912302882339F016
:1017300080912402882319F41A82198235C080917D
:101740002302882389F180912402882369F187E0AC
:1017500090E09A83898328C080912402882331F500
:101760001A82198223C01A821982109223021092BF
:1017700024021092D2011092260210922502109299
:1017800028021092270210922A0210922902109227
:10179000CF01109222021092210210922C0210927C
:1017A0002B0205C0000003C0000001C000008981B9
:1017B0009A81092E000CAA0BBB0B40E050E027E0F9
:1017C00030E0841B950B2817390708F4F8C1885AB4
:1017D0009F4FFC010C94C1130E94AB0081E08093E9
:1017E000130110922302109224021092D20110923F
:1017F00026021092250210922802109227021092BF
:101800002A021092290210922202109221021092B2
:101810002C0210922B02D3C10E94DF15BC018091D3
:10182000D001282F30E0C901880F991F880F991F18
:10183000820F931FAC01415F5F4F2091D601309121
:10184000D701429FC001439F900D529F900D1124DC
:101850009C012F5F3F4FCB01B9010E948B139093E6
:101860002C0280932B0280912B0290912C0290935A
:1018700026028093250280912B0290912C020E94D7
:1018800041120E94CE129BC10E94DF15BC018091C3
:10189000D001282F30E0C901880F991F880F991FA8
:1018A000820F931FAC01415F5F4F2091D6013091B1
:1018B000D701429FC001439F900D529F900D11246C
:1018C0009C012F5F3F4FCB01B9010E948B13909376
:1018D0002C0280932B0280911A0190911B01FC0134
:1018E00080818B3279F420912502309126028091FB
:1018F0002B0290912C02820F931F909326028093CB
:1019000025024CC080911A0190911B01FC0180813D
:101910008D3209F043C0209125023091260280913A
:101920002B0290912C02A901481B590BCA019093DC
:101930002602809325028091250290912602992308
:101940006CF5209125023091260280912B02909116
:101950002C02820F931F9093260280932502809180
:10196000130181508093130184E791E090931B0150
:1019700080931A0180911A0190911B010E94CE124E
:10198000209125023091260280912B0290912C0209
:10199000820F931F909326028093250280912B0241
:1019A00090912C020E9441120E94CE1208C10E9406
:1019B000DF1581709078992324F401978E6F9F6FC3
:1019C000019690932C0280932B0280912B02909190
:1019D0002C02892B39F484E791E090931B018093CA
:1019E0001A010CC080912B0290912C02019731F4C6
:1019F00086E791E090931B0180931A018091210268
:101A0000909122020196909322028093210280916C
:101A10001A0190911B010E94CE12D1C088E791E07B
:101A20000E94CE1280912502909126020E944112BE
:101A30000E94CE1280911301282F30E0809129025C
:101A400090912A02820F931F90932A028093290279
:101A5000B6C08091D301882351F18091D3010E94B7
:101A60008F120E9441120E94CE1280912702909103
:101A70002802880F991F9C01220F331F220F331F4A
:101A8000820F931F90932802809327028091D301A5
:101A90000E948F129C018091270290912802820F50
:101AA000931F90932802809327021092D3011092E3
:101AB000D20185C01092D3012091250230912602D7
:101AC000809127029091280228173907A9F481E014
:101AD000809323028091CF018F5F8093CF0180910B
:101AE000CF01833008F468C010922C0210922B02B0
:101AF00081E08093240260C08091290290912A02A3
:101B000080931301809113010E945D0110922802BD
:101B10001092270281E08093D2011092CF01809130
:101B20001801909119010197909319018093180160
:101B300043C080912B0290912C02892B51F481E0BB
:101B4000809313010E94AB008BE791E00E94CE12BC
:101B500019C080912B0290912C02843F914071F02A
:101B600080912B0290912C02883E934039F0809115
:101B70002B0290912C028C3D954021F485E891E058
:101B80000E94CE1280912B0290912C02019690938C
:101B90002C0280932B0280912B0290912C02803D8D
:101BA000974064F0109224021092CF018091D001EE
:101BB0008F5F8093D00102C0000001C000008981C6
:101BC0009A810F900F90DF91CF910895CF93DF937B
:101BD00000D0CDB7DEB79A8389838091CD01882369
:101BE00039F48091CE01882319F489819A81E4C067
:101BF00089819A81092E000CAA0BBB0B40E050E0B2
:101C000027E030E0841B950B2817390708F45FC0E4
:101C1000805A9F4FFC010C94C1138091CD01882301
:101C200009F45EC081E090E09A83898359C082E024
:101C300090E09A8389835BC080911801909119018B
:101C40001816190624F48091D401882321F087E026
:101C500090E09A8389838091D001813009F042C05D
:101C600083E090E09A8389833DC080911801909130
:101C700019011816190624F48091D401882321F043
:101C800087E090E09A8389838091D001823061F56A
:101C900084E090E09A83898327C085E090E09A836E
:101CA000898325C080912D0290912E028436910562
:101CB000ECF086E090E09A83898310922E021092D5
:101CC0002D0214C085E090E09A83898310C01A82A7
:101CD000198210922E0210922D0209C0000007C036
:101CE000000005C0000003C0000001C000008981A1
:101CF0009A81092E000CAA0BBB0B40E050E027E0B4
:101D000030E0841B950B2817390708F453C0885915
:101D10009F4FFC010C94C1131092CF011092D0017F
:101D20001092D2011092D3011092D10181E08093E0
:101D300013011092D4011092D9011092D8013AC027
:101D400081E0809312011092D40134C081E080932D
:101D5000D4011092D1010E94AB0081E08093130165
:101D600087E891E00E94CE1288E991E00E94CE12AD
:101D700021C080912D0290912E02019690932E0207
:101D800080932D0217C01092D50114C081E080937A
:101D9000D40181E08093D5010E94AB0081E0809363
:101DA000130181E08093D10189EA91E00E94CE1273
:101DB00001C0000089819A810F900F90DF91CF912F
:101DC0000895CF93DF9300D0CDB7DEB79A83898390
:101DD0008091D401882341F48091CD01882339F486
:101DE0008091CE01882319F489819A81EAC2809179
:101DF0002F0290913002A0913102B0913202C2962E
:101E0000A11DB11D80932F0290933002A093310247
:101E1000B09332028091330290913402A091350246
:101E2000B0913602C296A11DB11D809333029093EA
:101E30003402A0933502B093360289819A81092E2B
:101E4000000CAA0BBB0B40E050E027E030E0841B05
:101E5000950B2817390708F4C2C080599F4FFC0121
:101E60000C94C1138091330290913402A0913502F9
:101E7000B091360280339547A105B1050CF4F5C049
:101E800081E090E09A8389831092330210923402A9
:101E90001092350210923602E8C080913302909180
:101EA0003402A0913502B091360280339547A105E6
:101EB000B1050CF4DCC082E090E09A838983109233
:101EC0003302109234021092350210923602CFC0C3
:101ED0008091330290913402A0913502B091360284
:101EE00080339547A105B1050CF4C3C083E090E0B1
:101EF0009A83898310923302109234021092350231
:101F000010923602B6C08091330290913402A091B3
:101F10003502B091360280339547A105B1050CF426
:101F2000AAC084E090E09A838983109233021092D1
:101F3000340210923502109236029DC08091330215
:101F400090913402A0913502B091360280339547CA
:101F5000A105B1050CF491C085E090E09A838983D6
:101F6000109233021092340210923502109236020F
:101F700084C08091330290913402A0913502B091D7
:101F8000360280329E44A105B1050CF478C086E08B
:101F900090E09A8389831092330210923402109257
:101FA0003502109236026BC0809133029091340258
:101FB000A0913502B091360280319742A105B1055A
:101FC0000CF45FC087E090E09A838983109233021B
:101FD00010923402109235021092360252C01092C2
:101FE0002F0210923002109231021092320210929F
:101FF0003302109234021092350210923602809110
:10200000140190911501A0911601B0911701803231
:102010009F4BA240B10519F41A82198234C08091F5
:10202000140190911501A0911601B0911701803C07
:10203000944DA140B10529F482E090E09A83898310
:1020400022C08091140190911501A0911601B091C8
:10205000170180369A4EA105B105A9F484E090E0FD
:102060009A83898310C000000FC000000DC00000DB
:102070000BC0000009C0000007C0000005C0000040
:1020800003C0000001C0000089819A81092E000C64
:10209000AA0BBB0B40E050E027E030E0841B950B1F
:1020A0002817390708F48BC188589F4FFC010C94FE
:1020B000C1138091D1018823B9F080912F029091B2
:1020C0003002A0913102B091320284369105A1050F
:1020D000B10554F01092D10110922F0210923002EB
:1020E000109231021092320280912F0290913002B0
:1020F000A0913102B09132028C339C48A105B10508
:102100000CF450C181E08093D10110922F02109203
:102110003002109231021092320244C18091D101FA
:102120008823B9F080912F0290913002A091310262
:10213000B091320284369105A105B10554F0109298
:10214000D10110922F02109230021092310210929F
:10215000320280912F0290913002A0913102B09111
:10216000320284339A43A105B1050CF41DC181E00C
:102170008093D10110922F021092300210923102FE
:102180001092320211C18091D1018823B9F080915F
:102190002F0290913002A0913102B0913202843628
:1021A0009105A105B10554F01092D10110922F02B2
:1021B00010923002109231021092320280912F025E
:1021C00090913002A0913102B09132028C3D9E413B
:1021D000A105B1050CF4EAC081E08093D101109211
:1021E0002F02109230021092310210923202DEC0A1
:1021F0008091D1018823B9F080912F029091300213
:10220000A0913102B091320284369105A105B10549
:1022100054F01092D10110922F02109230021092BD
:1022200031021092320280912F0290913002A091DF
:102230003102B091320280339141A105B1050CF415
:10224000B7C081E08093D10110922F02109230022A
:102250001092310210923202ABC08091D1018823DA
:10226000B9F080912F0290913002A0913102B0918B
:10227000320284369105A105B10554F01092D101C6
:1022800010922F02109230021092310210923202FC
:1022900080912F0290913002A0913102B0913202D0
:1022A0008C369740A105B1050CF484C081E0809381
:1022B000D10110922F02109230021092310210922E
:1022C000320278C08091D1018823B9F080912F0229
:1022D00090913002A0913102B09132028436910582
:1022E000A105B10554F01092D10110922F02109265
:1022F0003002109231021092320280912F0290919E
:102300003002A0913102B09132028A389240A10588
:10231000B1050CF451C081E08093D10110922F02DD
:1023200010923002109231021092320245C0809118
:10233000D1018823B9F080912F0290913002A091B1
:102340003102B091320284369105A105B10554F0F5
:102350001092D10110922F0210923002109231028D
:102360001092320280912F0290913002A09131029E
:10237000B091320284369105A105B105FCF081E0EF
:102380008093D10110922F021092300210923102EC
:102390001092320213C081E08093D10181E08093DA
:1023A000D4010DC000000BC0000009C0000007C030
:1023B000000005C0000003C0000001C000008981CA
:1023C0009A810F900F90DF91CF910895CF93DF9373
:1023D00000D0CDB7DEB79A8389838091CD01882361
:1023E00039F48091CE01882319F489819A8144C0FF
:1023F00089819A818130910571F082309105B9F01F
:10240000892B09F58091D501882301F181E090E0C5
:102410009A8389831BC08091D501882319F41A827D
:10242000198215C082E090E09A83898310C0809160
:10243000D501882319F41A82198209C081E090E03D
:102440009A83898304C01A82198201C0000089819D
:102450009A818130910541F08230910541F0892BBC
:1024600049F40E94B60306C00E949F0303C00E9465
:10247000B603000089819A810F900F90DF91CF9170
:102480000895CF93DF93CDB7DEB72A970FB6F894B0
:10249000DEBF0FBECDBF9A87898789859A852AE0DE
:1024A00030E0B9010E948B139A83898389859A85CC
:1024B0002AE030E0B9010E948B13CB019C838B830F
:1024C0008B819C81892B71F48AEB91E09E838D83B3
:1024D0008981805D282F8D819E81FC0120838D81E3
:1024E0009E8114C08CEB91E098878F838B81805DF7
:1024F000282F8F819885FC0120838F8198850196F4
:102500002981205DFC0120838F8198852A960FB652
:10251000F894DEBF0FBECDBFDF91CF910895CF936A
:10252000DF931F92CDB7DEB789838981882F90E032
:10253000092E000CAA0BBB0B40E350E029E030E071
:10254000841B950B2817390718F180589F4FFC0101
:102550000C94C11381E090E01DC082E090E01AC0AD
:1025600083E090E017C084E090E014C085E090E044
:1025700011C086E090E00EC087E090E00BC088E0DC
:1025800090E008C089E090E005C080E090E002C0E3
:1025900080E090E00F90DF91CF910895CF93DF938B
:1025A00000D000D000D0CDB7DEB79E838D831A82D5
:1025B00019828D819E819C838B830AC089819A8137
:1025C00001969A8389838B819C8101969C838B835E
:1025D0008B819C81FC018081882381F720911301EC
:1025E0008D819E81BC01822F0E9432019981809150
:1025F0001301890F80931301000026960FB6F894FB
:10260000DEBF0FBECDBFDF91CF910895CF93DF9393
:10261000CDB7DEB78091CF01882311F480E013C0DD
:102620008091CF01813011F481E00DC08091CF0104
:10263000823011F483E007C08091CF01833010F025
:1026400087E001C080E0DF91CF910895CF93DF93C1
:102650001F92CDB7DEB785E089838091D0018130AC
:1026600011F486E089838091D001823011F48AE0F0
:10267000898389810F90DF91CF910895CF93DF9364
:102680001F92CDB7DEB78091D10189838981880FF0
:10269000880F880F89830E940613982F8981892BC0
:1026A000898389818295807F89830E942613982F50
:1026B0008981892B898389810E94960400000F906B
:1026C000DF91CF910895CF93DF9300D000D0CDB7A5
:1026D000DEB79C838B838B819C81FC018081898305
:1026E00089810E948F120E94DF048A838BE290E02E
:1026F0002A81FC01208300000F900F900F900F9013
:10270000DF91CF910895CF93DF93CDB7DEB700006F
:10271000DF91CF91089597FB072E16F4009407D010
:1027200077FD09D00E94D21307FC05D03EF49095A6
:1027300081959F4F0895709561957F4F0895A1E20F
:102740001A2EAA1BBB1BFD010DC0AA1FBB1FEE1F2B
:10275000FF1FA217B307E407F50720F0A21BB30B76
:10276000E40BF50B661F771F881F991F1A9469F7F2
:1027700060957095809590959B01AC01BD01CF014E
:102780000895EE0FFF1F0024001C0BBE0790F6916A
:10279000E02D0994B7FF0C94E6130E94E613821B08
:1027A000930B0895AA1BBB1B51E107C0AA1FBB1FB7
:1027B000A617B70710F0A61BB70B881F991F5A95CD
:1027C000A9F780959095BC01CD0108950E94F11361
:1027D000A59F900DB49F900DA49F800D911D112475
:1027E0000895A29FB001B39FC001A39F700D811DEA
:1027F0001124911DB29F700D811D1124911D08950A
:102800000E94AD1408F481E008950E9419140C94FC
:10281000E8140E94E11458F00E94DA1440F029F400
:102820005F3F29F00C94D11451110C941C150C9499
:10283000D7140E94F91468F39923B1F3552391F347
:10284000951B550BBB27AA2762177307840738F01F
:102850009F5F5F4F220F331F441FAA1FA9F335D07C
:102860000E2E3AF0E0E832D091505040E695001C30
:10287000CAF72BD0FE2F29D0660F771F881FBB1FEA
:10288000261737074807AB07B0E809F0BB0B802DC8
:10289000BF01FF2793585F4F3AF09E3F510578F0F4
:1028A0000C94D1140C941C155F3FE4F3983ED4F3C0
:1028B000869577956795B795F7959F5FC9F7880FC8
:1028C000911D9695879597F90895E1E0660F771F1A
:1028D000881FBB1F621773078407BA0720F0621BAB
:1028E000730B840BBA0BEE1F88F7E09508950E94D6
:1028F0007E146894B1110C941C1508950E94011562
:1029000088F09F5798F0B92F9927B751B0F0E1F0B0
:10291000660F771F881F991F1AF0BA95C9F714C060
:10292000B13091F00E941B15B1E008950C941B1575
:10293000672F782F8827B85F39F0B93FCCF3869599
:1029400077956795B395D9F73EF4909580957095F6
:1029500061957F4F8F4F9F4F0895990F0008550F36
:10296000AA0BE0E8FEEF16161706E807F907C0F015
:1029700012161306E407F50798F0621B730B840B1D
:10298000950B39F40A2661F0232B242B252B21F4F7
:1029900008950A2609F4A140A6958FEF811D811D97
:1029A000089597F99F6780E870E060E008959FEFD1
:1029B00080EC089500240A941616170618060906D6
:1029C000089500240A9412161306140605060895A5
:1029D000092E0394000C11F4882352F0BB0F40F42D
:1029E000BF2B11F460FF04C06F5F7F4F8F4F9F4F6D
:1029F000089557FD9058440F551F59F05F3F71F0EF
:102A00004795880F97FB991F61F09F3F79F0879555
:102A10000895121613061406551FF2CF4695F1DFDE
:102A200008C0161617061806991FF1CF869571056E
:102A3000610508940895E894BB2766277727CB01A2
:102A400097F908950E94AD1408F48FEF08950E943D
:102A50003A150C94E8140E94DA1438F00E94E1143C
:102A600020F0952311F00C94D1140C94D714112458
:102A70000C941C150E94F91470F3959FC1F3950FE7
:102A800050E0551F629FF001729FBB27F00DB11DF2
:102A9000639FAA27F00DB11DAA1F649F6627B00D82
:102AA000A11D661F829F2227B00DA11D621F739F6B
:102AB000B00DA11D621F839FA00D611D221F749F79
:102AC0003327A00D611D231F849F600D211D822FC0
:102AD000762F6A2F11249F5750409AF0F1F08823E7
:102AE0004AF0EE0FFF1FBB1F661F771F881F915014
:102AF0005040A9F79E3F510580F00C94D1140C94DE
:102B00001C155F3FE4F3983ED4F38695779567955F
:102B1000B795F795E7959F5FC1F7FE2B880F911D3D
:102B20009695879597F908958F929F92AF92BF924D
:102B3000CF92DF92EF92FF92CF93DF93EC01688107
:102B400079818A819B81611571058105910521F447
:102B500064E279ED8BE597E02DE133EF41E050E061
:102B60000E94EE1549015A019B01AC01A7EAB1E4AC
:102B70000E94E6136B017C01ACEEB4EFA501940159
:102B80000E94CD13DC01CB018C0D9D1DAE1DBF1D20
:102B9000B7FF03C00197A109B04888839983AA832E
:102BA000BB839F77DF91CF91FF90EF90DF90CF9025
:102BB000BF90AF909F908F9008950C9494158CE1E6
:102BC00091E00C949415A0E0B0E080931C019093E8
:102BD0001D01A0931E01B0931F010895052E97FBC0
:102BE0001EF400940E94051657FD07D00E949F1303
:102BF00007FC03D04EF40C94051650954095309583
:102C000021953F4F4F4F5F4F089590958095709558
:0E2C100061957F4F8F4F9F4F0895F894FFCF2F
:102C1E000000000200000000C201000000000100E0
:102C2E000000010160EA00000100C6010100000081
:102C3E0000008343DF01EA01F50100020B021602D8
:102C4E003D3D2020554E53454355524520203D3D98
:102C5E00003D3D202053454355524520203D3D3DEE
:102C6E003D003D3D20204D4158494D554D20203DC4
:102C7E003D3D003D3D20205345435552495459207A
:102C8E00203D3D002B002D003D0000556E6C6F6306
:102C9E006B696E67002E003D3D3D3D202053414641
:102CAE004520203D3D3D3D003D3D2020554E4C4FA5
:102CBE00434B454420203D3D0020414C41524D2088
:102CCE0020534F554E44454420003000303000050F
:082CDE000602010004030000DE
:00000001FF
