:100000000C948A000C94A9000C94A9000C94A900EB
:100010000C94A9000C94A9000C94A9000C94A900BC
:100020000C94A9000C94A9000C94A9000C94A900AC
:100030000C94A9000C94AE020C94A9000C94A90095
:100040000C94A9000C94A9000C94A9000C94A9008C
:100050000C94A9000C94A9000C94A9000C94A9007C
:100060000C94A9000C94A9000C94A9000C94A9006C
:100070000C94A9000C94A9000C94A9000C94A9005C
:100080000C94A9000C94A9000C94A900FB0446054B
:100090006105A005DF05120651069C06C3061A0776
:1000A000450A4A0A4F0A640A690A6E0A8C0AAD0AAE
:1000B000ED0A0D0B450BCC0B030C1E0C4F0C8E0CDC
:1000C000F70C010D060D1F0D370D3C0D580D4C0D95
:1000D000760D900DD70DD70DA40DB70DC10DC40D24
:1000E000280E430E5E0E790E940EAF0ECA0E290F27
:1000F0004F0F840FB90FEE0F231058108D10C11041
:10010000B011951198119B119E11A111A411A71165
:10011000AA11AD1111241FBECFEFD0E4DEBFCDBFB9
:1001200011E0A0E0B1E0E4EFF9E200E00BBF02C0B3
:1001300007900D92A638B107D9F721E0A6E8B1E003
:1001400001C01D92A63EB207E1F70E94C6070C94BB
:10015000F8140C940000CF93DF93CDB7DEB781E0A5
:100160000E94D2000000DF91CF910895CF93DF93DA
:10017000CDB7DEB784E690E00E94920188E30E944A
:10018000D20086E00E94D2008FE00E94D20081E07F
:100190000E94D2008AE090E00E9492010000DF916C
:1001A000CF910895CF93DF931F92CDB7DEB78983A8
:1001B00085E290E025E230E0F90120812F7EFC010C
:1001C000208382E290E02981FC01208385E290E097
:1001D00025E230E0F90120812062FC01208300004B
:1001E00085E290E025E230E0F90120812F7DFC01DD
:1001F000208382E090E00E94920100000F90DF9146
:10020000CF910895CF93DF931F92CDB7DEB7898347
:1002100085E290E025E230E0F90120812061FC01D7
:10022000208382E290E02981FC01208385E290E036
:1002300025E230E0F90120812062FC0120830000EA
:1002400085E290E025E230E0F90120812F7DFC017C
:10025000208381E090E00E94920100000F90DF91E6
:10026000CF910895CF93DF9300D000D0CDB7DEB704
:100270008A837C836B838A81898311C0898191E021
:10028000980F99830E947B018B819C819C012F5F39
:100290003F4F3C832B83FC0180810E9402018B81B4
:1002A0009C81FC018081882349F700000F900F900A
:1002B0000F900F90DF91CF910895CF93DF9300D0EF
:1002C000CDB7DEB78A838A81898309C0898191E0AD
:1002D000980F99830E947B0180E20E94020189812C
:1002E0008132A0F38A810E947B0100000F900F9061
:1002F000DF91CF910895CF93DF931F92CDB7DEB7F3
:1003000089838981813128F4898181580E94D200B2
:1003100004C0898181550E94D20000000F90DF91B6
:10032000CF910895CF93DF9300D000D000D0CDB708
:10033000DEB79E838D831A82198213C01C821B82B2
:1003400006C000008B819C8101969C838B838B81EE
:100350009C8187309340ACF389819A8101969A837E
:10036000898329813A818D819E812817390734F349
:10037000000026960FB6F894DEBF0FBECDBFDF910A
:10038000CF910895CF93DF9300D01F92CDB7DEB702
:1003900089837B836A8389818A3031F48A819B8156
:1003A000BC018DE00E94C20180EC90E0FC018081E4
:1003B000882F90E080729927892BB1F386EC90E02A
:1003C0002981FC01208380E090E00F900F900F9036
:1003D000DF91CF910895CF93DF9300D01F92CDB7D7
:1003E000DEB789836A834B838B81882371F08A818E
:1003F000282F30E081E090E002C0880F991F2A95F5
:10040000E2F7982F8981892B0EC08A81282F30E04E
:1004100081E090E002C0880F991F2A95E2F7982F9B
:100420009095898189230F900F900F90DF91CF9144
:100430000895CF93DF9300D0CDB7DEB789836A8369
:100440008A81282F30E081E090E002C0880F991F58
:100450002A95E2F7982F898189230F900F90DF91D9
:10046000CF910895CF93DF9300D000D0CDB7DEB702
:1004700069837A838B839C8389819A81AB81BC81D8
:1004800080930E0190930F01A0931001B09311017E
:1004900080910E0190910F01A0911001B091110176
:1004A0008093870190938801A0938901B0938A017A
:1004B00000000F900F900F900F90DF91CF91089553
:1004C000CF93DF93CDB7DEB781E890E02BE0FC015E
:1004D000208388E890E02DE730E0FC013183208321
:1004E0008FE690E022E0FC01208384E890E0FC01AC
:1004F0001182108280910E0190910F01A091100144
:10050000B09111018093870190938801A093890194
:10051000B0938A018FE590E02FE530E0F90120816A
:100520002068FC0120830000DF91CF910895CF93D4
:10053000DF93CDB7DEB781E890E0FC0110820000C8
:10054000DF91CF910895CF93DF93CDB7DEB781E0F0
:10055000809386010000DF91CF9108951F920F9242
:1005600000905F000F92112400905B000F922F9378
:100570003F934F935F936F937F938F939F93AF932B
:10058000BF93EF93FF93CF93DF93CDB7DEB7809107
:10059000870190918801A0918901B0918A0101970A
:1005A000A109B1098093870190938801A0938901E3
:1005B000B0938A018091870190918801A09189016F
:1005C000B0918A01892B8A2B8B2B91F40E94A30274
:1005D00080910E0190910F01A0911001B091110135
:1005E0008093870190938801A0938901B0938A0139
:1005F0000000DF91CF91FF91EF91BF91AF919F915B
:100600008F917F916F915F914F913F912F910F90BB
:1006100000925B000F9000925F000F901F90189562
:100620000F931F93CF93DF9300D000D0CDB7DEB7E9
:1006300069837A838B839C83809194019091950147
:10064000A0919601B09197019C01AD0169817A81D9
:100650008B819C810E94C912882309F466C020E026
:1006600030E0A90169817A818B819C810E94C91245
:10067000882351F481E990E021E930E0F9012081FB
:100680002870FC01208309C081E990E021E930E075
:10069000F90120812360FC01208328E539E344E748
:1006A0005FE369817A818B819C810E94C9128823D2
:1006B00044F488E990E02FEF3FEFFC013183208381
:1006C00034C020E034E244EF56E469817A818B81C2
:1006D0009C810E94EB13181634F488E990E0FC0129
:1006E0001182108222C008E910E020E030E040E0F2
:1006F00053E469817A818B819C810E94F013DC0133
:10070000CB019C01AD0160E074E284EF9AE40E94A9
:10071000CE12DC01CB01BC01CD010E944013DC01F3
:10072000CB010197F8019183808300000F900F9017
:100730000F900F90DF91CF911F910F910895CF935C
:10074000DF93CDB7DEB780E990E020E4FC012083A1
:1007500081E990E02BE0FC01208360E070E0CB01B8
:100760000E9410030000DF91CF910895CF93DF9393
:10077000CDB7DEB780E990E0FC01108281E990E01E
:10078000FC0110820000DF91CF910895CF93DF9399
:10079000CDB7DEB788E290E02FEEFC0120830000A9
:1007A00086E290E0FC01808160E00E9419028823CB
:1007B00011F481E3B8C086E290E0FC01808161E041
:1007C0000E941902882311F484E3ADC086E290E010
:1007D000FC01808162E00E941902882311F487E302
:1007E000A2C086E290E0FC01808163E00E941902D1
:1007F000882311F48AE297C088E290E02FEDFC0193
:100800002083000086E290E0FC01808160E00E948D
:100810001902882311F482E386C086E290E0FC018D
:10082000808161E00E941902882311F485E37BC076
:1008300086E290E0FC01808162E00E941902882338
:1008400011F488E370C086E290E0FC01808163E0EF
:100850000E941902882311F480E365C088E290E0C9
:100860002FEBFC012083000086E290E0FC018081F8
:1008700060E00E941902882311F483E354C086E2E9
:1008800090E0FC01808161E00E941902882311F44C
:1008900086E349C086E290E0FC01808162E00E942C
:1008A0001902882311F489E33EC086E290E0FC013E
:1008B000808163E00E941902882311F483E233C02F
:1008C00088E290E02FE7FC012083000086E290E0C0
:1008D000FC01808160E00E941902882311F481E408
:1008E00022C086E290E0FC01808161E00E94190252
:1008F000882311F482E417C086E290E0FC01808135
:1009000062E00E941902882311F483E40CC086E29D
:1009100090E0FC01808163E00E941902882311F4B9
:1009200084E401C080E0DF91CF910895CF93DF93FD
:1009300000D01F92CDB7DEB78B831A82198227C0F1
:1009400085E290E028E0FC01208385E290E025E24A
:1009500030E0F9012081422F2B81222F30E00980E5
:1009600002C0359527950A94E2F72170242BFC01EB
:10097000208385E290E025E230E0F90120812260C9
:10098000FC01208389819A8101969A8389838981D8
:100990009A810897ACF285E290E025E230E0F90117
:1009A00020812460FC01208385E290E0FC0110821C
:1009B00000000F900F900F90DF91CF910895CF938B
:1009C000DF931F92CDB7DEB789838981882F90E0AE
:1009D000092E000CAA0BBB0B40E050E029E030E0F0
:1009E000841B950B2817390708F46FC28A5B9F4F49
:1009F000FC010C94AC1280917D01282F30E081E045
:100A000090E002C0880F991F2A95E2F7482F809145
:100A10007E01282F30E081E090E002C0880F991F0E
:100A20002A95E2F7482B80917F01282F30E081E062
:100A300090E002C0880F991F2A95E2F7482B809119
:100A40008001282F30E081E090E002C0880F991FDC
:100A50002A95E2F7482B80918101282F30E081E030
:100A600090E002C0880F991F2A95E2F7482B8091E9
:100A70008201282F30E081E090E002C0880F991FAA
:100A80002A95E2F7842B809398012DC280917E01F4
:100A9000282F30E081E090E002C0880F991F2A954E
:100AA000E2F7482F80917F01282F30E081E090E02D
:100AB00002C0880F991F2A95E2F7842B8093980132
:100AC00012C280917D01282F30E081E090E002C0C9
:100AD000880F991F2A95E2F7482F80917E01282FD1
:100AE00030E081E090E002C0880F991F2A95E2F77C
:100AF000482B80918001282F30E081E090E002C0F7
:100B0000880F991F2A95E2F7482B80918101282FA1
:100B100030E081E090E002C0880F991F2A95E2F74B
:100B2000482B80918301282F30E081E090E002C0C3
:100B3000880F991F2A95E2F7842B80939801D3C1DF
:100B400080917D01282F30E081E090E002C0880F85
:100B5000991F2A95E2F7482F80917E01282F30E0D7
:100B600081E090E002C0880F991F2A95E2F7482B98
:100B700080917F01282F30E081E090E002C0880F53
:100B8000991F2A95E2F7482B80918001282F30E0A9
:100B900081E090E002C0880F991F2A95E2F7482B68
:100BA00080918301282F30E081E090E002C0880F1F
:100BB000991F2A95E2F7842B8093980194C1809124
:100BC0007E01282F30E081E090E002C0880F991F5D
:100BD0002A95E2F7482F80917F01282F30E081E0AD
:100BE00090E002C0880F991F2A95E2F7482B809168
:100BF0008201282F30E081E090E002C0880F991F29
:100C00002A95E2F7482B80918301282F30E081E07C
:100C100090E002C0880F991F2A95E2F7842B8093F9
:100C2000980161C180917D01282F30E081E090E042
:100C300002C0880F991F2A95E2F7482F80917F0103
:100C4000282F30E081E090E002C0880F991F2A959C
:100C5000E2F7482B80918001282F30E081E090E07E
:100C600002C0880F991F2A95E2F7482B80918201D4
:100C7000282F30E081E090E002C0880F991F2A956C
:100C8000E2F7482B80918301282F30E081E090E04B
:100C900002C0880F991F2A95E2F7842B8093980150
:100CA00022C180917D01282F30E081E090E002C0D8
:100CB000880F991F2A95E2F7482F80917F01282FEE
:100CC00030E081E090E002C0880F991F2A95E2F79A
:100CD000482B80918001282F30E081E090E002C015
:100CE000880F991F2A95E2F7482B80918101282FC0
:100CF00030E081E090E002C0880F991F2A95E2F76A
:100D0000482B80918201282F30E081E090E002C0E2
:100D1000880F991F2A95E2F7482B80918301282F8D
:100D200030E081E090E002C0880F991F2A95E2F739
:100D3000842B80939801D7C080917D01282F30E0CB
:100D400081E090E002C0880F991F2A95E2F7482FB2
:100D500080917E01282F30E081E090E002C0880F72
:100D6000991F2A95E2F7482B80917F01282F30E0C8
:100D700081E090E002C0880F991F2A95E2F7842B4A
:100D800080939801B0C080917D01282F30E081E0F0
:100D900090E002C0880F991F2A95E2F7482F8091B2
:100DA0007E01282F30E081E090E002C0880F991F7B
:100DB0002A95E2F7482B80917F01282F30E081E0CF
:100DC00090E002C0880F991F2A95E2F7482B809186
:100DD0008001282F30E081E090E002C0880F991F49
:100DE0002A95E2F7482B80918101282F30E081E09D
:100DF00090E002C0880F991F2A95E2F7482B809156
:100E00008201282F30E081E090E002C0880F991F16
:100E10002A95E2F7482B80918301282F30E081E06A
:100E200090E002C0880F991F2A95E2F7842B8093E7
:100E3000980159C080917D01282F30E081E090E039
:100E400002C0880F991F2A95E2F7482F80917E01F2
:100E5000282F30E081E090E002C0880F991F2A958A
:100E6000E2F7482B80917F01282F30E081E090E06D
:100E700002C0880F991F2A95E2F7482B80918001C4
:100E8000282F30E081E090E002C0880F991F2A955A
:100E9000E2F7482B80918201282F30E081E090E03A
:100EA00002C0880F991F2A95E2F7482B8091830191
:100EB000282F30E081E090E002C0880F991F2A952A
:100EC000E2F7842B809398010EC080918301282F34
:100ED00030E081E090E002C0880F991F2A95E2F788
:100EE000809398010000809198010F90DF91CF913D
:100EF0000895CF93DF93CDB7DEB72C970FB6F89454
:100F0000DEBF0FBECDBF6D837E838F839887298719
:100F10003A874B875C878D819E81AF81B885298513
:100F20003A854B855C85BC01CD010E948A12DC01AB
:100F3000CB0189839A83AB83BC8389819A81AB81FE
:100F4000BC81892B8A2B8B2B29F489859A85AB85CB
:100F5000BC8511C089859A85AB85BC858D839E83B0
:100F6000AF83B88789819A81AB81BC8189879A8751
:100F7000AB87BC87D0CFBC01CD012C960FB6F894BF
:100F8000DEBF0FBECDBFDF91CF9108950F931F93AA
:100F9000CF93DF93CDB7DEB763970FB6F894DEBF7C
:100FA0000FBECDBF81E290E02FEFFC01208382E2F3
:100FB00090E0FC01108284E290E02FEFFC0120839E
:100FC00085E290E0FC01108287E290E020EFFC01D6
:100FD000208388E290E02FE0FC0120838AE290E009
:100FE0002FEFFC0120838BE290E0FC0110821A823B
:100FF000198261E070E080E090E00E9432020E947D
:1010000060020E94B60080E00E9496040E94AB003D
:1010100080E090E0A3E8B3E4BC01CD010E9410039E
:101020008AE0E6E2F1E0DE011A9601900D928A95DF
:10103000E1F785E090E09E838D838FEF8F838F8132
:101040008093990182E390E0A0E0B0E080939A0160
:1010500090939B01A0939C01B0939D0180919A0174
:1010600090919B01A0919C01B0919D0180939E0164
:1010700090939F01A093A001B093A1018BED9CE000
:101080009093A3018093A2018F818093A40181E0BA
:1010900090E0A0E0B0E08093A5019093A601A0931A
:1010A000A701B093A8018091A5019091A601A091FC
:1010B000A701B091A8018093A9019093AA01A093E0
:1010C000AB01B093AC0182E29AE09093AE018093C1
:1010D000AD018F818093AF0182E390E0A0E0B0E0AA
:1010E0008093B0019093B101A093B201B093B3018A
:1010F0008091B0019091B101A091B201B091B30182
:101100008093B4019093B501A093B601B093B70159
:1011100088EE99E09093B9018093B8018F81809314
:10112000BA0182E390E0A0E0B0E08093BB0190932D
:10113000BC01A093BD01B093BE018091BB01909111
:10114000BC01A091BD01B091BE018093BF019093FD
:10115000C001A093C101B093C2018FED9DE09093B7
:10116000C4018093C3018F818093C5018AEF90E011
:10117000A0E0B0E08093C6019093C701A093C8019E
:10118000B093C9018091C6019091C701A091C80197
:10119000B091C9018093CA019093CB01A093CC0177
:1011A000B093CD018CED90E19093CF018093CE016F
:1011B00080E090E00E94AC1480911201882351F4E9
:1011C00080911301882331F489819A8101969A8351
:1011D0008983DEC080911201882329F58091130153
:1011E000882309F180911301482F50E089819A8169
:1011F000489F9001499F300D589F300D1124C9011F
:10120000880F991F820F931F27E030E0B9010E94D9
:10121000761299878887888599850E94AC1481E029
:1012200080931201B5C080911201882309F4B0C0E7
:101230001C821B829BC08B819C81880F991F9E0101
:101240002F5F3F4F820F931F0996FC018081918190
:10125000FC0125813681478150858B819C81880FD7
:10126000991FBE016F5F7F4F860F971F0996FC0184
:1012700080819181FC0181819281A381B4812817B1
:1012800039074A075B0709F045C08B819C81880FAD
:10129000991F9E012F5F3F4F820F931F0996FC01FC
:1012A000008111818B819C81880F991F9E012F5F86
:1012B0003F4F820F931F0996FC0180819181FC01B1
:1012C000218532858B819C81880F991FAE014F5FEC
:1012D0005F4F840F951F0996FC0180819181FC016D
:1012E0008081082E000C990BF9010995F801808383
:1012F0008B819C81880F991F9E012F5F3F4F820F2A
:10130000931F0996FC0180819181FC011582168250
:10131000178210868B819C81880F991F9E012F5FF9
:101320003F4F820F931F0996FC01208131818B81F1
:101330009C81880F991FAE014F5F5F4F840F951FEF
:101340000996FC0180819181FC0185819681A781AC
:10135000B0850196A11DB11DF90185839683A783F0
:10136000B0878B819C8101969C838B832B813C81F0
:101370008D819E812817390708F45DCF0E942912BC
:1013800080911A0190911B010E942C110E944E1213
:101390000000809186018823E1F3109286010CCF32
:1013A000CF93DF9300D0CDB7DEB79A838983809146
:1013B0009001882319F089819A8105C081E080938A
:1013C000130189819A810F900F90DF91CF91089539
:1013D000CF93DF9300D01F92CDB7DEB79B838A8374
:1013E00080919001882319F08A819B8125C00E94F9
:1013F000C60389838A819B81009719F0019761F068
:1014000013C089818823A9F081E090E09B838A83BF
:10141000898180938F010DC08981882311F41B82FB
:101420001A8210928F0106C01B821A8210928F01BD
:1014300001C000008A819B810F900F900F90DF9177
:10144000CF910895CF93DF9300D0CDB7DEB79A83C5
:10145000898380919001882319F089819A81A6C29D
:1014600089819A81092E000CAA0BBB0B40E050E049
:1014700027E030E0841B950B2817390708F474C067
:10148000805B9F4FFC010C94AC1281E090E09A834A
:1014900089838EC083E090E09A83898389C080919C
:1014A0001401282F30E08091D0019091D101821752
:1014B00093072CF483E090E09A83898379C084E0D9
:1014C00090E09A83898374C082E090E09A83898354
:1014D0006FC085E090E09A8389836AC080918F0114
:1014E0008134A9F080918F01823489F080918F013D
:1014F000833469F080918F01843449F080918F01A9
:10150000833229F080918F018A3209F04CC086E045
:1015100090E09A83898347C080918E01882329F0C7
:1015200085E090E09A83898340C08091D20188232E
:1015300039F08091D301882319F41A82198235C0B9
:101540008091D201882389F18091D301882369F1A8
:1015500087E090E09A83898328C08091D301882313
:1015600031F51A82198223C01A8219821092D2018F
:101570001092D30110928E011092D5011092D401D5
:101580001092D7011092D6011092D9011092D80171
:1015900010928B011092D1011092D0011092DB01B8
:1015A0001092DA0105C0000003C0000001C0000075
:1015B00089819A81092E000CAA0BBB0B40E050E0F8
:1015C00027E030E0841B950B2817390708F4ECC19D
:1015D000885A9F4FFC010C94AC120E94AB0081E032
:1015E000809315011092D2011092D30110928E01B6
:1015F0001092D5011092D4011092D7011092D60109
:101600001092D9011092D8011092D1011092D001FC
:101610001092DB011092DA01C7C10E94A814BC012C
:1016200080918C01282F30E0C901880F991F880F05
:10163000991F820F931FAC01415F5F4F809113018F
:10164000282F30E0429FC001439F900D529F900D84
:1016500011249C012F5F3F4FCB01B9010E947612EC
:101660009093DB018093DA018091DA019091DB01A4
:101670009093D5018093D4018091DA019091DB01A0
:101680000E942C110E94B9118FC10E94A814AC01B4
:1016900080911301882F90E0880F991F9C01220FE1
:1016A000331F220F331F820F931F9C012F5F3F4F69
:1016B000CA01B9010E9476129093DB018093DA018E
:1016C00080911C0190911D01FC0180818B3279F485
:1016D0002091D4013091D5018091DA019091DB0104
:1016E000820F931F9093D5018093D4014CC08091B9
:1016F0001C0190911D01FC0180818D3209F043C0D5
:101700002091D4013091D5018091DA019091DB01D3
:10171000A901481B590BCA019093D5018093D401AC
:101720008091D4019091D50199236CF52091D40139
:101730003091D5018091DA019091DB01820F931FE6
:101740009093D5018093D4018091150181508093AD
:10175000150180E391E090931D0180931C0180911D
:101760001C0190911D010E94B9112091D40130916A
:10177000D5018091DA019091DB01820F931F909344
:10178000D5018093D4018091DA019091DB010E9410
:101790002C110E94B91108C10E94A8148170907880
:1017A000992324F401978E6F9F6F01969093DB012C
:1017B0008093DA018091DA019091DB01892B39F471
:1017C00080E391E090931D0180931C010CC08091F7
:1017D000DA019091DB01019731F482E391E090937B
:1017E0001D0180931C018091D0019091D10101963F
:1017F0009093D1018093D00180911C0190911D01A3
:101800000E94B911D1C084E391E00E94B911809186
:10181000D4019091D5010E942C110E94B9118091A0
:101820001501282F30E08091D8019091D901820FC5
:10183000931F9093D9018093D801B6C080918F01F6
:10184000882351F180918F010E947A110E942C11FE
:101850000E94B9118091D6019091D701880F991FEC
:101860009C01220F331F220F331F820F931F90936F
:10187000D7018093D60180918F010E947A119C013B
:101880008091D6019091D701820F931F9093D70139
:101890008093D60110928F0110928E0185C0109214
:1018A0008F012091D4013091D5018091D601909182
:1018B000D70128173907A9F481E08093D2018091DC
:1018C0008B018F5F80938B0180918B01833008F4B3
:1018D00068C01092DB011092DA0181E08093D3019D
:1018E00060C08091D8019091D901809315018091B9
:1018F00015010E945D011092D7011092D60181E07E
:1019000080938E0110928B0180911A0190911B019E
:10191000019790931B0180931A0143C08091DA01D3
:101920009091DB01892B51F481E0809315010E9495
:10193000AB0087E391E00E94B91119C08091DA01F0
:101940009091DB01843F914071F08091DA01909198
:10195000DB01883E934039F08091DA019091DB0100
:101960008C3D954021F481E491E00E94B911809171
:10197000DA019091DB0101969093DB018093DA010B
:101980008091DA019091DB01803D974064F01092E4
:10199000D30110928B0180918C018F5F80938C0119
:1019A00002C0000001C0000089819A810F900F9051
:1019B000DF91CF910895CF93DF9300D0CDB7DEB7FD
:1019C0009A83898389819A81092E000CAA0BBB0B0B
:1019D00040E050E027E030E0841B950B28173907E2
:1019E00008F45FC0805A9F4FFC010C94AC128091A8
:1019F0001201882309F45EC081E090E09A83898314
:101A000059C082E090E09A8389835BC080911A017B
:101A100090911B011816190624F4809190018823D7
:101A200021F087E090E09A83898380918C01813056
:101A300009F042C083E090E09A8389833DC08091A1
:101A40001A0190911B011816190624F48091900137
:101A5000882321F087E090E09A83898380918C012C
:101A6000823061F584E090E09A83898327C085E025
:101A700090E09A83898325C08091DC019091DD01FB
:101A8000883C9105ECF086E090E09A83898310927F
:101A9000DD011092DC0114C085E090E09A83898317
:101AA00010C01A8219821092DD011092DC0109C067
:101AB000000007C0000005C0000003C0000001C016
:101AC000000089819A81092E000CAA0BBB0B40E013
:101AD00050E027E030E0841B950B2817390708F405
:101AE00067C088599F4FFC010C94AC1210928B0177
:101AF00010928C0181E090E090931B0180931A0179
:101B000010928E0110928F0110928D0181E08093CE
:101B1000150110929001109293011092920148C009
:101B200081E0809314011092900185E090E0909301
:101B30001B0180931A011092160110921701109246
:101B400018011092190134C081E080939001109225
:101B50008D010E94AB0081E08093150183E491E048
:101B60000E94B91185E591E00E94B91121C08091D0
:101B7000DC019091DD0101969093DD018093DC0101
:101B800017C01092910114C081E08093900181E010
:101B9000809391010E94AB0081E08093150181E068
:101BA00080938D0187E691E00E94B91101C0000089
:101BB00089819A810F900F90DF91CF910895CF93F3
:101BC000DF9300D0CDB7DEB79A83898380919001EF
:101BD000882319F089819A81EAC28091DE0190916F
:101BE000DF01A091E001B091E101C296A11DB11DFC
:101BF0008093DE019093DF01A093E001B093E101B7
:101C00008091E2019091E301A091E401B091E5019E
:101C1000C296A11DB11D8093E2019093E301A093B0
:101C2000E401B093E50189819A81092E000CAA0B89
:101C3000BB0B40E050E027E030E0841B950B2817F9
:101C4000390708F4C2C080599F4FFC010C94AC12B4
:101C50008091E2019091E301A091E401B091E5014E
:101C600080339547A105B1050CF4F5C081E090E003
:101C70009A8389831092E2011092E3011092E401A9
:101C80001092E501E8C08091E2019091E301A091FA
:101C9000E401B091E50180339547A105B1050CF44D
:101CA000DCC082E090E09A8389831092E201109276
:101CB000E3011092E4011092E501CFC08091E201AE
:101CC0009091E301A091E401B091E5018033954743
:101CD000A105B1050CF4C3C083E090E09A83898329
:101CE0001092E2011092E3011092E4011092E501DA
:101CF000B6C08091E2019091E301A091E401B0911E
:101D0000E50180339547A105B1050CF4AAC084E034
:101D100090E09A8389831092E2011092E30110927D
:101D2000E4011092E5019DC08091E2019091E301F0
:101D3000A091E401B091E50180339547A105B1057B
:101D40000CF491C085E090E09A8389831092E201BF
:101D50001092E3011092E4011092E50184C0809199
:101D6000E2019091E301A091E401B091E50180329C
:101D70009E44A105B1050CF478C086E090E09A83FA
:101D800089831092E2011092E3011092E401109213
:101D9000E5016BC08091E2019091E301A091E40123
:101DA000B091E50180319742A105B1050CF45FC007
:101DB00087E090E09A8389831092E2011092E30118
:101DC0001092E4011092E50152C01092DE011092CF
:101DD000DF011092E0011092E1011092E2011092F5
:101DE000E3011092E4011092E501809116019091B7
:101DF0001701A0911801B091190180329F4BA240A8
:101E0000B10519F41A82198234C08091160190919B
:101E10001701A0911801B0911901803C944DA14087
:101E2000B10529F482E090E09A83898322C08091F1
:101E3000160190911701A0911801B09119018036F7
:101E40009A4EA105B105A9F484E090E09A838983B4
:101E500010C000000FC000000DC000000BC000004B
:101E600009C0000007C0000005C0000003C000005A
:101E700001C0000089819A81092E000CAA0BBB0BBE
:101E800040E050E027E030E0841B950B281739072D
:101E900008F48BC188589F4FFC010C94AC128091C0
:101EA0008D018823B9F08091DE019091DF01A0912E
:101EB000E001B091E10184369105A105B10554F02E
:101EC00010928D011092DE011092DF011092E0015C
:101ED0001092E1018091DE019091DF01A091E0017B
:101EE000B091E1018C339C48A105B1050CF450C1BF
:101EF00081E080938D011092DE011092DF0110923B
:101F0000E0011092E10144C180918D018823B9F074
:101F10008091DE019091DF01A091E001B091E1019B
:101F200084369105A105B10554F010928D011092EF
:101F3000DE011092DF011092E0011092E101809128
:101F4000DE019091DF01A091E001B091E1018433C5
:101F50009A43A105B1050CF41DC181E080938D0168
:101F60001092DE011092DF011092E0011092E10167
:101F700011C180918D018823B9F08091DE0190918B
:101F8000DF01A091E001B091E10184369105A10546
:101F9000B10554F010928D011092DE011092DF0114
:101FA0001092E0011092E1018091DE019091DF0139
:101FB000A091E001B091E1018C3D9E41A105B105E8
:101FC0000CF4EAC081E080938D011092DE01109242
:101FD000DF011092E0011092E101DEC080918D01DD
:101FE0008823B9F08091DE019091DF01A091E0019A
:101FF000B091E10184369105A105B10554F010922C
:102000008D011092DE011092DF011092E00110921A
:10201000E1018091DE019091DF01A091E001B0919A
:10202000E10180339141A105B1050CF4B7C081E015
:1020300080938D011092DE011092DF011092E00179
:102040001092E101ABC080918D018823B9F080919D
:10205000DE019091DF01A091E001B091E1018436B1
:102060009105A105B10554F010928D011092DE0189
:102070001092DF011092E0011092E1018091DE01E7
:102080009091DF01A091E001B091E1018C36974081
:10209000A105B1050CF484C081E080938D011092FC
:1020A000DE011092DF011092E0011092E10178C090
:1020B00080918D018823B9F08091DE019091DF013C
:1020C000A091E001B091E10184369105A105B1052F
:1020D00054F010928D011092DE011092DF011092E7
:1020E000E0011092E1018091DE019091DF01A09169
:1020F000E001B091E1018A389240A105B1050CF4EC
:1021000051C081E080938D011092DE011092DF01B9
:102110001092E0011092E10145C080918D01882369
:10212000B9F08091DE019091DF01A091E001B091C2
:10213000E10184369105A105B10554F010928D019D
:102140001092DE011092DF011092E0011092E10185
:102150008091DE019091DF01A091E001B091E10159
:1021600084369105A105B105FCF081E080938D01D5
:102170001092DE011092DF011092E0011092E10155
:1021800013C081E080938D0181E0809390010DC0A8
:1021900000000BC0000009C0000007C0000005C01F
:1021A000000003C0000001C0000089819A810F90E7
:1021B0000F90DF91CF910895CF93DF9300D0CDB7EB
:1021C000DEB79A83898389819A818130910571F084
:1021D00082309105B9F0892B09F58091910188230E
:1021E00001F181E090E09A8389831BC08091910185
:1021F000882319F41A82198215C082E090E09A832C
:10220000898310C080919101882319F41A82198260
:1022100009C081E090E09A83898304C01A82198200
:1022200001C0000089819A818130910541F082309E
:10223000910541F0892B49F40E94B60306C00E9423
:10224000B60303C00E949F03000089819A810F900A
:102250000F90DF91CF910895CF93DF93CDB7DEB785
:102260002A970FB6F894DEBF0FBECDBF9A87898735
:1022700089859A852AE030E0B9010E9476129A8316
:10228000898389859A852AE030E0B9010E94761217
:10229000CB019C838B838B819C81892B71F488E794
:1022A00091E09E838D838981805D282F8D819E8121
:1022B000FC0120838D819E8114C08AE791E098877C
:1022C0008F838B81805D282F8F819885FC012083EF
:1022D0008F81988501962981205DFC0120838F8163
:1022E00098852A960FB6F894DEBF0FBECDBFDF915A
:1022F000CF910895CF93DF931F92CDB7DEB7898337
:102300008981882F90E0092E000CAA0BBB0B40E3BB
:1023100050E029E030E0841B950B2817390718F1AD
:1023200080589F4FFC010C94AC1281E090E01DC0DE
:1023300082E090E01AC083E090E017C084E090E073
:1023400014C085E090E011C086E090E00EC087E008
:1023500090E00BC088E090E008C089E090E005C004
:1023600080E090E002C080E090E00F90DF91CF919C
:102370000895CF93DF9300D000D000D0CDB7DEB763
:102380009E838D831A8219828D819E819C838B838B
:102390000AC089819A8101969A8389838B819C8165
:1023A00001969C838B838B819C81FC018081882397
:1023B00081F7209115018D819E81BC01822F0E94A1
:1023C0003201998180911501890F809315010000D8
:1023D00026960FB6F894DEBF0FBECDBFDF91CF912A
:1023E0000895CF93DF93CDB7DEB780918B0188231B
:1023F00011F480E013C080918B01813011F481E0F1
:102400000DC080918B01823011F483E007C0809170
:102410008B01833010F087E001C080E0DF91CF9125
:102420000895CF93DF931F92CDB7DEB785E0898300
:1024300080918C01813011F486E0898380918C0138
:10244000823011F48AE0898389810F90DF91CF91E6
:102450000895CF93DF931F92CDB7DEB780918D01A2
:1024600089838981880F880F880F89830E94F111E1
:10247000982F8981892B898389818295807F89839F
:102480000E941112982F8981892B898389810E944A
:10249000960400000F90DF91CF910895CF93DF93C2
:1024A00000D000D0CDB7DEB79C838B838B819C811D
:1024B000FC018081898389810E947A110E94DF0456
:1024C0008A838BE290E02A81FC01208300000F9038
:1024D0000F900F900F90DF91CF910895CF93DF93DE
:1024E000CDB7DEB70000DF91CF91089597FB072E9F
:1024F00016F4009407D077FD09D00E94B51207FCAE
:1025000005D03EF4909581959F4F08957095619503
:102510007F4F0895A1E21A2EAA1BBB1BFD010DC01F
:10252000AA1FBB1FEE1FFF1FA217B307E407F50783
:1025300020F0A21BB30BE40BF50B661F771F881F5F
:10254000991F1A9469F760957095809590959B01F5
:10255000AC01BD01CF010895EE0FFF1F0024001C48
:102560000BBE0790F691E02D0994AA1BBB1B51E10D
:1025700007C0AA1FBB1FA617B70710F0A61BB70BF3
:10258000881F991F5A95A9F780959095BC01CD0198
:1025900008950E94761308F481E008950E94E212E3
:1025A0000C94B1130E94AA1358F00E94A31340F098
:1025B00029F45F3F29F00C949A1351110C94E51300
:1025C0000C94A0130E94C21368F39923B1F355230E
:1025D00091F3951B550BBB27AA2762177307840736
:1025E00038F09F5F5F4F220F331F441FAA1FA9F3CC
:1025F00035D00E2E3AF0E0E832D091505040E695BA
:10260000001CCAF72BD0FE2F29D0660F771F881F1A
:10261000BB1F261737074807AB07B0E809F0BB0B0D
:10262000802DBF01FF2793585F4F3AF09E3F510521
:1026300078F00C949A130C94E5135F3FE4F3983E02
:10264000D4F3869577956795B795F7959F5FC9F70A
:10265000880F911D9695879597F90895E1E0660F8B
:10266000771F881FBB1F621773078407BA0720F004
:10267000621B730B840BBA0BEE1F88F7E09508956D
:102680000E9447136894B1110C94E51308950E94B9
:10269000CA1388F09F5798F0B92F9927B751B0F017
:1026A000E1F0660F771F881F991F1AF0BA95C9F7D6
:1026B00014C0B13091F00E94E413B1E008950C947D
:1026C000E413672F782F8827B85F39F0B93FCCF330
:1026D000869577956795B395D9F73EF49095809553
:1026E000709561957F4F8F4F9F4F0895990F000808
:1026F000550FAA0BE0E8FEEF16161706E807F907D4
:10270000C0F012161306E407F50798F0621B730B6E
:10271000840B950B39F40A2661F0232B242B252BEF
:1027200021F408950A2609F4A140A6958FEF811D92
:10273000811D089597F99F6780E870E060E0089533
:102740009FEF80EC089500240A94161617061806C9
:102750000906089500240A941216130614060506A5
:102760000895092E0394000C11F4882352F0BB0F36
:1027700040F4BF2B11F460FF04C06F5F7F4F8F4F99
:102780009F4F089557FD9058440F551F59F05F3FD4
:1027900071F04795880F97FB991F61F09F3F79F083
:1027A00087950895121613061406551FF2CF469505
:1027B000F1DF08C0161617061806991FF1CF869587
:1027C0007105610508940895E894BB27662777276B
:1027D000CB0197F908950E94761308F48FEF0895BE
:1027E0000E9403140C94B1130E94A31338F00E94AA
:1027F000AA1320F0952311F00C949A130C94A013B3
:1028000011240C94E5130E94C21370F3959FC1F339
:10281000950F50E0551F629FF001729FBB27F00D8E
:10282000B11D639FAA27F00DB11DAA1F649F6627E3
:10283000B00DA11D661F829F2227B00DA11D621F32
:10284000739FB00DA11D621F839FA00D611D221FEC
:10285000749F3327A00D611D231F849F600D211DD0
:10286000822F762F6A2F11249F5750409AF0F1F053
:1028700088234AF0EE0FFF1FBB1F661F771F881FBC
:1028800091505040A9F79E3F510580F00C949A1347
:102890000C94E5135F3FE4F3983ED4F38695779567
:1028A0006795B795F795E7959F5FC1F7FE2B880F62
:1028B000911D9695879597F908958F929F92AF9263
:1028C000BF92CF92DF92EF92FF92CF93DF93EC0112
:1028D000688179818A819B816115710581059105E6
:1028E00021F464E279ED8BE597E02DE133EF41E0EF
:1028F00050E00E94B71449015A019B01AC01A7EABC
:10290000B1E40E94D6146B017C01ACEEB4EFA501DA
:1029100094010E94E414DC01CB018C0D9D1DAE1DC1
:10292000BF1DB7FF03C00197A109B04888839983F1
:10293000AA83BB839F77DF91CF91FF90EF90DF90C9
:10294000CF90BF90AF909F908F9008950C945D149E
:102950008EE191E00C945D14A0E0B0E080931E0144
:1029600090931F01A0932001B09321010895052E9B
:1029700097FB1EF400940E94CE1457FD07D00E94CE
:102980008A1207FC03D04EF40C94CE145095409557
:10299000309521953F4F4F4F5F4F0895909580950B
:1029A000709561957F4F8F4F9F4F08950E94E91456
:1029B000A59F900DB49F900DA49F800D911D112493
:1029C0000895B7FF0C94D6140E94D614821B930B63
:1029D0000895A29FB001B39FC001A39F700D811DF8
:1029E0001124911DB29F700D811D1124911D089518
:0429F000F894FFCF89
:1029F4000000000200000000C2010000000001000D
:102A040000000101010160EA0000010084010100ED
:102A14000000000083439901A401AF01BA01C5017C
:102A24002B002D003D0000556E6C6F636B696E6763
:102A3400002E003D3D3D3D20205341464520203D94
:102A44003D3D3D20003D3D2020554E4C4F434B45E0
:102A54004420203D3D200020414C41524D20205334
:102A64004F554E44454420003000303000050602E6
:062A740001000403000054
:00000001FF
