:100000000C947A000C9499000C9499000C9499002B
:100010000C9499000C9499000C9499000C949900FC
:100020000C9499000C9499000C9499000C949900EC
:100030000C9499000C949E020C9499000C949900D5
:100040000C9499000C9499000C9499000C949900CC
:100050000C9499000C9499000C9499000C949900BC
:100060000C9499000C9499000C9499000C949900AC
:100070000C9499000C9499000C9499000C9499009C
:100080000C9499000C9499000C949900EB0436059B
:1000900051059005CF05020641068C06B3060A07F6
:1000A000DB09E009E509FA09FF09040A220A430A03
:1000B000830AA30ADB0A620B990BB40BE50B200C35
:1000C000890C930C980CA90CBA0CBF0CDB0CCF0C50
:1000D000F90C110D480D480D1C0D2D0D480D370D57
:1000E000D40DB90DBC0DBF0DC20DC50DC80DCB0D86
:1000F000CE0DD10D11241FBECFEFD0E4DEBFCDBF9A
:1001000011E0A0E0B1E0EAEFF1E200E00BBF02C0D5
:1001100007900D92AA38B107D9F721E0AAE8B1E01B
:1001200001C01D92AD3CB207E1F70E94B6070C94E6
:10013000FB100C940000CF93DF93CDB7DEB781E0C6
:100140000E94C2000000DF91CF910895CF93DF930A
:10015000CDB7DEB784E690E00E94820188E30E947A
:10016000C20086E00E94C2008FE00E94C20081E0CF
:100170000E94C2008AE090E00E9482010000DF91AC
:10018000CF910895CF93DF931F92CDB7DEB78983C8
:1001900085E290E025E230E0F90120812F7EFC012C
:1001A000208382E290E02981FC01208385E290E0B7
:1001B00025E230E0F90120812062FC01208300006B
:1001C00085E290E025E230E0F90120812F7DFC01FD
:1001D000208382E090E00E94820100000F90DF9176
:1001E000CF910895CF93DF931F92CDB7DEB7898368
:1001F00085E290E025E230E0F90120812061FC01F8
:10020000208382E290E02981FC01208385E290E056
:1002100025E230E0F90120812062FC01208300000A
:1002200085E290E025E230E0F90120812F7DFC019C
:10023000208381E090E00E94820100000F90DF9116
:10024000CF910895CF93DF9300D000D0CDB7DEB724
:100250008A837C836B838A81898311C0898191E041
:10026000980F99830E946B018B819C819C012F5F69
:100270003F4F3C832B83FC0180810E94F2008B81E5
:100280009C81FC018081882349F700000F900F902A
:100290000F900F90DF91CF910895CF93DF9300D00F
:1002A000CDB7DEB78A838A81898309C0898191E0CD
:1002B000980F99830E946B0180E20E94F20089816D
:1002C0008132A0F38A810E946B0100000F900F9091
:1002D000DF91CF910895CF93DF931F92CDB7DEB713
:1002E00089838981813128F4898181580E94C200E3
:1002F00004C0898181550E94C20000000F90DF91E7
:10030000CF910895CF93DF9300D000D000D0CDB728
:10031000DEB79E838D831A82198213C01C821B82D2
:1003200006C000008B819C8101969C838B838B810E
:100330009C8187309340ACF389819A8101969A839E
:10034000898329813A818D819E812817390734F369
:10035000000026960FB6F894DEBF0FBECDBFDF912A
:10036000CF910895CF93DF9300D01F92CDB7DEB722
:1003700089837B836A8389818A3031F48A819B8176
:10038000BC018DE00E94B20180EC90E0FC01808114
:10039000882F90E080729927892BB1F386EC90E04A
:1003A0002981FC01208380E090E00F900F900F9056
:1003B000DF91CF910895CF93DF9300D01F92CDB7F7
:1003C000DEB789836A834B838B81882371F08A81AE
:1003D000282F30E081E090E002C0880F991F2A9515
:1003E000E2F7982F8981892B0EC08A81282F30E06F
:1003F00081E090E002C0880F991F2A95E2F7982FBC
:100400009095898189230F900F900F90DF91CF9164
:100410000895CF93DF9300D0CDB7DEB789836A8389
:100420008A81282F30E081E090E002C0880F991F78
:100430002A95E2F7982F898189230F900F90DF91F9
:10044000CF910895CF93DF9300D000D0CDB7DEB722
:1004500069837A838B839C8389819A81AB81BC81F8
:1004600080930E0190930F01A0931001B09311019E
:1004700080910E0190910F01A0911001B091110196
:1004800080938B0190938C01A0938D01B0938E018A
:1004900000000F900F900F900F90DF91CF91089573
:1004A000CF93DF93CDB7DEB781E890E02BE0FC017E
:1004B000208388E890E02DE730E0FC013183208341
:1004C0008FE690E022E0FC01208384E890E0FC01CC
:1004D0001182108280910E0190910F01A091100164
:1004E000B091110180938B0190938C01A0938D01A9
:1004F000B0938E018FE590E02FE530E0F901208187
:100500002068FC0120830000DF91CF910895CF93F4
:10051000DF93CDB7DEB781E890E0FC0110820000E8
:10052000DF91CF910895CF93DF93CDB7DEB781E010
:1005300080938A010000DF91CF9108951F920F925E
:1005400000905F000F92112400905B000F922F9398
:100550003F934F935F936F937F938F939F93AF934B
:10056000BF93EF93FF93CF93DF93CDB7DEB7809127
:100570008B0190918C01A0918D01B0918E0101971A
:10058000A109B10980938B0190938C01A0938D01F7
:10059000B0938E0180918B0190918C01A0918D017F
:1005A000B0918E01892B8A2B8B2B91F40E949302A0
:1005B00080910E0190910F01A0911001B091110155
:1005C00080938B0190938C01A0938D01B0938E0149
:1005D0000000DF91CF91FF91EF91BF91AF919F917B
:1005E0008F917F916F915F914F913F912F910F90DC
:1005F00000925B000F9000925F000F901F90189583
:100600000F931F93CF93DF9300D000D0CDB7DEB709
:1006100069837A838B839C838091990190919A015D
:10062000A0919B01B0919C019C01AD0169817A81EF
:100630008B819C810E94CC0E882309F466C020E047
:1006400030E0A90169817A818B819C810E94CC0E66
:10065000882351F481E990E021E930E0F90120811B
:100660002870FC01208309C081E990E021E930E095
:10067000F90120812360FC01208328E539E344E768
:100680005FE369817A818B819C810E94CC0E8823F3
:1006900044F488E990E02FEF3FEFFC0131832083A1
:1006A00034C020E034E244EF56E469817A818B81E2
:1006B0009C810E94EE0F181634F488E990E0FC014A
:1006C0001182108222C008E910E020E030E040E012
:1006D00053E469817A818B819C810E94F30FDC0154
:1006E000CB019C01AD0160E074E284EF9AE40E94CA
:1006F000D10EDC01CB01BC01CD010E94430FDC0116
:10070000CB010197F8019183808300000F900F9037
:100710000F900F90DF91CF911F910F910895CF937C
:10072000DF93CDB7DEB780E990E020E4FC012083C1
:1007300081E990E02BE0FC01208360E070E0CB01D8
:100740000E9400030000DF91CF910895CF93DF93C3
:10075000CDB7DEB780E990E0FC01108281E990E03E
:10076000FC0110820000DF91CF910895CF93DF93B9
:10077000CDB7DEB788E290E02FEEFC0120830000C9
:1007800086E290E0FC01808160E00E9409028823FB
:1007900011F481E3B8C086E290E0FC01808161E061
:1007A0000E940902882311F484E3ADC086E290E040
:1007B000FC01808162E00E940902882311F487E332
:1007C000A2C086E290E0FC01808163E00E94090201
:1007D000882311F48AE297C088E290E02FEDFC01B3
:1007E0002083000086E290E0FC01808160E00E94AE
:1007F0000902882311F482E386C086E290E0FC01BE
:10080000808161E00E940902882311F485E37BC0A6
:1008100086E290E0FC01808162E00E940902882368
:1008200011F488E370C086E290E0FC01808163E00F
:100830000E940902882311F480E365C088E290E0F9
:100840002FEBFC012083000086E290E0FC01808118
:1008500060E00E940902882311F483E354C086E219
:1008600090E0FC01808161E00E940902882311F47C
:1008700086E349C086E290E0FC01808162E00E944C
:100880000902882311F489E33EC086E290E0FC016E
:10089000808163E00E940902882311F483E233C05F
:1008A00088E290E02FE7FC012083000086E290E0E0
:1008B000FC01808160E00E940902882311F481E438
:1008C00022C086E290E0FC01808161E00E94090282
:1008D000882311F482E417C086E290E0FC01808155
:1008E00062E00E940902882311F483E40CC086E2CE
:1008F00090E0FC01808163E00E940902882311F4EA
:1009000084E401C080E0DF91CF910895CF93DF931D
:1009100000D01F92CDB7DEB78B831A82198227C011
:1009200085E290E028E0FC01208385E290E025E26A
:1009300030E0F9012081422F2B81222F30E0098005
:1009400002C0359527950A94E2F72170242BFC010B
:10095000208385E290E025E230E0F90120812260E9
:10096000FC01208389819A8101969A8389838981F8
:100970009A810897ACF285E290E025E230E0F90137
:1009800020812460FC01208385E290E0FC0110823C
:1009900000000F900F900F90DF91CF910895CF93AB
:1009A000DF931F92CDB7DEB789838981882F90E0CE
:1009B000092E000CAA0BBB0B40E050E029E030E010
:1009C000841B950B2817390708F46FC28A5B9F4F69
:1009D000FC010C94AF0E80918001282F30E081E063
:1009E00090E002C0880F991F2A95E2F7482F809166
:1009F0008101282F30E081E090E002C0880F991F2C
:100A00002A95E2F7482B80918201282F30E081E07F
:100A100090E002C0880F991F2A95E2F7482B809139
:100A20008301282F30E081E090E002C0880F991FF9
:100A30002A95E2F7482B80918401282F30E081E04D
:100A400090E002C0880F991F2A95E2F7482B809109
:100A50008501282F30E081E090E002C0880F991FC7
:100A60002A95E2F7842B80939D012DC2809181010C
:100A7000282F30E081E090E002C0880F991F2A956E
:100A8000E2F7482F80918201282F30E081E090E04A
:100A900002C0880F991F2A95E2F7842B80939D014D
:100AA00012C280918001282F30E081E090E002C0E6
:100AB000880F991F2A95E2F7482F80918101282FEE
:100AC00030E081E090E002C0880F991F2A95E2F79C
:100AD000482B80918301282F30E081E090E002C014
:100AE000880F991F2A95E2F7482B80918401282FBF
:100AF00030E081E090E002C0880F991F2A95E2F76C
:100B0000482B80918601282F30E081E090E002C0E0
:100B1000880F991F2A95E2F7842B80939D01D3C1FA
:100B200080918001282F30E081E090E002C0880FA2
:100B3000991F2A95E2F7482F80918101282F30E0F4
:100B400081E090E002C0880F991F2A95E2F7482BB8
:100B500080918201282F30E081E090E002C0880F70
:100B6000991F2A95E2F7482B80918301282F30E0C6
:100B700081E090E002C0880F991F2A95E2F7482B88
:100B800080918601282F30E081E090E002C0880F3C
:100B9000991F2A95E2F7842B80939D0194C180913F
:100BA0008101282F30E081E090E002C0880F991F7A
:100BB0002A95E2F7482F80918201282F30E081E0CA
:100BC00090E002C0880F991F2A95E2F7482B809188
:100BD0008501282F30E081E090E002C0880F991F46
:100BE0002A95E2F7482B80918601282F30E081E09A
:100BF00090E002C0880F991F2A95E2F7842B80931A
:100C00009D0161C180918001282F30E081E090E05A
:100C100002C0880F991F2A95E2F7482F8091820120
:100C2000282F30E081E090E002C0880F991F2A95BC
:100C3000E2F7482B80918301282F30E081E090E09B
:100C400002C0880F991F2A95E2F7482B80918501F1
:100C5000282F30E081E090E002C0880F991F2A958C
:100C6000E2F7482B80918601282F30E081E090E068
:100C700002C0880F991F2A95E2F7842B80939D016B
:100C800022C180918001282F30E081E090E002C0F5
:100C9000880F991F2A95E2F7482F80918201282F0B
:100CA00030E081E090E002C0880F991F2A95E2F7BA
:100CB000482B80918301282F30E081E090E002C032
:100CC000880F991F2A95E2F7482B80918401282FDD
:100CD00030E081E090E002C0880F991F2A95E2F78A
:100CE000482B80918501282F30E081E090E002C000
:100CF000880F991F2A95E2F7482B80918601282FAB
:100D000030E081E090E002C0880F991F2A95E2F759
:100D1000842B80939D01D7C080918001282F30E0E3
:100D200081E090E002C0880F991F2A95E2F7482FD2
:100D300080918101282F30E081E090E002C0880F8F
:100D4000991F2A95E2F7482B80918201282F30E0E5
:100D500081E090E002C0880F991F2A95E2F7842B6A
:100D600080939D01B0C080918001282F30E081E008
:100D700090E002C0880F991F2A95E2F7482F8091D2
:100D80008101282F30E081E090E002C0880F991F98
:100D90002A95E2F7482B80918201282F30E081E0EC
:100DA00090E002C0880F991F2A95E2F7482B8091A6
:100DB0008301282F30E081E090E002C0880F991F66
:100DC0002A95E2F7482B80918401282F30E081E0BA
:100DD00090E002C0880F991F2A95E2F7482B809176
:100DE0008501282F30E081E090E002C0880F991F34
:100DF0002A95E2F7482B80918601282F30E081E088
:100E000090E002C0880F991F2A95E2F7842B809307
:100E10009D0159C080918001282F30E081E090E051
:100E200002C0880F991F2A95E2F7482F809181010F
:100E3000282F30E081E090E002C0880F991F2A95AA
:100E4000E2F7482B80918201282F30E081E090E08A
:100E500002C0880F991F2A95E2F7482B80918301E1
:100E6000282F30E081E090E002C0880F991F2A957A
:100E7000E2F7482B80918501282F30E081E090E057
:100E800002C0880F991F2A95E2F7482B80918601AE
:100E9000282F30E081E090E002C0880F991F2A954A
:100EA000E2F7842B80939D010EC080918601282F4C
:100EB00030E081E090E002C0880F991F2A95E2F7A8
:100EC00080939D01000080919D010F90DF91CF9153
:100ED0000895CF93DF93CDB7DEB72C970FB6F89474
:100EE000DEBF0FBECDBF6D837E838F83988729873A
:100EF0003A874B875C878D819E81AF81B885298534
:100F00003A854B855C85BC01CD010E948D0EDC01CC
:100F1000CB0189839A83AB83BC8389819A81AB811E
:100F2000BC81892B8A2B8B2B29F489859A85AB85EB
:100F3000BC8511C089859A85AB85BC858D839E83D0
:100F4000AF83B88789819A81AB81BC8189879A8771
:100F5000AB87BC87D0CFBC01CD012C960FB6F894DF
:100F6000DEBF0FBECDBFDF91CF9108950F931F93CA
:100F7000CF93DF93CDB7DEB72F970FB6F894DEBFD0
:100F80000FBECDBF81E290E02FEFFC01208382E213
:100F900090E0FC01108284E290E02FEFFC012083BE
:100FA00085E290E0FC01108287E290E020EFFC01F6
:100FB000208388E290E02FE0FC0120838AE290E029
:100FC0002FEFFC0120838BE290E0FC0110821A825B
:100FD000198261E070E080E090E00E9422020E94AD
:100FE00050020E94A60080E00E9486040E949B009E
:100FF00086E0E0E2F1E0DE011A9601900D928A951A
:10100000E1F783E090E09E838D838FEF8F838F8164
:1010100080939E0182E390E0A0E0B0E080939F0186
:101020009093A001A093A101B093A20180919F0190
:101030009091A001A091A101B091A2018093A30180
:101040009093A401A093A501B093A6018DE69CE026
:101050009093A8018093A7018F818093A90181E0DB
:1010600090E0A0E0B0E08093AA019093AB01A09340
:10107000AC01B093AD018091AA019091AB01A09118
:10108000AC01B091AD018093AE019093AF01A093FC
:10109000B001B093B10188EB99E09093B3018093D4
:1010A000B2018F818093B40182E390E0A0E0B0E0D0
:1010B0008093B5019093B601A093B701B093B801A6
:1010C0008091B5019091B601A091B701B091B8019E
:1010D0008093B9019093BA01A093BB01B093BC0176
:1010E0008EE799E09093BE018093BD0180E090E08F
:1010F0000E94AF1080911201882351F48091130156
:10110000882331F489819A8101969A838983D6C094
:1011100080911201882329F580911301882309F118
:1011200080911301482F50E089819A81489F900156
:10113000499F300D589F300D1124C901880F991F08
:10114000820F931F27E030E0B9010E94790E998742
:101150008887888599850E94AF1081E0809312016D
:10116000ADC080911201882309F4A8C01C821B82A3
:101170009BC08B819C81880F991F9E012F5F3F4FE1
:10118000820F931F0996FC0180819181FC012581CA
:101190003681478150858B819C81880F991FBE01C4
:1011A0006F5F7F4F860F971F0996FC0180819181A9
:1011B000FC0181819281A381B481281739074A07F4
:1011C0005B0709F045C08B819C81880F991F9E01A8
:1011D0002F5F3F4F820F931F0996FC010081118101
:1011E0008B819C81880F991F9E012F5F3F4F820F3B
:1011F000931F0996FC0180819181FC012185328534
:101200008B819C81880F991FAE014F5F5F4F840FC8
:10121000951F0996FC0180819181FC018081082E37
:10122000000C990BF9010995F80180838B819C8151
:10123000880F991F9E012F5F3F4F820F931F0996C2
:10124000FC0180819181FC01158216821782108633
:101250008B819C81880F991F9E012F5F3F4F820FCA
:10126000931F0996FC01208131818B819C81880F1D
:10127000991FAE014F5F5F4F840F951F0996FC01C8
:1012800080819181FC0185819681A781B08501963D
:10129000A11DB11DF90185839683A783B0878B813A
:1012A0009C8101969C838B832B813C818D819E81C7
:1012B0002817390708F45DCF0E944D0E0000809179
:1012C0008A018823E1F310928A0114CFCF93DF9330
:1012D00000D0CDB7DEB79A838983809196018823A9
:1012E00019F089819A8105C081E080931301898179
:1012F0009A810F900F90DF91CF910895CF93DF9354
:1013000000D01F92CDB7DEB79B838A838091960170
:10131000882319F08A819B8125C00E94B6038983A6
:101320008A819B81009719F0019761F013C0898130
:101330008823A9F081E090E09B838A838981809350
:1013400094010DC08981882311F41B821A821092A6
:10135000940106C01B821A821092940101C0000001
:101360008A819B810F900F900F90DF91CF9108950C
:10137000CF93DF9300D0CDB7DEB79A838983809176
:101380009601882319F089819A81A2C289819A8164
:10139000092E000CAA0BBB0B40E050E027E030E028
:1013A000841B950B2817390708F474C0805B9F4F86
:1013B000FC010C94AF0E81E090E09A8389838EC08B
:1013C00083E090E09A83898389C080911401282F5B
:1013D00030E08091BF019091C001821793072CF4F7
:1013E00083E090E09A83898379C084E090E09A83D7
:1013F000898374C082E090E09A8389836FC085E01E
:1014000090E09A8389836AC0809194018134A9F025
:1014100080919401823489F080919401833469F041
:1014200080919401843449F080919401833229F0B1
:10143000809194018A3209F04CC086E090E09A8352
:10144000898347C080919301882329F085E090E04B
:101450009A83898340C08091C101882339F08091AB
:10146000C201882319F41A82198235C08091C10102
:10147000882389F18091C201882369F187E090E097
:101480009A83898328C08091C201882331F51A820A
:10149000198223C01A8219821092C1011092C201CE
:1014A000109293011092C4011092C3011092C601D0
:1014B0001092C5011092C8011092C70110928F01BD
:1014C0001092C0011092BF011092CA011092C9017E
:1014D00005C0000003C0000001C0000089819A819E
:1014E000092E000CAA0BBB0B40E050E027E030E0D7
:1014F000841B950B2817390708F4E8C1885A9F4FB9
:10150000FC010C94AF0E0E949B0081E080931501BA
:101510001092C1011092C201109293011092C40165
:101520001092C3011092C6011092C5011092C80119
:101530001092C7011092C0011092BF011092CA010F
:101540001092C901C3C10E94AB10BC0180919001EF
:10155000282F30E0C901880F991F880F991F820F2B
:10156000931FAC01415F5F4F80911301282F30E042
:10157000429FC001439F900D529F900D11249C01EA
:101580002F5F3F4FCB01B9010E94790E9093CA01A2
:101590008093C9018091C9019091CA019093C401BF
:1015A0008093C3018091C9019091CA010E94500D9E
:1015B0000E94DD0D8BC10E94AB10AC018091130124
:1015C000882F90E0880F991F9C01220F331F220F54
:1015D000331F820F931F9C012F5F3F4FCA01B90138
:1015E0000E94790E9093CA018093C90180911601DF
:1015F00090911701FC0180818B3279F42091C30115
:101600003091C4018091C9019091CA01820F931F4A
:101610009093C4018093C3014CC0809116019091B6
:101620001701FC0180818D3209F043C02091C30174
:101630003091C4018091C9019091CA01A901481B50
:10164000590BCA019093C4018093C3018091C301D7
:101650009091C40199236CF52091C3013091C4018C
:101660008091C9019091CA01820F931F9093C40188
:101670008093C3018091150181508093150186E20A
:1016800091E090931701809316018091160190913B
:1016900017010E94DD0D2091C3013091C40180919A
:1016A000C9019091CA01820F931F9093C401809346
:1016B000C3018091C9019091CA010E94500D0E94FE
:1016C000DD0D04C10E94AB1081709078992324F441
:1016D00001978E6F9F6F01969093CA018093C90105
:1016E0008091C9019091CA01892B39F486E291E079
:1016F00090931701809316010CC08091C9019091BD
:10170000CA01019731F488E291E090931701809328
:1017100016018091BF019091C00101969093C00184
:101720008093BF0180911601909117010E94DD0DF9
:10173000CDC08AE291E00E94DD0D8091C3019091BD
:10174000C4010E94500D0E94DD0D80911501282FCB
:1017500030E08091C7019091C801820F931F909350
:10176000C8018093C701B2C080919401882351F1D0
:10177000809194010E949E0D0E94500D0E94DD0DEB
:101780008091C5019091C601880F991F9C01220F7D
:10179000331F220F331F820F931F9093C601809334
:1017A000C501809194010E949E0D9C018091C5010C
:1017B0009091C601820F931F9093C6018093C5013B
:1017C000109294011092930181C010929401209183
:1017D000C3013091C4018091C5019091C6012817C1
:1017E0003907A9F481E08093C10180918F018F5F57
:1017F00080938F0180918F01833008F464C0109230
:10180000CA011092C90181E08093C2015CC080913D
:10181000C7019091C80180931501809115010E9424
:101820004D011092C6011092C50181E08093930191
:1018300010928F018091910181508093910143C05A
:101840008091C9019091CA01892B51F481E0809364
:1018500015010E949B008DE291E00E94DD0D19C0F0
:101860008091C9019091CA01843F914071F08091AB
:10187000C9019091CA01883E934039F08091C90115
:101880009091CA018C3D954021F487E391E00E943C
:10189000DD0D8091C9019091CA0101969093CA0112
:1018A0008093C9018091C9019091CA01803D974000
:1018B00064F01092C20110928F01809190018F5FAD
:1018C0008093900102C0000001C0000089819A81CC
:1018D0000F900F90DF91CF910895CF93DF9300D0B9
:1018E000CDB7DEB79A83898389819A81092E000C4E
:1018F000AA0BBB0B40E050E027E030E0841B950BC7
:101900002817390708F450C0805A9F4FFC010C94E7
:10191000AF0E80911201882309F44FC081E090E05E
:101920009A8389834AC082E090E09A8389834CC07D
:1019300080919101882321F487E090E09A83898344
:10194000809190018130D9F583E090E09A8389837A
:1019500036C080919101882321F487E090E09A833A
:10196000898380919001823061F584E090E09A83D0
:10197000898327C085E090E09A83898325C0809180
:10198000CB019091CC0184369105ECF086E090E09B
:101990009A8389831092CC011092CB0114C085E008
:1019A00090E09A83898310C01A8219821092CC0128
:1019B0001092CB0109C0000007C0000005C0000064
:1019C00003C0000001C0000089819A81092E000C2B
:1019D000AA0BBB0B40E050E027E030E0841B950BE6
:1019E0002817390708F455C088599F4FFC010C94FB
:1019F000AF0E10928F0110929001109291011092EF
:101A0000920110929301109294011092950181E03D
:101A100080931501109296011092980110929701EF
:101A200038C081E0809314011092960185E0809384
:101A30009101109292012DC081E0809396010E9445
:101A40009B0081E08093150189E391E00E94DD0D08
:101A50008AE491E00E94DD0D1CC08091CB01909141
:101A6000CC0101969093CC018093CB0112C081E010
:101A7000809396010E949B0081E0809315018BE585
:101A800091E00E94DD0D8BE691E00E94DD0D01C02A
:101A9000000089819A810F900F90DF91CF91089576
:101AA000CF93DF93CDB7DEB72A970FB6F894DEBF9A
:101AB0000FBECDBF9A87898789859A852AE030E055
:101AC000B9010E94790E9A83898389859A852AE0D3
:101AD00030E0B9010E94790ECB019C838B838B810E
:101AE0009C81892B71F48BE791E09E838D838981A2
:101AF000805D282F8D819E81FC0120838D819E81B8
:101B000014C08DE791E098878F838B81805D282FAB
:101B10008F819885FC0120838F819885019629818A
:101B2000205DFC0120838F8198852A960FB6F8945A
:101B3000DEBF0FBECDBFDF91CF910895CF93DF936E
:101B40001F92CDB7DEB789838981882F90E0092E57
:101B5000000CAA0BBB0B40E350E029E030E0841BF3
:101B6000950B2817390718F180599F4FFC010C94E9
:101B7000AF0E81E090E01DC082E090E01AC083E0EB
:101B800090E017C084E090E014C085E090E011C0C0
:101B900086E090E00EC087E090E00BC088E090E027
:101BA00008C089E090E005C080E090E002C080E0DD
:101BB00090E00F90DF91CF910895CF93DF9300D005
:101BC00000D000D0CDB7DEB79E838D831A821982F4
:101BD0008D819E819C838B830AC089819A81019625
:101BE0009A8389838B819C8101969C838B838B81D3
:101BF0009C81FC018081882381F7209115018D81D2
:101C00009E81BC01822F0E94220199818091150141
:101C1000890F80931501000026960FB6F894DEBF59
:101C20000FBECDBFDF91CF910895CF93DF93CDB796
:101C3000DEB780918F01882311F480E013C080917A
:101C40008F01813011F481E00DC080918F018230CD
:101C500011F483E007C080918F01833010F087E09A
:101C600001C080E0DF91CF910895CF93DF931F9261
:101C7000CDB7DEB785E0898380919001813011F482
:101C800086E0898380919001823011F48AE0898313
:101C900089810F90DF91CF910895CF93DF931F92A9
:101CA000CDB7DEB781E089838981880F880F880FDF
:101CB00089830E94150E982F8981892B89838981B8
:101CC0008295807F89830E94350E982F8981892B88
:101CD000898389810E94860400000F90DF91CF9153
:101CE0000895CF93DF93CDB7DEB70000DF91CF919A
:101CF000089597FB072E16F4009407D077FD09D0BE
:101D00000E94B80E07FC05D03EF4909581959F4F38
:101D10000895709561957F4F0895A1E21A2EAA1B30
:101D2000BB1BFD010DC0AA1FBB1FEE1FFF1FA2178B
:101D3000B307E407F50720F0A21BB30BE40BF50B88
:101D4000661F771F881F991F1A9469F76095709511
:101D5000809590959B01AC01BD01CF010895EE0FD8
:101D6000FF1F0024001C0BBE0790F691E02D099484
:101D7000AA1BBB1B51E107C0AA1FBB1FA617B707B1
:101D800010F0A61BB70B881F991F5A95A9F78095CD
:101D90009095BC01CD0108950E94790F08F481E06F
:101DA00008950E94E50E0C94B40F0E94AD0F58F0F8
:101DB0000E94A60F40F029F45F3F29F00C949D0F7C
:101DC00051110C94E80F0C94A30F0E94C50F68F3F7
:101DD0009923B1F3552391F3951B550BBB27AA27E4
:101DE00062177307840738F09F5F5F4F220F331F1E
:101DF000441FAA1FA9F335D00E2E3AF0E0E832D0E6
:101E000091505040E695001CCAF72BD0FE2F29D0E8
:101E1000660F771F881FBB1F261737074807AB07BA
:101E2000B0E809F0BB0B802DBF01FF2793585F4F2F
:101E30003AF09E3F510578F00C949D0F0C94E80FFA
:101E40005F3FE4F3983ED4F3869577956795B79511
:101E5000F7959F5FC9F7880F911D9695879597F91C
:101E60000895E1E0660F771F881FBB1F6217730795
:101E70008407BA0720F0621B730B840BBA0BEE1FAA
:101E800088F7E09508950E944A0F6894B1110C9468
:101E9000E80F08950E94CD0F88F09F5798F0B92F52
:101EA0009927B751B0F0E1F0660F771F881F991F8F
:101EB0001AF0BA95C9F714C0B13091F00E94E70F3B
:101EC000B1E008950C94E70F672F782F8827B85F4B
:101ED00039F0B93FCCF3869577956795B395D9F7E7
:101EE0003EF490958095709561957F4F8F4F9F4FF1
:101EF0000895990F0008550FAA0BE0E8FEEF16169B
:101F00001706E807F907C0F012161306E407F507ED
:101F100098F0621B730B840B950B39F40A2661F061
:101F2000232B242B252B21F408950A2609F4A14004
:101F3000A6958FEF811D811D089597F99F6780E811
:101F400070E060E008959FEF80EC089500240A940B
:101F50001616170618060906089500240A94121684
:101F60001306140605060895092E0394000C11F4B7
:101F7000882352F0BB0F40F4BF2B11F460FF04C064
:101F80006F5F7F4F8F4F9F4F089557FD9058440FBD
:101F9000551F59F05F3F71F04795880F97FB991FC8
:101FA00061F09F3F79F08795089512161306140685
:101FB000551FF2CF4695F1DF08C016161706180612
:101FC000991FF1CF86957105610508940895E894ED
:101FD000BB2766277727CB0197F908950E94790FD1
:101FE00008F48FEF08950E9406100C94B40F0E941D
:101FF000A60F38F00E94AD0F20F0952311F00C943D
:102000009D0F0C94A30F11240C94E80F0E94C50F90
:1020100070F3959FC1F3950F50E0551F629FF0013B
:10202000729FBB27F00DB11D639FAA27F00DB11D54
:10203000AA1F649F6627B00DA11D661F829F2227DD
:10204000B00DA11D621F739FB00DA11D621F839F64
:10205000A00D611D221F749F3327A00D611D231F3A
:10206000849F600D211D822F762F6A2F11249F5788
:1020700050409AF0F1F088234AF0EE0FFF1FBB1F8B
:10208000661F771F881F91505040A9F79E3F51054A
:1020900080F00C949D0F0C94E80F5F3FE4F3983EA2
:1020A000D4F3869577956795B795F795E7959F5FF4
:1020B000C1F7FE2B880F911D9695879597F9089586
:1020C0008F929F92AF92BF92CF92DF92EF92FF9248
:1020D000CF93DF93EC01688179818A819B816115BF
:1020E00071058105910521F464E279ED8BE597E0B6
:1020F0002DE133EF41E050E00E94BA1049015A014E
:102100009B01AC01A7EAB1E40E94D9106B017C01EC
:10211000ACEEB4EFA50194010E94E710DC01CB0105
:102120008C0D9D1DAE1DBF1DB7FF03C00197A109FA
:10213000B04888839983AA83BB839F77DF91CF912F
:10214000FF90EF90DF90CF90BF90AF909F908F90D7
:1021500008950C94601088E191E00C946010A0E068
:10216000B0E08093180190931901A0931A01B093E5
:102170001B010895052E97FB1EF400940E94D110B8
:1021800057FD07D00E948D0E07FC03D04EF40C942F
:10219000D11050954095309521953F4F4F4F5F4F4F
:1021A000089590958095709561957F4F8F4F9F4FC3
:1021B00008950E94EC10A59F900DB49F900DA49FD0
:1021C000800D911D11240895B7FF0C94D9100E9421
:1021D000D910821B930B0895A29FB001B39FC00139
:1021E000A39F700D811D1124911DB29F700D811D43
:0A21F0001124911D0895F894FFCF0B
:1021FA000000000200000000B2010000000001001F
:10220A000000010101018701010000000000000037
:10221A009E01A901B4012B002D003D0000556E6CF2
:10222A006F636B696E67002E003D3D3D3D20205374
:10223A0041464520203D3D3D3D003D3D2020554E37
:10224A004C4F434B454420203D3D003D3D3D202021
:10225A00414C41524D20203D3D3D003D3D20205303
:10226A004F554E44454420203D3D0030003030005B
:0A227A000203060504010000000045
:00000001FF
