:100000000C946A000C9489000C9489000C9489006B
:100010000C9489000C9489000C9489000C9489003C
:100020000C9489000C9489000C9489000C9489002C
:100030000C9489000C948E020C9489000C94890015
:100040000C9489000C9489000C9489000C9489000C
:100050000C9489000C9489000C9489000C948900FC
:100060000C9489000C9489000C9489000C948900EC
:100070000C9489000C9489000C9489000C948900DC
:100080000C9489000C9489000C948900DB042605EB
:1000900041058005BF05F20531067C06A306FA0678
:1000A000C609CB09D009E509EA09EF090D0A2E0AAC
:1000B0006E0A8B0AC30A4A0B810B940BC50BFD0B0E
:1000C0001D0D020D050D080D0B0D0E0D110D140D5E
:1000D000170D1A0D11241FBECFEFD0E4DEBFCDBF28
:1000E00011E0A0E0B1E0E0E6F0E200E00BBF02C00A
:1000F00007900D92AC35B107D9F721E0ACE5B1E03E
:1001000001C01D92AD39B207E1F70E94A6070C9419
:100110002E100C940000CF93DF93CDB7DEB781E0B3
:100120000E94B2000000DF91CF910895CF93DF933A
:10013000CDB7DEB784E690E00E94720188E30E94AA
:10014000B20086E00E94B2008FE00E94B20081E01F
:100150000E94B2008AE090E00E9472010000DF91EC
:10016000CF910895CF93DF931F92CDB7DEB78983E8
:1001700085E290E025E230E0F90120812F7EFC014C
:10018000208382E290E02981FC01208385E290E0D7
:1001900025E230E0F90120812062FC01208300008B
:1001A00085E290E025E230E0F90120812F7DFC011D
:1001B000208382E090E00E94720100000F90DF91A6
:1001C000CF910895CF93DF931F92CDB7DEB7898388
:1001D00085E290E025E230E0F90120812061FC0118
:1001E000208382E290E02981FC01208385E290E077
:1001F00025E230E0F90120812062FC01208300002B
:1002000085E290E025E230E0F90120812F7DFC01BC
:10021000208381E090E00E94720100000F90DF9146
:10022000CF910895CF93DF9300D000D0CDB7DEB744
:100230008A837C836B838A81898311C0898191E061
:10024000980F99830E945B018B819C819C012F5F99
:100250003F4F3C832B83FC0180810E94E2008B8115
:100260009C81FC018081882349F700000F900F904A
:100270000F900F90DF91CF910895CF93DF9300D02F
:10028000CDB7DEB78A838A81898309C0898191E0ED
:10029000980F99830E945B0180E20E94E2008981AD
:1002A0008132A0F38A810E945B0100000F900F90C1
:1002B000DF91CF910895CF93DF931F92CDB7DEB733
:1002C00089838981813128F4898181580E94B20013
:1002D00004C0898181550E94B20000000F90DF9117
:1002E000CF910895CF93DF9300D000D000D0CDB749
:1002F000DEB79E838D831A82198213C01C821B82F3
:1003000006C000008B819C8101969C838B838B812E
:100310009C8187309340ACF389819A8101969A83BE
:10032000898329813A818D819E812817390734F389
:10033000000026960FB6F894DEBF0FBECDBFDF914A
:10034000CF910895CF93DF9300D01F92CDB7DEB742
:1003500089837B836A8389818A3031F48A819B8196
:10036000BC018DE00E94A20180EC90E0FC01808144
:10037000882F90E080729927892BB1F386EC90E06A
:100380002981FC01208380E090E00F900F900F9076
:10039000DF91CF910895CF93DF9300D01F92CDB717
:1003A000DEB789836A834B838B81882371F08A81CE
:1003B000282F30E081E090E002C0880F991F2A9535
:1003C000E2F7982F8981892B0EC08A81282F30E08F
:1003D00081E090E002C0880F991F2A95E2F7982FDC
:1003E0009095898189230F900F900F90DF91CF9185
:1003F0000895CF93DF9300D0CDB7DEB789836A83AA
:100400008A81282F30E081E090E002C0880F991F98
:100410002A95E2F7982F898189230F900F90DF9119
:10042000CF910895CF93DF9300D000D0CDB7DEB742
:1004300069837A838B839C8389819A81AB81BC8118
:1004400080930E0190930F01A0931001B0931101BE
:1004500080910E0190910F01A0911001B0911101B6
:1004600080935D0190935E01A0935F01B093600162
:1004700000000F900F900F900F90DF91CF91089593
:10048000CF93DF93CDB7DEB781E890E02BE0FC019E
:10049000208388E890E02DE730E0FC013183208361
:1004A0008FE690E022E0FC01208384E890E0FC01EC
:1004B0001182108280910E0190910F01A091100184
:1004C000B091110180935D0190935E01A0935F0153
:1004D000B09360018FE590E02FE530E0F9012081D5
:1004E0002068FC0120830000DF91CF910895CF9315
:1004F000DF93CDB7DEB781E890E0FC011082000009
:10050000DF91CF910895CF93DF93CDB7DEB781E030
:1005100080935C010000DF91CF9108951F920F92AC
:1005200000905F000F92112400905B000F922F93B8
:100530003F934F935F936F937F938F939F93AF936B
:10054000BF93EF93FF93CF93DF93CDB7DEB7809147
:100550005D0190915E01A0915F01B09160010197F2
:10056000A109B10980935D0190935E01A0935F01A1
:10057000B093600180915D0190915E01A0915F0157
:10058000B0916001892B8A2B8B2B91F40E948302FE
:1005900080910E0190910F01A0911001B091110175
:1005A00080935D0190935E01A0935F01B093600121
:1005B0000000DF91CF91FF91EF91BF91AF919F919B
:1005C0008F917F916F915F914F913F912F910F90FC
:1005D00000925B000F9000925F000F901F901895A3
:1005E0000F931F93CF93DF9300D000D0CDB7DEB72A
:1005F00069837A838B839C8380916B0190916C01DA
:10060000A0916D01B0916E019C01AD0169817A816B
:100610008B819C810E94FF0D882309F466C020E035
:1006200030E0A90169817A818B819C810E94FF0D54
:10063000882351F481E990E021E930E0F90120813B
:100640002870FC01208309C081E990E021E930E0B5
:10065000F90120812360FC01208328E539E344E788
:100660005FE369817A818B819C810E94FF0D8823E1
:1006700044F488E990E02FEF3FEFFC0131832083C1
:1006800034C020E034E244EF56E469817A818B8102
:100690009C810E94210F181634F488E990E0FC0137
:1006A0001182108222C008E910E020E030E040E032
:1006B00053E469817A818B819C810E94260FDC0141
:1006C000CB019C01AD0160E074E284EF9AE40E94EA
:1006D000040EDC01CB01BC01CD010E94760EDC01D1
:1006E000CB010197F8019183808300000F900F9058
:1006F0000F900F90DF91CF911F910F910895CF939D
:10070000DF93CDB7DEB780E990E020E4FC012083E1
:1007100081E990E02BE0FC01208360E070E0CB01F8
:100720000E94F0020000DF91CF910895CF93DF93F4
:10073000CDB7DEB780E990E0FC01108281E990E05E
:10074000FC0110820000DF91CF910895CF93DF93D9
:10075000CDB7DEB788E290E02FEEFC0120830000E9
:1007600086E290E0FC01808160E00E94F90188232C
:1007700011F481E3B8C086E290E0FC01808161E081
:100780000E94F901882311F484E3ADC086E290E071
:10079000FC01808162E00E94F901882311F487E363
:1007A000A2C086E290E0FC01808163E00E94F90132
:1007B000882311F48AE297C088E290E02FEDFC01D3
:1007C0002083000086E290E0FC01808160E00E94CE
:1007D000F901882311F482E386C086E290E0FC01EF
:1007E000808161E00E94F901882311F485E37BC0D8
:1007F00086E290E0FC01808162E00E94F90188239A
:1008000011F488E370C086E290E0FC01808163E02F
:100810000E94F901882311F480E365C088E290E02A
:100820002FEBFC012083000086E290E0FC01808138
:1008300060E00E94F901882311F483E354C086E24A
:1008400090E0FC01808161E00E94F901882311F4AD
:1008500086E349C086E290E0FC01808162E00E946C
:10086000F901882311F489E33EC086E290E0FC019F
:10087000808163E00E94F901882311F483E233C090
:1008800088E290E02FE7FC012083000086E290E000
:10089000FC01808160E00E94F901882311F481E469
:1008A00022C086E290E0FC01808161E00E94F901B3
:1008B000882311F482E417C086E290E0FC01808175
:1008C00062E00E94F901882311F483E40CC086E2FF
:1008D00090E0FC01808163E00E94F901882311F41B
:1008E00084E401C080E0DF91CF910895CF93DF933E
:1008F00000D01F92CDB7DEB78B831A82198227C032
:1009000085E290E028E0FC01208385E290E025E28A
:1009100030E0F9012081422F2B81222F30E0098025
:1009200002C0359527950A94E2F72170242BFC012B
:10093000208385E290E025E230E0F9012081226009
:10094000FC01208389819A8101969A838983898118
:100950009A810897ACF285E290E025E230E0F90157
:1009600020812460FC01208385E290E0FC0110825C
:1009700000000F900F900F90DF91CF910895CF93CB
:10098000DF931F92CDB7DEB789838981882F90E0EE
:10099000092E000CAA0BBB0B40E050E029E030E030
:1009A000841B950B2817390708F46FC28A5B9F4F89
:1009B000FC010C94E20D80915201282F30E081E07F
:1009C00090E002C0880F991F2A95E2F7482F809186
:1009D0005301282F30E081E090E002C0880F991F7A
:1009E0002A95E2F7482B80915401282F30E081E0CE
:1009F00090E002C0880F991F2A95E2F7482B80915A
:100A00005501282F30E081E090E002C0880F991F47
:100A10002A95E2F7482B80915601282F30E081E09B
:100A200090E002C0880F991F2A95E2F7482B809129
:100A30005701282F30E081E090E002C0880F991F15
:100A40002A95E2F7842B80936F012DC28091530188
:100A5000282F30E081E090E002C0880F991F2A958E
:100A6000E2F7482F80915401282F30E081E090E098
:100A700002C0880F991F2A95E2F7842B80936F019B
:100A800012C280915201282F30E081E090E002C034
:100A9000880F991F2A95E2F7482F80915301282F3C
:100AA00030E081E090E002C0880F991F2A95E2F7BC
:100AB000482B80915501282F30E081E090E002C062
:100AC000880F991F2A95E2F7482B80915601282F0D
:100AD00030E081E090E002C0880F991F2A95E2F78C
:100AE000482B80915801282F30E081E090E002C02F
:100AF000880F991F2A95E2F7842B80936F01D3C149
:100B000080915201282F30E081E090E002C0880FF0
:100B1000991F2A95E2F7482F80915301282F30E042
:100B200081E090E002C0880F991F2A95E2F7482BD8
:100B300080915401282F30E081E090E002C0880FBE
:100B4000991F2A95E2F7482B80915501282F30E014
:100B500081E090E002C0880F991F2A95E2F7482BA8
:100B600080915801282F30E081E090E002C0880F8A
:100B7000991F2A95E2F7842B80936F0194C180918D
:100B80005301282F30E081E090E002C0880F991FC8
:100B90002A95E2F7482F80915401282F30E081E018
:100BA00090E002C0880F991F2A95E2F7482B8091A8
:100BB0005701282F30E081E090E002C0880F991F94
:100BC0002A95E2F7482B80915801282F30E081E0E8
:100BD00090E002C0880F991F2A95E2F7842B80933A
:100BE0006F0161C180915201282F30E081E090E0D7
:100BF00002C0880F991F2A95E2F7482F809154016F
:100C0000282F30E081E090E002C0880F991F2A95DC
:100C1000E2F7482B80915501282F30E081E090E0E9
:100C200002C0880F991F2A95E2F7482B809157013F
:100C3000282F30E081E090E002C0880F991F2A95AC
:100C4000E2F7482B80915801282F30E081E090E0B6
:100C500002C0880F991F2A95E2F7842B80936F01B9
:100C600022C180915201282F30E081E090E002C043
:100C7000880F991F2A95E2F7482F80915401282F59
:100C800030E081E090E002C0880F991F2A95E2F7DA
:100C9000482B80915501282F30E081E090E002C080
:100CA000880F991F2A95E2F7482B80915601282F2B
:100CB00030E081E090E002C0880F991F2A95E2F7AA
:100CC000482B80915701282F30E081E090E002C04E
:100CD000880F991F2A95E2F7482B80915801282FF9
:100CE00030E081E090E002C0880F991F2A95E2F77A
:100CF000842B80936F01D7C080915201282F30E060
:100D000081E090E002C0880F991F2A95E2F7482FF2
:100D100080915301282F30E081E090E002C0880FDD
:100D2000991F2A95E2F7482B80915401282F30E033
:100D300081E090E002C0880F991F2A95E2F7842B8A
:100D400080936F01B0C080915201282F30E081E084
:100D500090E002C0880F991F2A95E2F7482F8091F2
:100D60005301282F30E081E090E002C0880F991FE6
:100D70002A95E2F7482B80915401282F30E081E03A
:100D800090E002C0880F991F2A95E2F7482B8091C6
:100D90005501282F30E081E090E002C0880F991FB4
:100DA0002A95E2F7482B80915601282F30E081E008
:100DB00090E002C0880F991F2A95E2F7482B809196
:100DC0005701282F30E081E090E002C0880F991F82
:100DD0002A95E2F7482B80915801282F30E081E0D6
:100DE00090E002C0880F991F2A95E2F7842B809328
:100DF0006F0159C080915201282F30E081E090E0CE
:100E000002C0880F991F2A95E2F7482F809153015D
:100E1000282F30E081E090E002C0880F991F2A95CA
:100E2000E2F7482B80915401282F30E081E090E0D8
:100E300002C0880F991F2A95E2F7482B809155012F
:100E4000282F30E081E090E002C0880F991F2A959A
:100E5000E2F7482B80915701282F30E081E090E0A5
:100E600002C0880F991F2A95E2F7482B80915801FC
:100E7000282F30E081E090E002C0880F991F2A956A
:100E8000E2F7842B80936F010EC080915801282FC8
:100E900030E081E090E002C0880F991F2A95E2F7C8
:100EA00080936F01000080916F010F90DF91CF91CF
:100EB0000895CF93DF93CDB7DEB72C970FB6F89494
:100EC000DEBF0FBECDBF6D837E838F83988729875A
:100ED0003A874B875C878D819E81AF81B885298554
:100EE0003A854B855C85BC01CD010E94C00DDC01BB
:100EF000CB0189839A83AB83BC8389819A81AB813F
:100F0000BC81892B8A2B8B2B29F489859A85AB850B
:100F1000BC8511C089859A85AB85BC858D839E83F0
:100F2000AF83B88789819A81AB81BC8189879A8791
:100F3000AB87BC87D0CFBC01CD012C960FB6F894FF
:100F4000DEBF0FBECDBFDF91CF9108950F931F93EA
:100F5000CF93DF93CDB7DEB760970FB6F894DEBFBF
:100F60000FBECDBF81E290E02FEFFC01208382E233
:100F700090E0FC01108284E290E02FEFFC012083DE
:100F800085E290E0FC01108287E290E020EFFC0116
:100F9000208388E290E02FE0FC0120838AE290E049
:100FA0002FEFFC0120838BE290E0FC0110821A827B
:100FB00019828FEF8B8361E070E080E090E00E9407
:100FC00012020E9440020E94960080E00E94760475
:100FD0000E948B0086E0EEE1F1E0DE011B960190BD
:100FE0000D928A95E1F783E090E09F838E838FEFE7
:100FF000888788858093700182E390E0A0E0B0E06C
:101000008093710190937201A0937301B093740166
:101010008091710190917201A0917301B09174015E
:101020008093750190937601A0937701B093780136
:101030008EE19CE090937A0180937901888580937A
:101040007B0181E090E0A0E0B0E080937C01909390
:101050007D01A0937E01B0937F0180917C019091EE
:101060007D01A0917E01B0917F01809380019093DA
:101070008101A0938201B093830183EA99E0909368
:1010800085018093840188858093860182E390E0C6
:10109000A0E0B0E08093870190938801A09389013C
:1010A000B0938A018091870190918801A091890174
:1010B000B0918A0180938B0190938C01A0938D0154
:1010C000B0938E0189E699E09093900180938F010F
:1010D00080E090E00E94E20F8B81882351F48091A0
:1010E0001201882331F489819A8101969A83898338
:1010F000D3C08B81882321F580911201882301F1CF
:1011000080911201482F50E089819A81489F900177
:10111000499F300D589F300D1124C901880F991F28
:10112000820F931F27E030E0B9010E94AC0D9A872F
:10113000898789859A850E94E20F8FEF8B83ACC0E7
:101140008B81882309F4A8C01D821C829BC08C81DE
:101150009D81880F991F9E012F5F3F4F820F931F24
:101160000A96FC0180819181FC01258136814781AD
:1011700050858C819D81880F991FBE016F5F7F4FC5
:10118000860F971F0A96FC0180819181FC01818165
:101190009281A381B481281739074A075B0709F0B8
:1011A00045C08C819D81880F991F9E012F5F3F4F05
:1011B000820F931F0A96FC01008111818C819D8111
:1011C000880F991F9E012F5F3F4F820F931F0A9632
:1011D000FC0180819181FC01218532858C819D817A
:1011E000880F991FAE014F5F5F4F840F951F0A96BE
:1011F000FC0180819181FC018081082E000C990BFB
:10120000F9010995F80180838C819D81880F991FD0
:101210009E012F5F3F4F820F931F0A96FC01808132
:101220009181FC0115821682178210868C819D8126
:10123000880F991F9E012F5F3F4F820F931F0A96C1
:10124000FC01208131818C819D81880F991FAE0125
:101250004F5F5F4F840F951F0A96FC01808191813B
:10126000FC0185819681A781B0850196A11DB11DE4
:10127000F90185839683A783B0878C819D81019630
:101280009D838C832C813D818E819F812817390716
:1012900008F45DCF0E94800D000080915C018823DE
:1012A000E1F310925C0118CFCF93DF9300D0CDB75C
:1012B000DEB79A83898380916801882319F0898138
:1012C0009A8102C089819A810F900F90DF91CF910E
:1012D0000895CF93DF9300D01F92CDB7DEB79B83E5
:1012E0008A8380916801882319F08A819B8125C0B7
:1012F0000E94A60389838A819B81009719F0019738
:1013000061F013C089818823A9F081E090E09B837C
:101310008A838981809366010DC08981882311F4B5
:101320001B821A821092660106C01B821A821092DA
:10133000660101C000008A819B810F900F900F9081
:10134000DF91CF910895CF93DF9300D0CDB7DEB773
:101350009A83898380916801882319F089819A8111
:1013600068C289819A81092E000CAA0BBB0B40E050
:1013700050E027E030E0841B950B2817390708F46C
:1013800074C0805B9F4FFC010C94E20D81E090E003
:101390009A8389838EC083E090E09A83898389C091
:1013A00080911201282F30E080919101909192015B
:1013B000821793072CF483E090E09A83898379C0A5
:1013C00084E090E09A83898374C082E090E09A83FD
:1013D00089836FC085E090E09A8389836AC0809199
:1013E00066018134A9F080916601823489F0809190
:1013F0006601833469F080916601843449F08091FC
:101400006601833229F0809166018A3209F04CC06E
:1014100086E090E09A83898347C0809165018823A4
:1014200029F085E090E09A83898340C08091930100
:10143000882339F080919401882319F41A82198243
:1014400035C080919301882389F18091940188238C
:1014500069F187E090E09A83898328C080919401A4
:10146000882331F51A82198223C01A8219821092B8
:1014700093011092940110926501109296011092BE
:101480009501109298011092970110929A01109272
:1014900099011092610110929201109291011092A3
:1014A0009C0110929B0105C0000003C0000001C018
:1014B000000089819A81092E000CAA0BBB0B40E029
:1014C00050E027E030E0841B950B2817390708F41B
:1014D000AEC1885A9F4FFC010C94E20D0E948B0014
:1014E000109293011092940110926501109296014E
:1014F00010929501109298011092970110929A0102
:1015000010929901109292011092910110929C01F7
:1015100010929B018CC10E94DE0FBC018091620180
:10152000282F30E0C901880F991F880F991F820F5B
:10153000931FAC01465F5F4F80911201282F30E06E
:10154000429FC001439F900D529F900D11249C011A
:101550002F5F3F4FCB01B9010E94AC0D90939C01CE
:1015600080939B0180919B0190919C0190939601A7
:101570008093950180919B0190919C010E94820C27
:101580000E94260D54C10E94DE0FAC018091120111
:10159000882F90E0880F991F9C01220F331F220F84
:1015A000331F820F931F9C012F5F3F4FCA01B90168
:1015B0000E94AC0D90939C0180939B01809114013B
:1015C00090911501FC0180818B3279F42091950175
:1015D0003091960180919B0190919C01820F931F05
:1015E00090939601809395014CC080911401909145
:1015F0001501FC0180818D3209F043C020919501D5
:101600003091960180919B0190919C01A901481B0A
:10161000590BCA0190939601809395018091950191
:101620009091960199236CF5209195013091960146
:1016300080919B0190919C01820F931F9093960142
:10164000809395018091130181508093130184E26E
:1016500091E0909315018093140180911401909171
:1016600015010E94260D20919501309196018091DF
:101670009B0190919C01820F931F90939601809300
:10168000950180919B0190919C010E94820C0E9487
:10169000260DCDC00E94DE0F81709078992324F42E
:1016A00001978E6F9F6F019690939C0180939B0191
:1016B00080919B0190919C01892B39F484E291E007
:1016C00090931501809314010CC080919B0190911F
:1016D0009C01019731F486E291E09093150180938B
:1016E0001401809191019091920101969093920141
:1016F0008093910180911401909115010E94260D13
:1017000096C088E291E00E94260D80911301282F57
:1017100030E08091990190919A01820F931F9093EC
:101720009A018093990183C080916601882351F1C9
:10173000809166010E94E70C0E94820C0E94260D97
:101740008091970190919801880F991F9C01220F19
:10175000331F220F331F820F931F909398018093A2
:101760009701809166010E94E70C9C01809197018E
:1017700090919801820F931F909398018093970105
:10178000109266011092650152C01092660120917C
:1017900095013091960180919701909198012817B9
:1017A0003907B9F481E08093930181E080931301BC
:1017B000809161018F5F809361018091610183302D
:1017C00098F110929C0110929B0181E0809394010A
:1017D0002BC08091990190919A018093130180917F
:1017E00013010E943D01109298011092970181E02F
:1017F000809365011092610117C080919B019091C7
:101800009C01019690939C0180939B0180919B0188
:1018100090919C01883E93404CF01092940110925C
:1018200061011092620102C0000001C000008981C4
:101830009A810F900F90DF91CF910895CF93DF930E
:1018400000D0CDB7DEB79A83898389819A818230AF
:101850009105E1F0833091052CF4009749F0019750
:1018600061F01DC083309105E9F00497E9F017C0DD
:1018700081E090E09A8389831CC08091620181306D
:10188000A9F482E090E09A83898310C0809162017C
:10189000823071F483E090E09A83898309C01A82D0
:1018A000198207C0000005C0000003C0000001C08D
:1018B000000089819A8182309105E1F083309105A1
:1018C0001CF4892B21F017C0039731F014C010923B
:1018D0006201109268010FC081E0809368010E944C
:1018E0008B008BE291E00E94260D8CE391E00E9438
:1018F000260D01C0000089819A810F900F90DF9121
:10190000CF910895CF93DF93CDB7DEB72C970FB665
:10191000F894DEBF0FBECDBF9C878B878B859C85DF
:101920002AE030E0B9010E94AC0D9E838D838B8547
:101930009C852AE030E0B9010E94AC0DCB0198876C
:101940008F838B859C850A974CF481E090E09A8385
:1019500089838DE491E09C838B8308C082E090E0D2
:101960009A8389838FE491E09C838B8389819A8118
:101970002B813C81820F931F9A87898789859A855D
:10198000FC0110828F819885892B41F48D81805DC7
:10199000282F8B819C81FC0120830EC08F81805D6C
:1019A000282F8B819C81FC0120838B819C81019657
:1019B0002D81205DFC0120838B819C812C960FB6AC
:1019C000F894DEBF0FBECDBFDF91CF910895CF93C6
:1019D000DF931F92CDB7DEB789838981882F90E08E
:1019E000092E000CAA0BBB0B40E350E029E030E0CD
:1019F000841B950B2817390718F1805A9F4FFC015B
:101A00000C94E20D81E090E01DC082E090E01AC0ED
:101A100083E090E017C084E090E014C085E090E09F
:101A200011C086E090E00EC087E090E00BC088E037
:101A300090E008C089E090E005C080E090E002C03E
:101A400080E090E00F90DF91CF910895CF93DF93E6
:101A500000D000D0CDB7DEB79C838B8381E090E0CF
:101A60009A838983209113018B819C81BC01822FF1
:101A70000E941201998180911301890F80931301B3
:101A800000000F900F900F900F90DF91CF9108956D
:101A9000CF93DF93CDB7DEB780916101882311F436
:101AA00080E013C080916101813011F481E00DC0AC
:101AB00080916101823011F483E007C0809161015F
:101AC000833010F087E001C080E0DF91CF9108956E
:101AD000CF93DF931F92CDB7DEB785E089838091E6
:101AE0006201813011F486E0898380916201823045
:101AF00011F48AE0898389810F90DF91CF91089555
:101B0000CF93DF931F92CDB7DEB781E089838981C0
:101B1000880F880F880F89830E94480D982F89812C
:101B2000892B898389818295807F89830E94680DB2
:101B3000982F8981892B898389810E9476040000EE
:101B40000F90DF91CF910895CF93DF93CDB7DEB79C
:101B50000000DF91CF91089597FB072E16F40094B3
:101B600007D077FD09D00E94EB0D07FC05D03EF4AD
:101B7000909581959F4F0895709561957F4F089539
:101B8000A1E21A2EAA1BBB1BFD010DC0AA1FBB1F81
:101B9000EE1FFF1FA217B307E407F50720F0A21BF3
:101BA000B30BE40BF50B661F771F881F991F1A9460
:101BB00069F760957095809590959B01AC01BD018A
:101BC000CF010895EE0FFF1F0024001C0BBE0790ED
:101BD000F691E02D0994AA1BBB1B51E107C0AA1F77
:101BE000BB1FA617B70710F0A61BB70B881F991FBE
:101BF0005A95A9F780959095BC01CD0108950E9452
:101C0000AC0E08F481E008950E94180E0C94E70EC3
:101C10000E94E00E58F00E94D90E40F029F45F3F78
:101C200029F00C94D00E51110C941B0F0C94D60E6D
:101C30000E94F80E68F39923B1F3552391F3951B95
:101C4000550BBB27AA2762177307840738F09F5FDD
:101C50005F4F220F331F441FAA1FA9F335D00E2E4A
:101C60003AF0E0E832D091505040E695001CCAF7B7
:101C70002BD0FE2F29D0660F771F881FBB1F26177A
:101C800037074807AB07B0E809F0BB0B802DBF0151
:101C9000FF2793585F4F3AF09E3F510578F00C9420
:101CA000D00E0C941B0F5F3FE4F3983ED4F386955F
:101CB00077956795B795F7959F5FC9F7880F911D41
:101CC0009695879597F90895E1E0660F771F881F2D
:101CD000BB1F621773078407BA0720F0621B730BE0
:101CE000840BBA0BEE1F88F7E09508950E947D0ED5
:101CF0006894B1110C941B0F08950E94000F88F096
:101D00009F5798F0B92F9927B751B0F0E1F0660FBF
:101D1000771F881F991F1AF0BA95C9F714C0B13000
:101D200091F00E941A0FB1E008950C941A0F672FDA
:101D3000782F8827B85F39F0B93FCCF3869577952F
:101D40006795B395D9F73EF4909580957095619518
:101D50007F4F8F4F9F4F0895990F0008550FAA0B83
:101D6000E0E8FEEF16161706E807F907C0F01216AE
:101D70001306E407F50798F0621B730B840B950BB1
:101D800039F40A2661F0232B242B252B21F4089506
:101D90000A2609F4A140A6958FEF811D811D0895A3
:101DA00097F99F6780E870E060E008959FEF80EC0E
:101DB000089500240A9416161706180609060895B1
:101DC00000240A9412161306140605060895092E17
:101DD0000394000C11F4882352F0BB0F40F4BF2B86
:101DE00011F460FF04C06F5F7F4F8F4F9F4F0895C6
:101DF00057FD9058440F551F59F05F3F71F04795BC
:101E0000880F97FB991F61F09F3F79F087950895A0
:101E1000121613061406551FF2CF4695F1DF08C0BF
:101E2000161617061806991FF1CF869571056105DC
:101E300008940895E894BB2766277727CB0197F984
:101E400008950E94AC0E08F48FEF08950E94390F98
:101E50000C94E70E0E94D90E38F00E94E00E20F09C
:101E6000952311F00C94D00E0C94D60E11240C94E2
:101E70001B0F0E94F80E70F3959FC1F3950F50E071
:101E8000551F629FF001729FBB27F00DB11D639F2C
:101E9000AA27F00DB11DAA1F649F6627B00DA11DD2
:101EA000661F829F2227B00DA11D621F739FB00D78
:101EB000A11D621F839FA00D611D221F749F3327E8
:101EC000A00D611D231F849F600D211D822F762F81
:101ED0006A2F11249F5750409AF0F1F088234AF05E
:101EE000EE0FFF1FBB1F661F771F881F91505040CA
:101EF000A9F79E3F510580F00C94D00E0C941B0F57
:101F00005F3FE4F3983ED4F3869577956795B79550
:101F1000F795E7959F5FC1F7FE2B880F911D96956A
:101F2000879597F908958F929F92AF92BF92CF9223
:101F3000DF92EF92FF92CF93DF93EC01688179817A
:101F40008A819B81611571058105910521F464E207
:101F500079ED8BE597E02DE133EF41E050E00E9411
:101F6000ED0F49015A019B01AC01A7EAB1E40E94BF
:101F70000C106B017C01ACEEB4EFA50194010E9442
:101F80001A10DC01CB018C0D9D1DAE1DBF1DB7FFCE
:101F900003C00197A109B04888839983AA83BB83B2
:101FA0009F77DF91CF91FF90EF90DF90CF90BF9020
:101FB000AF909F908F9008950C94930F86E191E0DD
:101FC0000C94930FA0E0B0E080931601909317015A
:101FD000A0931801B09319010895052E97FB1EF4E4
:101FE00000940E94041057FD07D00E94C00D07FC0A
:101FF00003D04EF40C9404105095409530952195E3
:102000003F4F4F4F5F4F0895909580957095619524
:102010007F4F8F4F9F4F08950E941F10A59F900DD7
:10202000B49F900DA49F800D911D11240895B7FFBA
:102030000C940C100E940C10821B930B0895A29F0D
:10204000B001B39FC001A39F700D811D1124911D8C
:10205000B29F700D811D1124911D0895F894FFCF3A
:102060000000000200000000A201000000000100CA
:102070000000010159010100000000000000700192
:102080007B0186012B002D003D0000202020202018
:1020900020534146452020202020200020202020C1
:1020A000554E4C4F434B45442020202000300030FB
:0C20B000300002030605040100000000DF
:00000001FF
