:100000000C9468000C9487000C9487000C94870073
:100010000C9487000C9487000C9487000C94870044
:100020000C9487000C9487000C9487000C94870034
:100030000C9487000C948C020C9487000C9487001D
:100040000C9487000C9487000C9487000C94870014
:100050000C9487000C9487000C9487000C94870004
:100060000C9487000C9487000C9487000C948700F4
:100070000C9487000C9487000C9487000C948700E4
:100080000C9487000C9487000C948700D9042405F5
:100090003F057E05BD05F0052F067A06A106F80688
:1000A000B609BB09C009D509DA09DF09FC09300A1C
:1000B0003D0A630AAA0AD50AE80A170BE10BC60B28
:1000C000C90BCC0BCF0BD20BD50BD80BDB0BDE0B3C
:1000D00011241FBECFEFD0E4DEBFCDBF11E0A0E002
:1000E000B1E0ECE4FDE100E00BBF02C007900D922F
:1000F000AC33B107D9F721E0ACE3B1E001C01D9208
:10010000A937B207E1F70E94A4070C94A40E0C943F
:100110000000CF93DF93CDB7DEB781E00E94B0003F
:100120000000DF91CF910895CF93DF93CDB7DEB775
:1001300084E690E00E94700188E30E94B00086E0AF
:100140000E94B0008FE00E94B00081E00E94B000E9
:100150008AE090E00E9470010000DF91CF91089545
:10016000CF93DF931F92CDB7DEB7898385E290E00E
:1001700025E230E0F90120812F7EFC01208382E21C
:1001800090E02981FC01208385E290E025E230E0C7
:10019000F90120812062FC012083000085E290E0CB
:1001A00025E230E0F90120812F7DFC01208382E0EF
:1001B00090E00E94700100000F90DF91CF910895B0
:1001C000CF93DF931F92CDB7DEB7898385E290E0AE
:1001D00025E230E0F90120812061FC01208382E2E8
:1001E00090E02981FC01208385E290E025E230E067
:1001F000F90120812062FC012083000085E290E06B
:1002000025E230E0F90120812F7DFC01208381E08F
:1002100090E00E94700100000F90DF91CF9108954F
:10022000CF93DF9300D000D0CDB7DEB78A837C8335
:100230006B838A81898311C0898191E0980F9983AA
:100240000E9459018B819C819C012F5F3F4F3C8311
:100250002B83FC0180810E94E0008B819C81FC014A
:100260008081882349F700000F900F900F900F9026
:10027000DF91CF910895CF93DF9300D0CDB7DEB754
:100280008A838A81898309C0898191E0980F998343
:100290000E94590180E20E94E00089818132A0F32E
:1002A0008A810E94590100000F900F90DF91CF9139
:1002B0000895CF93DF931F92CDB7DEB789838981ED
:1002C000813128F4898181580E94B00004C089815D
:1002D00081550E94B00000000F90DF91CF910895EA
:1002E000CF93DF9300D000D000D0CDB7DEB79E8390
:1002F0008D831A82198213C01C821B8206C00000E3
:100300008B819C8101969C838B838B819C81873020
:100310009340ACF389819A8101969A8389832981DC
:100320003A818D819E812817390734F30000269683
:100330000FB6F894DEBF0FBECDBFDF91CF91089509
:10034000CF93DF9300D01F92CDB7DEB789837B8335
:100350006A8389818A3031F48A819B81BC018DE076
:100360000E94A00180EC90E0FC018081882F90E049
:1003700080729927892BB1F386EC90E02981FC01EA
:10038000208380E090E00F900F900F90DF91CF914D
:100390000895CF93DF9300D01F92CDB7DEB7898346
:1003A0006A834B838B81882371F08A81282F30E008
:1003B00081E090E002C0880F991F2A95E2F7982FFC
:1003C0008981892B0EC08A81282F30E081E090E05E
:1003D00002C0880F991F2A95E2F7982F909589817E
:1003E00089230F900F900F90DF91CF910895CF93B5
:1003F000DF9300D0CDB7DEB789836A838A81282F47
:1004000030E081E090E002C0880F991F2A95E2F762
:10041000982F898189230F900F90DF91CF910895B4
:10042000CF93DF9300D000D0CDB7DEB769837A8356
:100430008B839C8389819A81AB81BC8180930E01DF
:1004400090930F01A0931001B093110180910E01C0
:1004500090910F01A0911001B091110180933D0185
:1004600090933E01A0933F01B093400100000F9094
:100470000F900F900F90DF91CF910895CF93DF935E
:10048000CDB7DEB781E890E02BE0FC01208388E85F
:1004900090E02DE730E0FC01318320838FE690E08F
:1004A00022E0FC01208384E890E0FC0111821082AC
:1004B00080910E0190910F01A0911001B091110156
:1004C00080933D0190933E01A0933F01B093400182
:1004D0008FE590E02FE530E0F90120812068FC01F4
:1004E00020830000DF91CF910895CF93DF93CDB7A4
:1004F000DEB781E890E0FC0110820000DF91CF912F
:100500000895CF93DF93CDB7DEB781E080933C01B0
:100510000000DF91CF9108951F920F9200905F002D
:100520000F92112400905B000F922F933F934F93F3
:100530005F936F937F938F939F93AF93BF93EF934B
:10054000FF93CF93DF93CDB7DEB780913D019091BC
:100550003E01A0913F01B09140010197A109B1096D
:1005600080933D0190933E01A0933F01B0934001E1
:1005700080913D0190913E01A0913F01B0914001D9
:10058000892B8A2B8B2B91F40E94810280910E0182
:1005900090910F01A0911001B091110180933D0144
:1005A00090933E01A0933F01B09340010000DF9182
:1005B000CF91FF91EF91BF91AF919F918F917F91DB
:1005C0006F915F914F913F912F910F9000925B003F
:1005D0000F9000925F000F901F9018950F931F933C
:1005E000CF93DF9300D000D0CDB7DEB769837A8395
:1005F0008B839C838091480190914901A0914A018D
:10060000B0914B019C01AD0169817A818B819C8104
:100610000E94750C882309F466C020E030E0A9012F
:1006200069817A818B819C810E94750C882351F4A9
:1006300081E990E021E930E0F90120812870FC0196
:10064000208309C081E990E021E930E0F9012081AF
:100650002360FC01208328E539E344E75FE36981F7
:100660007A818B819C810E94750C882344F488E9EF
:1006700090E02FEF3FEFFC013183208334C020E076
:1006800034E244EF56E469817A818B819C810E9437
:10069000970D181634F488E990E0FC01118210825D
:1006A00022C008E910E020E030E040E053E4698136
:1006B0007A818B819C810E949C0DDC01CB019C0185
:1006C000AD0160E074E284EF9AE40E947A0CDC01F0
:1006D000CB01BC01CD010E94EC0CDC01CB010197E8
:1006E000F8019183808300000F900F900F900F907E
:1006F000DF91CF911F910F910895CF93DF93CDB7E5
:10070000DEB780E990E020E4FC01208381E990E0FD
:100710002BE0FC01208360E070E0CB010E94EE0240
:100720000000DF91CF910895CF93DF93CDB7DEB76F
:1007300080E990E0FC01108281E990E0FC011082E8
:100740000000DF91CF910895CF93DF93CDB7DEB74F
:1007500088E290E02FEEFC012083000086E290E02A
:10076000FC01808160E00E94F701882311F481E39D
:10077000B8C086E290E0FC01808161E00E94F70150
:10078000882311F484E3ADC086E290E0FC0180810F
:1007900062E00E94F701882311F487E3A2C086E299
:1007A00090E0FC01808163E00E94F701882311F44E
:1007B0008AE297C088E290E02FEDFC0120830000E0
:1007C00086E290E0FC01808160E00E94F7018823CE
:1007D00011F482E386C086E290E0FC01808161E052
:1007E0000E94F701882311F485E37BC086E290E044
:1007F000FC01808162E00E94F701882311F488E304
:1008000070C086E290E0FC01808163E00E94F70105
:10081000882311F480E365C088E290E02FEBFC01AF
:100820002083000086E290E0FC01808160E00E946D
:10083000F701882311F483E354C086E290E0FC01C1
:10084000808161E00E94F701882311F486E349C0AA
:1008500086E290E0FC01808162E00E94F70188233B
:1008600011F489E33EC086E290E0FC01808163E000
:100870000E94F701882311F483E233C088E290E0FC
:100880002FE7FC012083000086E290E0FC018081DC
:1008900060E00E94F701882311F481E422C086E21F
:1008A00090E0FC01808161E00E94F701882311F44F
:1008B00082E417C086E290E0FC01808162E00E9441
:1008C000F701882311F483E40CC086E290E0FC0178
:1008D000808163E00E94F701882311F484E401C061
:1008E00080E0DF91CF910895CF93DF9300D01F92E6
:1008F000CDB7DEB78B831A82198227C085E290E0DC
:1009000028E0FC01208385E290E025E230E0F90157
:100910002081422F2B81222F30E0098002C03595A3
:1009200027950A94E2F72170242BFC01208385E2AD
:1009300090E025E230E0F90120812260FC01208373
:1009400089819A8101969A83898389819A810897FE
:10095000ACF285E290E025E230E0F90120812460EC
:10096000FC01208385E290E0FC01108200000F90E2
:100970000F900F90DF91CF910895CF93DF931F9247
:10098000CDB7DEB789838981882F90E0092E000CCE
:10099000AA0BBB0B40E050E029E030E0841B950B34
:1009A0002817390708F46FC28A5B9F4FFC010C942B
:1009B000580C80913501282F30E081E090E002C092
:1009C000880F991F2A95E2F7482F80913601282F2A
:1009D00030E081E090E002C0880F991F2A95E2F78D
:1009E000482B80913701282F30E081E090E002C051
:1009F000880F991F2A95E2F7482B80913801282FFC
:100A000030E081E090E002C0880F991F2A95E2F75C
:100A1000482B80913901282F30E081E090E002C01E
:100A2000880F991F2A95E2F7482B80913A01282FC9
:100A300030E081E090E002C0880F991F2A95E2F72C
:100A4000842B80934C012DC280913601282F30E0F9
:100A500081E090E002C0880F991F2A95E2F7482FA5
:100A600080913701282F30E081E090E002C0880FAC
:100A7000991F2A95E2F7842B80934C0112C2809132
:100A80003501282F30E081E090E002C0880F991FE7
:100A90002A95E2F7482F80913601282F30E081E037
:100AA00090E002C0880F991F2A95E2F7482B8091A9
:100AB0003801282F30E081E090E002C0880F991FB4
:100AC0002A95E2F7482B80913901282F30E081E008
:100AD00090E002C0880F991F2A95E2F7482B809179
:100AE0003B01282F30E081E090E002C0880F991F81
:100AF0002A95E2F7842B80934C01D3C18091350174
:100B0000282F30E081E090E002C0880F991F2A95DD
:100B1000E2F7482F80913601282F30E081E090E005
:100B200002C0880F991F2A95E2F7482B8091370160
:100B3000282F30E081E090E002C0880F991F2A95AD
:100B4000E2F7482B80913801282F30E081E090E0D7
:100B500002C0880F991F2A95E2F7482B80913B012C
:100B6000282F30E081E090E002C0880F991F2A957D
:100B7000E2F7842B80934C0194C180913601282F99
:100B800030E081E090E002C0880F991F2A95E2F7DB
:100B9000482F80913701282F30E081E090E002C09B
:100BA000880F991F2A95E2F7482B80913A01282F48
:100BB00030E081E090E002C0880F991F2A95E2F7AB
:100BC000482B80913B01282F30E081E090E002C06B
:100BD000880F991F2A95E2F7842B80934C0161C1FD
:100BE00080913501282F30E081E090E002C0880F2D
:100BF000991F2A95E2F7482F80913701282F30E07E
:100C000081E090E002C0880F991F2A95E2F7482BF7
:100C100080913801282F30E081E090E002C0880FF9
:100C2000991F2A95E2F7482B80913A01282F30E04E
:100C300081E090E002C0880F991F2A95E2F7482BC7
:100C400080913B01282F30E081E090E002C0880FC6
:100C5000991F2A95E2F7842B80934C0122C1809141
:100C60003501282F30E081E090E002C0880F991F05
:100C70002A95E2F7482F80913701282F30E081E054
:100C800090E002C0880F991F2A95E2F7482B8091C7
:100C90003801282F30E081E090E002C0880F991FD2
:100CA0002A95E2F7482B80913901282F30E081E026
:100CB00090E002C0880F991F2A95E2F7482B809197
:100CC0003A01282F30E081E090E002C0880F991FA0
:100CD0002A95E2F7482B80913B01282F30E081E0F4
:100CE00090E002C0880F991F2A95E2F7842B809329
:100CF0004C01D7C080913501282F30E081E090E091
:100D000002C0880F991F2A95E2F7482F809136017B
:100D1000282F30E081E090E002C0880F991F2A95CB
:100D2000E2F7482B80913701282F30E081E090E0F6
:100D300002C0880F991F2A95E2F7842B80934C01FB
:100D4000B0C080913501282F30E081E090E002C0F2
:100D5000880F991F2A95E2F7482F80913601282F96
:100D600030E081E090E002C0880F991F2A95E2F7F9
:100D7000482B80913701282F30E081E090E002C0BD
:100D8000880F991F2A95E2F7482B80913801282F68
:100D900030E081E090E002C0880F991F2A95E2F7C9
:100DA000482B80913901282F30E081E090E002C08B
:100DB000880F991F2A95E2F7482B80913A01282F36
:100DC00030E081E090E002C0880F991F2A95E2F799
:100DD000482B80913B01282F30E081E090E002C059
:100DE000880F991F2A95E2F7842B80934C0159C0F4
:100DF00080913501282F30E081E090E002C0880F1B
:100E0000991F2A95E2F7482F80913601282F30E06C
:100E100081E090E002C0880F991F2A95E2F7482BE5
:100E200080913701282F30E081E090E002C0880FE8
:100E3000991F2A95E2F7482B80913801282F30E03E
:100E400081E090E002C0880F991F2A95E2F7482BB5
:100E500080913A01282F30E081E090E002C0880FB5
:100E6000991F2A95E2F7482B80913B01282F30E00B
:100E700081E090E002C0880F991F2A95E2F7842B49
:100E800080934C010EC080913B01282F30E081E01F
:100E900090E002C0880F991F2A95E2F780934C01D9
:100EA000000080914C010F90DF91CF910895CF9376
:100EB000DF93CDB7DEB72C970FB6F894DEBF0FBE29
:100EC000CDBF6D837E838F83988729873A874B8731
:100ED0005C878D819E81AF81B88529853A854B8558
:100EE0005C85BC01CD010E94360CDC01CB018983FD
:100EF0009A83AB83BC8389819A81AB81BC81892B26
:100F00008A2B8B2B29F489859A85AB85BC8511C0EA
:100F100089859A85AB85BC858D839E83AF83B88791
:100F200089819A81AB81BC8189879A87AB87BC878D
:100F3000D0CFBC01CD012C960FB6F894DEBF0FBE0A
:100F4000CDBFDF91CF9108950F931F93CF93DF9380
:100F5000CDB7DEB760970FB6F894DEBF0FBECDBF3A
:100F600081E290E02FEFFC01208382E290E0FC011F
:100F7000108284E290E02FEFFC01208385E290E074
:100F8000FC01108287E290E020EFFC01208388E2E0
:100F900090E02FE0FC0120838AE290E02FEFFC013B
:100FA00020838BE290E0FC0110821A8219828FEF7D
:100FB0008B8361E070E080E090E00E9410020E946C
:100FC0003E020E94940080E00E9474040E94890006
:100FD00086E0ECE1F1E0DE011B9601900D928A952E
:100FE000E1F783E090E09F838E838FEF8887888589
:100FF00080934D0182E390E0A0E0B0E080934E0149
:1010000090934F01A0935001B093510180914E01F4
:1010100090914F01A0915001B091510180935201E4
:1010200090935301A0935401B093550184E19CE047
:10103000909357018093560188858093580181E0F1
:1010400090E0A0E0B0E08093590190935A01A09302
:101050005B01B0935C018091590190915A01A0917C
:101060005B01B0915C0180935D0190935E01A09360
:101070005F01B093600184E999E0909362018093ED
:10108000610188858093630182E390E0A0E0B0E095
:101090008093640190936501A0936601B09367010A
:1010A0008091640190916501A0916601B091670102
:1010B0008093680190936901A0936A01B0936B01DA
:1010C00081E699E090936D0180936C0180E090E05F
:1010D0000E94580E8B81882351F48091120188233D
:1010E00031F489819A8101969A838983D4C08B8156
:1010F000882321F580911201882301F1809112014A
:10110000482F50E089819A81489F9001499F300D76
:10111000589F300D1124C901880F991F820F931F0A
:1011200027E030E0B9010E94220C9A8789878985DF
:101130009A850E94580E8FEF8B83ADC08B818823D8
:1011400009F4A9C080E00E9474041D821C829BC027
:101150008C819D81880F991F9E012F5F3F4F820FC9
:10116000931F0A96FC0180819181FC0125813681C3
:10117000478150858C819D81880F991FBE016F5FCB
:101180007F4F860F971F0A96FC0180819181FC0199
:1011900081819281A381B481281739074A075B07AF
:1011A00009F045C08C819D81880F991F9E012F5F9A
:1011B0003F4F820F931F0A96FC01008111818C81A1
:1011C0009D81880F991F9E012F5F3F4F820F931FB4
:1011D0000A96FC0180819181FC01218532858C81F8
:1011E0009D81880F991FAE014F5F5F4F840F951F40
:1011F0000A96FC0180819181FC018081082E000CFF
:10120000990BF9010995F80180838C819D81880FE4
:10121000991F9E012F5F3F4F820F931F0A96FC017B
:1012200080819181FC0115821682178210868C8143
:101230009D81880F991F9E012F5F3F4F820F931F43
:101240000A96FC01208131818C819D81880F991F34
:10125000AE014F5F5F4F840F951F0A96FC0180819E
:101260009181FC0185819681A781B0850196A11DA0
:10127000B11DF90185839683A783B0878C819D81F9
:1012800001969D838C832C813D818E819F812817BF
:10129000390708F45DCF000080913C018823E1F319
:1012A00010923C0117CFCF93DF9300D0CDB7DEB7BC
:1012B0009A83898389819A810F900F90DF91CF91D2
:1012C0000895CF93DF9300D01F92CDB7DEB79B83F5
:1012D0008A830E94A40389838A819B81009719F0E5
:1012E000019761F013C089818823A9F081E090E023
:1012F0009B838A838981809377010DC089818823AC
:1013000011F41B821A821092770106C01B821A8286
:101310001092770101C000008A819B810F900F908D
:101320000F90DF91CF910895CF93DF9300D000D03D
:1013300000D0CDB7DEB79E838D8382E291E09A83A1
:1013400089838D819E81092E000CAA0BBB0B40E086
:1013500050E026E030E0841B950B2817390708F48D
:1013600054C0805B9F4FFC010C94580C82E090E0CD
:101370009E838D8360C083E090E09E838D835BC0FD
:1013800080911201282F30E080916E0190916F01C1
:10139000821793072CF483E090E09E838D834BC0EB
:1013A00084E090E09E838D8346C082E090E09E833F
:1013B0008D8341C085E090E09E838D833CC0809109
:1013C00077018134A1F080917701823481F080919E
:1013D0007701833461F080917701843441F080910A
:1013E0007701833221F0809177018A3209F586E016
:1013F00090E09E838D831CC0809145018823D1F0AD
:1014000085E090E09E838D8315C01E821D82109220
:1014100070011092450110927201109271011092A8
:1014200074011092730110926F0110926E0103C04B
:10143000000001C000008D819E81092E000CAA0BC6
:10144000BB0B40E050E026E030E0841B950B2817F2
:10145000390708F410C1895A9F4FFC010C94580CAD
:1014600010927201109271010E9489001092740111
:101470001092730110927001FEC00E94540EAC01D4
:1014800080911201882F90E0880F991F9C01220FF4
:10149000331F220F331F820F931F9C012F5F3F4F7B
:1014A000CA01B9010E94220C9C838B838B819C8191
:1014B00090937201809371018B819C810E94460BF5
:1014C0000E94EA0BD8C00E94540EAC018091120118
:1014D000882F90E0880F991F9C01220F331F220F45
:1014E000331F820F931F9C012F5F3F4FCA01B90129
:1014F0000E94220C9C838B8389819A81FC018081CC
:101500008B3269F420917101309172018B819C8141
:10151000820F931F909372018093710114C089818F
:101520009A81FC0180818D3271F42091710130919A
:1015300072018B819C81A901481B590BCA019093B0
:101540007201809371018B819C810E94460B0E94E5
:10155000EA0B91C00E94540E81709078992324F474
:1015600001978E6F9F6F01969C838B838B819C81EB
:10157000892B29F484E291E09A83898308C08B81C6
:101580009C81019721F486E291E09A83898380917E
:101590006E0190916F01019690936F0180936E019F
:1015A00089819A810E94EA0B66C088E291E00E94DC
:1015B000EA0B80911301282F30E080917501909102
:1015C0007601820F931F909376018093750153C02B
:1015D00080917701882341F1809177010E94AB0BC4
:1015E0000E94460B0E94EA0B809173019091740156
:1015F000880F991F9C01220F331F220F331F820F68
:10160000931F9093740180937301809177010E94DE
:10161000AB0B9C018091730190917401820F931F19
:1016200090937401809373011092450124C020911E
:1016300071013091720180917301909174012817AA
:10164000390751F40E94890081E0809313018BE2F5
:1016500091E00E94EA0B0EC0809175019091760195
:101660008F5F80931301809113010E943B0181E001
:101670008093450100008D819E8126960FB6F894D7
:10168000DEBF0FBECDBFDF91CF910895CF93DF9323
:10169000CDB7DEB72C970FB6F894DEBF0FBECDBF27
:1016A0009C878B878B859C852AE030E0B9010E945E
:1016B000220C9E838D838B859C852AE030E0B901C6
:1016C0000E94220CCB0198878F838B859C850A977B
:1016D0004CF481E090E09A83898380E391E09C83DD
:1016E0008B8308C082E090E09A83898382E391E053
:1016F0009C838B8389819A812B813C81820F931FEC
:101700009A87898789859A85FC0110828F819885BF
:10171000892B41F48D81805D282F8B819C81FC0178
:1017200020830EC08F81805D282F8B819C81FC01DE
:1017300020838B819C8101962D81205DFC0120837B
:101740008B819C812C960FB6F894DEBF0FBECDBF67
:10175000DF91CF910895CF93DF931F92CDB7DEB77E
:1017600089838981882F90E0092E000CAA0BBB0B7E
:1017700040E350E029E030E0841B950B281739073F
:1017800018F1825A9F4FFC010C94580C81E090E0B4
:101790001DC082E090E01AC083E090E017C084E0B2
:1017A00090E014C085E090E011C086E090E00EC0AB
:1017B00087E090E00BC088E090E008C089E090E00E
:1017C00005C080E090E002C080E090E00F90DF91E3
:1017D000CF910895CF93DF9300D000D0CDB7DEB77F
:1017E0009C838B8381E090E09A838983209113010D
:1017F0008B819C81BC01822F0E9410019981809174
:101800001301890F8093130100000F900F900F9028
:101810000F90DF91CF910895CF93DF93CDB7DEB7CF
:101820000000DF91CF910895CF93DF9300D0CDB723
:10183000DEB79A83898389819A810F900F90DF9117
:10184000CF91089597FB072E16F4009407D077FDEB
:1018500009D00E94610C07FC05D03EF4909581955B
:101860009F4F0895709561957F4F0895A1E21A2EBC
:10187000AA1BBB1BFD010DC0AA1FBB1FEE1FFF1F34
:10188000A217B307E407F50720F0A21BB30BE40B84
:10189000F50B661F771F881F991F1A9469F76095CB
:1018A0007095809590959B01AC01BD01CF01089585
:1018B000EE0FFF1F0024001C0BBE0790F691E02DD9
:1018C0000994AA1BBB1B51E107C0AA1FBB1FA61787
:1018D000B70710F0A61BB70B881F991F5A95A9F7D9
:1018E00080959095BC01CD0108950E94220D08F4C9
:1018F00081E008950E948E0C0C945D0D0E94560D9F
:1019000058F00E944F0D40F029F45F3F29F00C94ED
:10191000460D51110C94910D0C944C0D0E946E0DBE
:1019200068F39923B1F3552391F3951B550BBB270E
:10193000AA2762177307840738F09F5F5F4F220F53
:10194000331F441FAA1FA9F335D00E2E3AF0E0E84A
:1019500032D091505040E695001CCAF72BD0FE2F94
:1019600029D0660F771F881FBB1F26173707480728
:10197000AB07B0E809F0BB0B802DBF01FF279358E0
:101980005F4F3AF09E3F510578F00C94460D0C9451
:10199000910D5F3FE4F3983ED4F386957795679574
:1019A000B795F7959F5FC9F7880F911D9695879515
:1019B00097F90895E1E0660F771F881FBB1F621734
:1019C00073078407BA0720F0621B730B840BBA0BF2
:1019D000EE1F88F7E09508950E94F30C6894B1110A
:1019E0000C94910D08950E94760D88F09F5798F001
:1019F000B92F9927B751B0F0E1F0660F771F881F14
:101A0000991F1AF0BA95C9F714C0B13091F00E942D
:101A1000900DB1E008950C94900D672F782F8827D2
:101A2000B85F39F0B93FCCF3869577956795B39554
:101A3000D9F73EF490958095709561957F4F8F4FC3
:101A40009F4F0895990F0008550FAA0BE0E8FEEF8D
:101A500016161706E807F907C0F012161306E40772
:101A6000F50798F0621B730B840B950B39F40A266B
:101A700061F0232B242B252B21F408950A2609F449
:101A8000A140A6958FEF811D811D089597F99F674D
:101A900080E870E060E008959FEF80EC08950024F6
:101AA0000A941616170618060906089500240A94C3
:101AB00012161306140605060895092E0394000C49
:101AC00011F4882352F0BB0F40F4BF2B11F460FFD8
:101AD00004C06F5F7F4F8F4F9F4F089557FD905801
:101AE000440F551F59F05F3F71F04795880F97FBE2
:101AF000991F61F09F3F79F087950895121613069C
:101B00001406551FF2CF4695F1DF08C016161706CA
:101B10001806991FF1CF86957105610508940895FF
:101B2000E894BB2766277727CB0197F908950E9491
:101B3000220D08F48FEF08950E94AF0D0C945D0DF7
:101B40000E944F0D38F00E94560D20F0952311F0A1
:101B50000C94460D0C944C0D11240C94910D0E9484
:101B60006E0D70F3959FC1F3950F50E0551F629F66
:101B7000F001729FBB27F00DB11D639FAA27F00DE6
:101B8000B11DAA1F649F6627B00DA11D661F829F0D
:101B90002227B00DA11D621F739FB00DA11D621FF2
:101BA000839FA00D611D221F749F3327A00D611D0F
:101BB000231F849F600D211D822F762F6A2F1124F1
:101BC0009F5750409AF0F1F088234AF0EE0FFF1F24
:101BD000BB1F661F771F881F91505040A9F79E3F7B
:101BE000510580F00C94460D0C94910D5F3FE4F389
:101BF000983ED4F3869577956795B795F795E795D1
:101C00009F5FC1F7FE2B880F911D9695879597F9D9
:101C100008958F929F92AF92BF92CF92DF92EF92F0
:101C2000FF92CF93DF93EC01688179818A819B8158
:101C3000611571058105910521F464E279ED8BE56B
:101C400097E02DE133EF41E050E00E94630E49013F
:101C50005A019B01AC01A7EAB1E40E94820E6B011C
:101C60007C01ACEEB4EFA50194010E94900EDC0162
:101C7000CB018C0D9D1DAE1DBF1DB7FF03C001978D
:101C8000A109B04888839983AA83BB839F77DF919A
:101C9000CF91FF90EF90DF90CF90BF90AF909F904B
:101CA0008F9008950C94090E84E191E00C94090E34
:101CB000A0E0B0E08093140190931501A093160169
:101CC000B09317010895052E97FB1EF400940E940F
:101CD0007A0E57FD07D00E94360C07FC03D04EF455
:101CE0000C947A0E50954095309521953F4F4F4F6B
:101CF0005F4F089590958095709561957F4F8F4FB8
:101D00009F4F08950E94950EA59F900DB49F900D32
:101D1000A49F800D911D11240895B7FF0C94820E8D
:101D20000E94820E821B930B0895A29FB001B39F65
:101D3000C001A39F700D811D1124911DB29F700DD4
:0C1D4000811D1124911D0895F894FFCF1F
:101D4C000000000200000000A001000000000100E3
:101D5C000000010101000000000000004D015801CD
:101D6C00630100002B002D003D000059415900007B
:0C1D7C00300030300002030605040100B6
:00000001FF
