:100000000C9450000C946F000C946F000C946F00D3
:100010000C946F000C946F000C946F000C946F00A4
:100020000C946F000C946F000C946F000C946F0094
:100030000C946F000C946F000C946F000C946F0084
:100040000C946F000C946F000C946F000C946F0074
:100050000C946F000C946F000C946F000C946F0064
:100060000C946F000C946F000C946F000C946F0054
:100070000C946F000C946F000C946F000C946F0044
:100080000C946F000C946F000C946F00B60001018B
:100090001C015B019A01CD010C0257027E02D502C0
:1000A00011241FBECFEFD0E4DEBFCDBF11E0A0E032
:1000B000B1E0E4EAF6E000E00BBF02C007900D9269
:1000C000A631B107D9F721E0A6E1B1E001C01D9248
:1000D000A731B207E1F70E9434030C9450030C944B
:1000E0000000CF93DF9300D01F92CDB7DEB7898396
:1000F0007B836A8389818A3031F48A819B81BC0148
:100100008DE00E94710080EC90E0FC018081882FDE
:1001100090E080729927892BB1F386EC90E02981D9
:10012000FC01208380E090E00F900F900F90DF9112
:10013000CF910895CF93DF931F92CDB7DEB7898318
:100140008981882F90E0092E000CAA0BBB0B40E0A0
:1001500050E029E030E0841B950B2817390708F49C
:100160006FC28A5B9F4FFC010C94470380910E0184
:10017000282F30E081E090E002C0880F991F2A9577
:10018000E2F7482F80910F01282F30E081E090E0C6
:1001900002C0880F991F2A95E2F7482B8091100121
:1001A000282F30E081E090E002C0880F991F2A9547
:1001B000E2F7482B80911101282F30E081E090E098
:1001C00002C0880F991F2A95E2F7482B80911201EF
:1001D000282F30E081E090E002C0880F991F2A9517
:1001E000E2F7482B80911301282F30E081E090E066
:1001F00002C0880F991F2A95E2F7842B809316017D
:100200002DC280910F01282F30E081E090E002C0E4
:10021000880F991F2A95E2F7482F80911001282F07
:1002200030E081E090E002C0880F991F2A95E2F744
:10023000842B8093160112C280910E01282F30E08A
:1002400081E090E002C0880F991F2A95E2F7482FBD
:1002500080910F01282F30E081E090E002C0880FEC
:10026000991F2A95E2F7482B80911101282F30E041
:1002700081E090E002C0880F991F2A95E2F7482B91
:1002800080911201282F30E081E090E002C0880FB9
:10029000991F2A95E2F7482B80911401282F30E00E
:1002A00081E090E002C0880F991F2A95E2F7842B25
:1002B00080931601D3C180910E01282F30E081E098
:1002C00090E002C0880F991F2A95E2F7482F80918D
:1002D0000F01282F30E081E090E002C0880F991FC5
:1002E0002A95E2F7482B80911001282F30E081E019
:1002F00090E002C0880F991F2A95E2F7482B809161
:100300001101282F30E081E090E002C0880F991F92
:100310002A95E2F7482B80911401282F30E081E0E4
:1003200090E002C0880F991F2A95E2F7842B8093F2
:10033000160194C180910F01282F30E081E090E0F8
:1003400002C0880F991F2A95E2F7482F809110016B
:10035000282F30E081E090E002C0880F991F2A9595
:10036000E2F7482B80911301282F30E081E090E0E4
:1003700002C0880F991F2A95E2F7482B809114013B
:10038000282F30E081E090E002C0880F991F2A9565
:10039000E2F7842B8093160161C180910E01282F12
:1003A00030E081E090E002C0880F991F2A95E2F7C3
:1003B000482F80911001282F30E081E090E002C0AA
:1003C000880F991F2A95E2F7482B80911101282F59
:1003D00030E081E090E002C0880F991F2A95E2F793
:1003E000482B80911301282F30E081E090E002C07B
:1003F000880F991F2A95E2F7482B80911401282F26
:1004000030E081E090E002C0880F991F2A95E2F762
:10041000842B8093160122C180910E01282F30E099
:1004200081E090E002C0880F991F2A95E2F7482FDB
:1004300080911001282F30E081E090E002C0880F09
:10044000991F2A95E2F7482B80911101282F30E05F
:1004500081E090E002C0880F991F2A95E2F7482BAF
:1004600080911201282F30E081E090E002C0880FD7
:10047000991F2A95E2F7482B80911301282F30E02D
:1004800081E090E002C0880F991F2A95E2F7482B7F
:1004900080911401282F30E081E090E002C0880FA5
:1004A000991F2A95E2F7842B80931601D7C080917B
:1004B0000E01282F30E081E090E002C0880F991FE4
:1004C0002A95E2F7482F80910F01282F30E081E034
:1004D00090E002C0880F991F2A95E2F7482B80917F
:1004E0001001282F30E081E090E002C0880F991FB2
:1004F0002A95E2F7842B80931601B0C080910E01FB
:10050000282F30E081E090E002C0880F991F2A95E3
:10051000E2F7482F80910F01282F30E081E090E032
:1005200002C0880F991F2A95E2F7482B809110018D
:10053000282F30E081E090E002C0880F991F2A95B3
:10054000E2F7482B80911101282F30E081E090E004
:1005500002C0880F991F2A95E2F7482B809112015B
:10056000282F30E081E090E002C0880F991F2A9583
:10057000E2F7482B80911301282F30E081E090E0D2
:1005800002C0880F991F2A95E2F7482B8091140129
:10059000282F30E081E090E002C0880F991F2A9553
:1005A000E2F7842B8093160159C080910E01282F09
:1005B00030E081E090E002C0880F991F2A95E2F7B1
:1005C000482F80910F01282F30E081E090E002C099
:1005D000880F991F2A95E2F7482B80911001282F48
:1005E00030E081E090E002C0880F991F2A95E2F781
:1005F000482B80911101282F30E081E090E002C06B
:10060000880F991F2A95E2F7482B80911301282F14
:1006100030E081E090E002C0880F991F2A95E2F750
:10062000482B80911401282F30E081E090E002C037
:10063000880F991F2A95E2F7842B809316010EC02C
:1006400080911401282F30E081E090E002C0880FF3
:10065000991F2A95E2F780931601000080911601F8
:100660000F90DF91CF910895CF93DF93CDB7DEB791
:1006700084E290E02FEFFC01208385E290E0FC0112
:10068000108285E290E02FEFFC012083FACFEE0F7D
:10069000FF1F0024001C0BBE0790F691E02D09946B
:0406A000F894FFCFFC
:1006A40000000002000000007100000000000203CE
:0606B40006050401000030
:00000001FF
