:100000000C947A000C9499000C9499000C9499002B
:100010000C9499000C9499000C9499000C949900FC
:100020000C9499000C9499000C9499000C949900EC
:100030000C9499000C949E020C9499000C949900D5
:100040000C9499000C9499000C9499000C949900CC
:100050000C9499000C9499000C9499000C949900BC
:100060000C9499000C9499000C9499000C949900AC
:100070000C9499000C9499000C9499000C9499009C
:100080000C9499000C9499000C949900EB0436059B
:1000900051059005CF05020641068C06B3060A07F6
:1000A000E309E809ED09020A070A0C0A2A0A4B0AC1
:1000B0008B0AAB0AE30A6A0BA10BBC0BED0B2C0CF1
:1000C000950C9F0CA40CB90CCD0CD20CEE0CE20CD0
:1000D0000C0D280D5E0D5E0D360D470D5E0D510D9C
:1000E000EA0DCF0DD20DD50DD80DDB0DDE0DE10DD6
:1000F000E40DE70D11241FBECFEFD0E4DEBFCDBF6E
:1001000011E0A0E0B1E0E6E6F2E200E00BBF02C0E1
:1001100007900D92AE37B107D9F721E0AEE7B1E015
:1001200001C01D92A03CB207E1F70E94B6070C94F3
:1001300031110C940000CF93DF93CDB7DEB781E08F
:100140000E94C2000000DF91CF910895CF93DF930A
:10015000CDB7DEB784E690E00E94820188E30E947A
:10016000C20086E00E94C2008FE00E94C20081E0CF
:100170000E94C2008AE090E00E9482010000DF91AC
:10018000CF910895CF93DF931F92CDB7DEB78983C8
:1001900085E290E025E230E0F90120812F7EFC012C
:1001A000208382E290E02981FC01208385E290E0B7
:1001B00025E230E0F90120812062FC01208300006B
:1001C00085E290E025E230E0F90120812F7DFC01FD
:1001D000208382E090E00E94820100000F90DF9176
:1001E000CF910895CF93DF931F92CDB7DEB7898368
:1001F00085E290E025E230E0F90120812061FC01F8
:10020000208382E290E02981FC01208385E290E056
:1002100025E230E0F90120812062FC01208300000A
:1002200085E290E025E230E0F90120812F7DFC019C
:10023000208381E090E00E94820100000F90DF9116
:10024000CF910895CF93DF9300D000D0CDB7DEB724
:100250008A837C836B838A81898311C0898191E041
:10026000980F99830E946B018B819C819C012F5F69
:100270003F4F3C832B83FC0180810E94F2008B81E5
:100280009C81FC018081882349F700000F900F902A
:100290000F900F90DF91CF910895CF93DF9300D00F
:1002A000CDB7DEB78A838A81898309C0898191E0CD
:1002B000980F99830E946B0180E20E94F20089816D
:1002C0008132A0F38A810E946B0100000F900F9091
:1002D000DF91CF910895CF93DF931F92CDB7DEB713
:1002E00089838981813128F4898181580E94C200E3
:1002F00004C0898181550E94C20000000F90DF91E7
:10030000CF910895CF93DF9300D000D000D0CDB728
:10031000DEB79E838D831A82198213C01C821B82D2
:1003200006C000008B819C8101969C838B838B810E
:100330009C8187309340ACF389819A8101969A839E
:10034000898329813A818D819E812817390734F369
:10035000000026960FB6F894DEBF0FBECDBFDF912A
:10036000CF910895CF93DF9300D01F92CDB7DEB722
:1003700089837B836A8389818A3031F48A819B8176
:10038000BC018DE00E94B20180EC90E0FC01808114
:10039000882F90E080729927892BB1F386EC90E04A
:1003A0002981FC01208380E090E00F900F900F9056
:1003B000DF91CF910895CF93DF9300D01F92CDB7F7
:1003C000DEB789836A834B838B81882371F08A81AE
:1003D000282F30E081E090E002C0880F991F2A9515
:1003E000E2F7982F8981892B0EC08A81282F30E06F
:1003F00081E090E002C0880F991F2A95E2F7982FBC
:100400009095898189230F900F900F90DF91CF9164
:100410000895CF93DF9300D0CDB7DEB789836A8389
:100420008A81282F30E081E090E002C0880F991F78
:100430002A95E2F7982F898189230F900F90DF91F9
:10044000CF910895CF93DF9300D000D0CDB7DEB722
:1004500069837A838B839C8389819A81AB81BC81F8
:1004600080930E0190930F01A0931001B09311019E
:1004700080910E0190910F01A0911001B091110196
:1004800080937F0190938001A0938101B0938201BA
:1004900000000F900F900F900F90DF91CF91089573
:1004A000CF93DF93CDB7DEB781E890E02BE0FC017E
:1004B000208388E890E02DE730E0FC013183208341
:1004C0008FE690E022E0FC01208384E890E0FC01CC
:1004D0001182108280910E0190910F01A091100164
:1004E000B091110180937F0190938001A0938101CD
:1004F000B09382018FE590E02FE530E0F901208193
:100500002068FC0120830000DF91CF910895CF93F4
:10051000DF93CDB7DEB781E890E0FC0110820000E8
:10052000DF91CF910895CF93DF93CDB7DEB781E010
:1005300080937E010000DF91CF9108951F920F926A
:1005400000905F000F92112400905B000F922F9398
:100550003F934F935F936F937F938F939F93AF934B
:10056000BF93EF93FF93CF93DF93CDB7DEB7809127
:100570007F0190918001A0918101B091820101974A
:10058000A109B10980937F0190938001A09381011B
:10059000B093820180917F0190918001A0918101AF
:1005A000B0918201892B8A2B8B2B91F40E949302AC
:1005B00080910E0190910F01A0911001B091110155
:1005C00080937F0190938001A0938101B093820179
:1005D0000000DF91CF91FF91EF91BF91AF919F917B
:1005E0008F917F916F915F914F913F912F910F90DC
:1005F00000925B000F9000925F000F901F90189583
:100600000F931F93CF93DF9300D000D0CDB7DEB709
:1006100069837A838B839C8380918C0190918D0177
:10062000A0918E01B0918F019C01AD0169817A8109
:100630008B819C810E94020F882309F466C020E010
:1006400030E0A90169817A818B819C810E94020F2F
:10065000882351F481E990E021E930E0F90120811B
:100660002870FC01208309C081E990E021E930E095
:10067000F90120812360FC01208328E539E344E768
:100680005FE369817A818B819C810E94020F8823BC
:1006900044F488E990E02FEF3FEFFC0131832083A1
:1006A00034C020E034E244EF56E469817A818B81E2
:1006B0009C810E942410181634F488E990E0FC0113
:1006C0001182108222C008E910E020E030E040E012
:1006D00053E469817A818B819C810E942910DC011D
:1006E000CB019C01AD0160E074E284EF9AE40E94CA
:1006F000070FDC01CB01BC01CD010E94790FDC01A9
:10070000CB010197F8019183808300000F900F9037
:100710000F900F90DF91CF911F910F910895CF937C
:10072000DF93CDB7DEB780E990E020E4FC012083C1
:1007300081E990E02BE0FC01208360E070E0CB01D8
:100740000E9400030000DF91CF910895CF93DF93C3
:10075000CDB7DEB780E990E0FC01108281E990E03E
:10076000FC0110820000DF91CF910895CF93DF93B9
:10077000CDB7DEB788E290E02FEEFC0120830000C9
:1007800086E290E0FC01808160E00E9409028823FB
:1007900011F481E3B8C086E290E0FC01808161E061
:1007A0000E940902882311F484E3ADC086E290E040
:1007B000FC01808162E00E940902882311F487E332
:1007C000A2C086E290E0FC01808163E00E94090201
:1007D000882311F48AE297C088E290E02FEDFC01B3
:1007E0002083000086E290E0FC01808160E00E94AE
:1007F0000902882311F482E386C086E290E0FC01BE
:10080000808161E00E940902882311F485E37BC0A6
:1008100086E290E0FC01808162E00E940902882368
:1008200011F488E370C086E290E0FC01808163E00F
:100830000E940902882311F480E365C088E290E0F9
:100840002FEBFC012083000086E290E0FC01808118
:1008500060E00E940902882311F483E354C086E219
:1008600090E0FC01808161E00E940902882311F47C
:1008700086E349C086E290E0FC01808162E00E944C
:100880000902882311F489E33EC086E290E0FC016E
:10089000808163E00E940902882311F483E233C05F
:1008A00088E290E02FE7FC012083000086E290E0E0
:1008B000FC01808160E00E940902882311F481E438
:1008C00022C086E290E0FC01808161E00E94090282
:1008D000882311F482E417C086E290E0FC01808155
:1008E00062E00E940902882311F483E40CC086E2CE
:1008F00090E0FC01808163E00E940902882311F4EA
:1009000084E401C080E0DF91CF910895CF93DF931D
:1009100000D01F92CDB7DEB78B831A82198227C011
:1009200085E290E028E0FC01208385E290E025E26A
:1009300030E0F9012081422F2B81222F30E0098005
:1009400002C0359527950A94E2F72170242BFC010B
:10095000208385E290E025E230E0F90120812260E9
:10096000FC01208389819A8101969A8389838981F8
:100970009A810897ACF285E290E025E230E0F90137
:1009800020812460FC01208385E290E0FC0110823C
:1009900000000F900F900F90DF91CF910895CF93AB
:1009A000DF931F92CDB7DEB789838981882F90E0CE
:1009B000092E000CAA0BBB0B40E050E029E030E010
:1009C000841B950B2817390708F46FC28A5B9F4F69
:1009D000FC010C94E50E80917501282F30E081E038
:1009E00090E002C0880F991F2A95E2F7482F809166
:1009F0007601282F30E081E090E002C0880F991F37
:100A00002A95E2F7482B80917701282F30E081E08A
:100A100090E002C0880F991F2A95E2F7482B809139
:100A20007801282F30E081E090E002C0880F991F04
:100A30002A95E2F7482B80917901282F30E081E058
:100A400090E002C0880F991F2A95E2F7482B809109
:100A50007A01282F30E081E090E002C0880F991FD2
:100A60002A95E2F7842B809390012DC28091760124
:100A7000282F30E081E090E002C0880F991F2A956E
:100A8000E2F7482F80917701282F30E081E090E055
:100A900002C0880F991F2A95E2F7842B809390015A
:100AA00012C280917501282F30E081E090E002C0F1
:100AB000880F991F2A95E2F7482F80917601282FF9
:100AC00030E081E090E002C0880F991F2A95E2F79C
:100AD000482B80917801282F30E081E090E002C01F
:100AE000880F991F2A95E2F7482B80917901282FCA
:100AF00030E081E090E002C0880F991F2A95E2F76C
:100B0000482B80917B01282F30E081E090E002C0EB
:100B1000880F991F2A95E2F7842B80939001D3C107
:100B200080917501282F30E081E090E002C0880FAD
:100B3000991F2A95E2F7482F80917601282F30E0FF
:100B400081E090E002C0880F991F2A95E2F7482BB8
:100B500080917701282F30E081E090E002C0880F7B
:100B6000991F2A95E2F7482B80917801282F30E0D1
:100B700081E090E002C0880F991F2A95E2F7482B88
:100B800080917B01282F30E081E090E002C0880F47
:100B9000991F2A95E2F7842B8093900194C180914C
:100BA0007601282F30E081E090E002C0880F991F85
:100BB0002A95E2F7482F80917701282F30E081E0D5
:100BC00090E002C0880F991F2A95E2F7482B809188
:100BD0007A01282F30E081E090E002C0880F991F51
:100BE0002A95E2F7482B80917B01282F30E081E0A5
:100BF00090E002C0880F991F2A95E2F7842B80931A
:100C0000900161C180917501282F30E081E090E072
:100C100002C0880F991F2A95E2F7482F809177012B
:100C2000282F30E081E090E002C0880F991F2A95BC
:100C3000E2F7482B80917801282F30E081E090E0A6
:100C400002C0880F991F2A95E2F7482B80917A01FC
:100C5000282F30E081E090E002C0880F991F2A958C
:100C6000E2F7482B80917B01282F30E081E090E073
:100C700002C0880F991F2A95E2F7842B8093900178
:100C800022C180917501282F30E081E090E002C000
:100C9000880F991F2A95E2F7482F80917701282F16
:100CA00030E081E090E002C0880F991F2A95E2F7BA
:100CB000482B80917801282F30E081E090E002C03D
:100CC000880F991F2A95E2F7482B80917901282FE8
:100CD00030E081E090E002C0880F991F2A95E2F78A
:100CE000482B80917A01282F30E081E090E002C00B
:100CF000880F991F2A95E2F7482B80917B01282FB6
:100D000030E081E090E002C0880F991F2A95E2F759
:100D1000842B80939001D7C080917501282F30E0FB
:100D200081E090E002C0880F991F2A95E2F7482FD2
:100D300080917601282F30E081E090E002C0880F9A
:100D4000991F2A95E2F7482B80917701282F30E0F0
:100D500081E090E002C0880F991F2A95E2F7842B6A
:100D600080939001B0C080917501282F30E081E020
:100D700090E002C0880F991F2A95E2F7482F8091D2
:100D80007601282F30E081E090E002C0880F991FA3
:100D90002A95E2F7482B80917701282F30E081E0F7
:100DA00090E002C0880F991F2A95E2F7482B8091A6
:100DB0007801282F30E081E090E002C0880F991F71
:100DC0002A95E2F7482B80917901282F30E081E0C5
:100DD00090E002C0880F991F2A95E2F7482B809176
:100DE0007A01282F30E081E090E002C0880F991F3F
:100DF0002A95E2F7482B80917B01282F30E081E093
:100E000090E002C0880F991F2A95E2F7842B809307
:100E1000900159C080917501282F30E081E090E069
:100E200002C0880F991F2A95E2F7482F809176011A
:100E3000282F30E081E090E002C0880F991F2A95AA
:100E4000E2F7482B80917701282F30E081E090E095
:100E500002C0880F991F2A95E2F7482B80917801EC
:100E6000282F30E081E090E002C0880F991F2A957A
:100E7000E2F7482B80917A01282F30E081E090E062
:100E800002C0880F991F2A95E2F7482B80917B01B9
:100E9000282F30E081E090E002C0880F991F2A954A
:100EA000E2F7842B809390010EC080917B01282F64
:100EB00030E081E090E002C0880F991F2A95E2F7A8
:100EC000809390010000809190010F90DF91CF916D
:100ED0000895CF93DF93CDB7DEB72C970FB6F89474
:100EE000DEBF0FBECDBF6D837E838F83988729873A
:100EF0003A874B875C878D819E81AF81B885298534
:100F00003A854B855C85BC01CD010E94C30EDC0196
:100F1000CB0189839A83AB83BC8389819A81AB811E
:100F2000BC81892B8A2B8B2B29F489859A85AB85EB
:100F3000BC8511C089859A85AB85BC858D839E83D0
:100F4000AF83B88789819A81AB81BC8189879A8771
:100F5000AB87BC87D0CFBC01CD012C960FB6F894DF
:100F6000DEBF0FBECDBFDF91CF9108950F931F93CA
:100F7000CF93DF93CDB7DEB72F970FB6F894DEBFD0
:100F80000FBECDBF81E290E02FEFFC01208382E213
:100F900090E0FC01108284E290E02FEFFC012083BE
:100FA00085E290E0FC01108287E290E020EFFC01F6
:100FB000208388E290E02FE0FC0120838AE290E029
:100FC0002FEFFC0120838BE290E0FC0110821A825B
:100FD000198261E070E080E090E00E9422020E94AD
:100FE00050020E94A60080E00E9486040E949B009E
:100FF00086E0E2E2F1E0DE011A9601900D928A9518
:10100000E1F783E090E09E838D838FEF8F838F8164
:101010008093910182E390E0A0E0B0E080939201A0
:1010200090939301A0939401B093950180919201C4
:1010300090919301A0919401B091950180939601B4
:1010400090939701A0939801B093990189E79CE050
:1010500090939B0180939A018F8180939C0181E002
:1010600090E0A0E0B0E080939D0190939E01A0935A
:101070009F01B093A00180919D0190919E01A0914C
:101080009F01B091A0018093A1019093A201A09330
:10109000A301B093A40180EC99E09093A601809302
:1010A000A5018F818093A70182E390E0A0E0B0E0EA
:1010B0008093A8019093A901A093AA01B093AB01DA
:1010C0008091A8019091A901A091AA01B091AB01D2
:1010D0008093AC019093AD01A093AE01B093AF01AA
:1010E00086E899E09093B1018093B00180E090E0B0
:1010F0000E94E51080911201882351F48091130120
:10110000882331F489819A8101969A838983DEC08C
:1011100080911201882329F580911301882309F118
:1011200080911301482F50E089819A81489F900156
:10113000499F300D589F300D1124C901880F991F08
:10114000820F931F27E030E0B9010E94AF0E99870C
:101150008887888599850E94E51081E08093120137
:10116000B5C080911201882309F4B0C01C821B8293
:101170009BC08B819C81880F991F9E012F5F3F4FE1
:10118000820F931F0996FC0180819181FC012581CA
:101190003681478150858B819C81880F991FBE01C4
:1011A0006F5F7F4F860F971F0996FC0180819181A9
:1011B000FC0181819281A381B481281739074A07F4
:1011C0005B0709F045C08B819C81880F991F9E01A8
:1011D0002F5F3F4F820F931F0996FC010081118101
:1011E0008B819C81880F991F9E012F5F3F4F820F3B
:1011F000931F0996FC0180819181FC012185328534
:101200008B819C81880F991FAE014F5F5F4F840FC8
:10121000951F0996FC0180819181FC018081082E37
:10122000000C990BF9010995F80180838B819C8151
:10123000880F991F9E012F5F3F4F820F931F0996C2
:10124000FC0180819181FC01158216821782108633
:101250008B819C81880F991F9E012F5F3F4F820FCA
:10126000931F0996FC01208131818B819C81880F1D
:10127000991FAE014F5F5F4F840F951F0996FC01C8
:1012800080819181FC0185819681A781B08501963D
:10129000A11DB11DF90185839683A783B0878B813A
:1012A0009C8101969C838B832B813C818D819E81C7
:1012B0002817390708F45DCF0E94630E809116014C
:1012C000909117010E94660D0E94870E0000809188
:1012D0007E018823E1F310927E010CCFCF93DF9340
:1012E00000D0CDB7DEB79A838983809189018823A6
:1012F00019F089819A8105C081E080931301898169
:101300009A810F900F90DF91CF910895CF93DF9343
:1013100000D01F92CDB7DEB79B838A83809189016D
:10132000882319F08A819B8125C00E94B603898396
:101330008A819B81009719F0019761F013C0898120
:101340008823A9F081E090E09B838A838981809340
:1013500087010DC08981882311F41B821A821092A3
:10136000870106C01B821A821092870101C000000B
:101370008A819B810F900F900F90DF91CF910895FC
:10138000CF93DF9300D0CDB7DEB79A838983809166
:101390008901882319F089819A81A6C289819A815D
:1013A000092E000CAA0BBB0B40E050E027E030E018
:1013B000841B950B2817390708F474C0805B9F4F76
:1013C000FC010C94E50E81E090E09A8389838EC045
:1013D00083E090E09A83898389C080911401282F4B
:1013E00030E08091B2019091B301821793072CF401
:1013F00083E090E09A83898379C084E090E09A83C7
:10140000898374C082E090E09A8389836FC085E00D
:1014100090E09A8389836AC0809187018134A9F022
:1014200080918701823489F080918701833469F04B
:1014300080918701843449F080918701833229F0BB
:10144000809187018A3209F04CC086E090E09A834F
:10145000898347C080918601882329F085E090E048
:101460009A83898340C08091B401882339F08091A8
:10147000B501882319F41A82198235C08091B4010C
:10148000882389F18091B501882369F187E090E094
:101490009A83898328C08091B501882331F51A8207
:1014A000198223C01A8219821092B4011092B501D8
:1014B000109286011092B7011092B6011092B901F4
:1014C0001092B8011092BB011092BA0110928301E0
:1014D0001092B3011092B2011092BD011092BC01A2
:1014E00005C0000003C0000001C0000089819A818E
:1014F000092E000CAA0BBB0B40E050E027E030E0C7
:10150000841B950B2817390708F4ECC1885A9F4FA4
:10151000FC010C94E50E0E949B0081E08093150174
:101520001092B4011092B501109286011092B70189
:101530001092B6011092B9011092B8011092BB013D
:101540001092BA011092B3011092B2011092BD0133
:101550001092BC01C7C10E94E110BC0180918401BE
:10156000282F30E0C901880F991F880F991F820F1B
:10157000931FAC01415F5F4F80911301282F30E032
:10158000429FC001439F900D529F900D11249C01DA
:101590002F5F3F4FCB01B9010E94AF0E9093BD0169
:1015A0008093BC018091BC019091BD019093B701E3
:1015B0008093B6018091BC019091BD010E94660D9F
:1015C0000E94F30D8FC10E94E110AC0180911301C4
:1015D000882F90E0880F991F9C01220F331F220F44
:1015E000331F820F931F9C012F5F3F4FCA01B90128
:1015F0000E94AF0E9093BD018093BC0180911801B1
:1016000090911901FC0180818B3279F42091B6010F
:101610003091B7018091BC019091BD01820F931F61
:101620009093B7018093B6014CC0809118019091BE
:101630001901FC0180818D3209F043C02091B6016F
:101640003091B7018091BC019091BD01A901481B67
:10165000590BCA019093B7018093B6018091B601EE
:101660009091B70199236CF52091B6013091B701A3
:101670008091BC019091BD01820F931F9093B7019F
:101680008093B6018091150181508093150188E205
:1016900091E0909319018093180180911801909125
:1016A00019010E94F30D2091B6013091B70180918C
:1016B000BC019091BD01820F931F9093B70180935D
:1016C000B6018091BC019091BD010E94660D0E94FF
:1016D000F30D08C10E94E11081709078992324F4E1
:1016E00001978E6F9F6F01969093BD018093BC010F
:1016F0008091BC019091BD01892B39F488E291E081
:1017000090931901809318010CC08091BC019091B5
:10171000BD01019731F48AE291E090931901809321
:1017200018018091B2019091B30101969093B30199
:101730008093B20180911801909119010E94F30DDC
:10174000D1C08CE291E00E94F30D8091B60190919E
:10175000B7010E94660D0E94F30D80911501282F9C
:1017600030E08091BA019091BB01820F931F90935A
:10177000BB018093BA01B6C080918701882351F1E3
:10178000809187010E94B40D0E94660D0E94F30DA6
:101790008091B8019091B901880F991F9C01220F87
:1017A000331F220F331F820F931F9093B901809331
:1017B000B801809187010E94B40D9C018091B8010D
:1017C0009091B901820F931F9093B9018093B80152
:1017D000109287011092860185C010928701209196
:1017E000B6013091B7018091B8019091B9012817E5
:1017F0003907A9F481E08093B401809183018F5F60
:101800008093830180918301833008F468C0109233
:10181000BD011092BC0181E08093B50160C0809150
:10182000BA019091BB0180931501809115010E942E
:101830004D011092B9011092B80181E080938601A8
:101840001092830180911601909117010197909356
:1018500017018093160143C08091BC019091BD0196
:10186000892B51F481E0809315010E949B008FE247
:1018700091E00E94F30D19C08091BC019091BD01CF
:10188000843F914071F08091BC019091BD01883EF0
:10189000934039F08091BC019091BD018C3D954001
:1018A00021F489E391E00E94F30D8091BC019091B5
:1018B000BD0101969093BD018093BC018091BC0154
:1018C0009091BD01803D974064F01092B501109257
:1018D0008301809184018F5F8093840102C00000A6
:1018E00001C0000089819A810F900F90DF91CF9104
:1018F0000895CF93DF9300D0CDB7DEB79A83898365
:1019000089819A81092E000CAA0BBB0B40E050E0A4
:1019100027E030E0841B950B2817390708F457C0DF
:10192000805A9F4FFC010C94E50E80911201882390
:1019300009F456C081E090E09A83898351C082E027
:1019400090E09A83898353C080911601909117018A
:101950001816190624F087E090E09A838983809115
:101960008401813009F03EC083E090E09A8389834E
:1019700039C080911601909117011816190624F0AC
:1019800087E090E09A83898380918401823061F5B9
:1019900084E090E09A83898327C085E090E09A8371
:1019A000898325C08091BE019091BF018436910545
:1019B000ECF086E090E09A8389831092BF01109248
:1019C000BE0114C085E090E09A83898310C01A821A
:1019D00019821092BF011092BE0109C0000007C019
:1019E000000005C0000003C0000001C000008981A4
:1019F0009A81092E000CAA0BBB0B40E050E027E0B7
:101A000030E0841B950B2817390708F458C0885913
:101A10009F4FFC010C94E50E1092830110928401FB
:101A20008FEF9FEF9093170180931601109285011D
:101A300010928601109287011092880181E08093B4
:101A400015011092890110928B0110928A0137C002
:101A500081E0809314011092890185E090E09093D9
:101A60001701809316011092850129C081E08093AF
:101A700089010E949B0081E0809315018BE391E036
:101A80000E94F30D8DE491E00E94F30D18C0809147
:101A9000BE019091BF0101969093BF018093BE015A
:101AA0000EC081E0809389010E949B0081E08093B9
:101AB00015018FE591E00E94F30D01C000008981BE
:101AC0009A810F900F90DF91CF910895CF93DF937C
:101AD000CDB7DEB72A970FB6F894DEBF0FBECDBFE5
:101AE0009A87898789859A852AE030E0B9010E9422
:101AF000AF0E9A83898389859A852AE030E0B901FF
:101B00000E94AF0ECB019C838B838B819C81892BA0
:101B100071F480E791E09E838D838981805D282F19
:101B20008D819E81FC0120838D819E8114C082E77E
:101B300091E098878F838B81805D282F8F81988596
:101B4000FC0120838F81988501962981205DFC010D
:101B500020838F8198852A960FB6F894DEBF0FBE3A
:101B6000CDBFDF91CF910895CF93DF931F92CDB773
:101B7000DEB789838981882F90E0092E000CAA0B9B
:101B8000BB0B40E350E029E030E0841B950B2817A5
:101B9000390718F180599F4FFC010C94E50E81E044
:101BA00090E01DC082E090E01AC083E090E017C092
:101BB00084E090E014C085E090E011C086E090E001
:101BC0000EC087E090E00BC088E090E008C089E09C
:101BD00090E005C080E090E002C080E090E00F90CF
:101BE000DF91CF910895CF93DF9300D000D000D044
:101BF000CDB7DEB79E838D831A8219828D819E8137
:101C00009C838B830AC089819A8101969A838983F8
:101C10008B819C8101969C838B838B819C81FC01B1
:101C20008081882381F7209115018D819E81BC01DF
:101C3000822F0E942201998180911501890F809342
:101C40001501000026960FB6F894DEBF0FBECDBF7B
:101C5000DF91CF910895CF93DF93CDB7DEB7809119
:101C60008301882311F480E013C0809183018130C7
:101C700011F481E00DC080918301823011F483E082
:101C800007C080918301833010F087E001C080E0BD
:101C9000DF91CF910895CF93DF931F92CDB7DEB739
:101CA00085E0898380918401813011F486E0898305
:101CB00080918401823011F48AE0898389810F90B8
:101CC000DF91CF910895CF93DF931F92CDB7DEB709
:101CD00081E089838981880F880F880F89830E941A
:101CE0002B0E982F8981892B898389818295807F0A
:101CF00089830E944B0E982F8981892B8983898142
:101D00000E94860400000F90DF91CF910895CF9339
:101D1000DF9300D000D0CDB7DEB79C838B838B815F
:101D20009C81FC018081898389810E94B40D0E947D
:101D3000CF048A838BE290E02A81FC01208300009B
:101D40000F900F900F900F90DF91CF910895CF9348
:101D5000DF93CDB7DEB70000DF91CF91089597FBF9
:101D6000072E16F4009407D077FD09D00E94EE0EDE
:101D700007FC05D03EF4909581959F4F089570958E
:101D800061957F4F0895A1E21A2EAA1BBB1BFD018E
:101D90000DC0AA1FBB1FEE1FFF1FA217B307E4074A
:101DA000F50720F0A21BB30BE40BF50B661F771FA2
:101DB000881F991F1A9469F7609570958095909582
:101DC0009B01AC01BD01CF010895EE0FFF1F002460
:101DD000001C0BBE0790F691E02D0994AA1BBB1BBB
:101DE00051E107C0AA1FBB1FA617B70710F0A61B1B
:101DF000B70B881F991F5A95A9F780959095BC013C
:101E0000CD0108950E94AF0F08F481E008950E946B
:101E10001B0F0C94EA0F0E94E30F58F00E94DC0F96
:101E200040F029F45F3F29F00C94D30F51110C942A
:101E30001E100C94D90F0E94FB0F68F39923B1F385
:101E4000552391F3951B550BBB27AA2762177307E0
:101E5000840738F09F5F5F4F220F331F441FAA1F74
:101E6000A9F335D00E2E3AF0E0E832D09150504030
:101E7000E695001CCAF72BD0FE2F29D0660F771FDE
:101E8000881FBB1F261737074807AB07B0E809F0C4
:101E9000BB0B802DBF01FF2793585F4F3AF09E3F49
:101EA000510578F00C94D30F0C941E105F3FE4F3AF
:101EB000983ED4F3869577956795B795F7959F5F8C
:101EC000C9F7880F911D9695879597F90895E1E0D8
:101ED000660F771F881FBB1F621773078407BA0737
:101EE00020F0621B730B840BBA0BEE1F88F7E09592
:101EF00008950E94800F6894B1110C941E100895EB
:101F00000E94031088F09F5798F0B92F9927B75176
:101F1000B0F0E1F0660F771F881F991F1AF0BA958D
:101F2000C9F714C0B13091F00E941D10B1E00895BE
:101F30000C941D10672F782F8827B85F39F0B93FB0
:101F4000CCF3869577956795B395D9F73EF4909540
:101F50008095709561957F4F8F4F9F4F0895990F92
:101F60000008550FAA0BE0E8FEEF16161706E80763
:101F7000F907C0F012161306E407F50798F0621B84
:101F8000730B840B950B39F40A2661F0232B242B59
:101F9000252B21F408950A2609F4A140A6958FEF78
:101FA000811D811D089597F99F6780E870E060E0CA
:101FB00008959FEF80EC089500240A9416161706E2
:101FC00018060906089500240A941216130614062A
:101FD00005060895092E0394000C11F4882352F08D
:101FE000BB0F40F4BF2B11F460FF04C06F5F7F4F45
:101FF0008F4F9F4F089557FD9058440F551F59F02C
:102000005F3F71F04795880F97FB991F61F09F3FE5
:1020100079F087950895121613061406551FF2CF0E
:102020004695F1DF08C0161617061806991FF1CF5E
:1020300086957105610508940895E894BB27662785
:102040007727CB0197F908950E94AF0F08F48FEF1F
:1020500008950E943C100C94EA0F0E94DC0F38F0A7
:102060000E94E30F20F0952311F00C94D30F0C94F1
:10207000D90F11240C941E100E94FB0F70F3959F32
:10208000C1F3950F50E0551F629FF001729FBB276F
:10209000F00DB11D639FAA27F00DB11DAA1F649F0B
:1020A0006627B00DA11D661F829F2227B00DA11DBE
:1020B000621F739FB00DA11D621F839FA00D611D44
:1020C000221F749F3327A00D611D231F849F600D65
:1020D000211D822F762F6A2F11249F5750409AF08E
:1020E000F1F088234AF0EE0FFF1FBB1F661F771F1A
:1020F000881F91505040A9F79E3F510580F00C94E5
:10210000D30F0C941E105F3FE4F3983ED4F38695F2
:1021100077956795B795F795E7959F5FC1F7FE2B84
:10212000880F911D9695879597F908958F929F92A4
:10213000AF92BF92CF92DF92EF92FF92CF93DF9355
:10214000EC01688179818A819B8161157105810526
:10215000910521F464E279ED8BE597E02DE133EF11
:1021600041E050E00E94F01049015A019B01AC018E
:10217000A7EAB1E40E940F116B017C01ACEEB4EF51
:10218000A50194010E941D11DC01CB018C0D9D1D48
:10219000AE1DBF1DB7FF03C00197A109B0488883DA
:1021A0009983AA83BB839F77DF91CF91FF90EF90B4
:1021B000DF90CF90BF90AF909F908F9008950C9438
:1021C00096108AE191E00C949610A0E0B0E0809324
:1021D0001A0190931B01A0931C01B0931D01089557
:1021E000052E97FB1EF400940E94071157FD07D09F
:1021F0000E94C30E07FC03D04EF40C9407115095B7
:102200004095309521953F4F4F4F5F4F08959095E2
:102210008095709561957F4F8F4F9F4F08950E94D5
:102220002211A59F900DB49F900DA49F800D911D2C
:1022300011240895B7FF0C940F110E940F11821BF7
:10224000930B0895A29FB001B39FC001A39F700D8F
:10225000811D1124911DB29F700D811D1124911DAE
:062260000895F894FFCF81
:102266000000000200000000B201000000000100B2
:10227600000001010101FFFF7C01010000000000D8
:10228600000091019C01A7012B002D003D00005587
:102296006E6C6F636B696E67002E003D3D3D3D20A1
:1022A600205341464520203D3D3D3D20003D3D20FB
:1022B60020554E4C4F434B454420203D3D200020A9
:1022C600414C41524D2020534F554E444544200029
:0E22D600300030300005060201000403000055
:00000001FF
